{
  "contractName": "CHICHIHelp",
  "abi": [
    {
      "inputs": [
        {
          "internalType": "contract ERC20",
          "name": "token",
          "type": "address"
        },
        {
          "internalType": "uint256",
          "name": "startingAt",
          "type": "uint256"
        },
        {
          "internalType": "uint256",
          "name": "activeDuration",
          "type": "uint256"
        },
        {
          "internalType": "address",
          "name": "treasuryAddress",
          "type": "address"
        }
      ],
      "stateMutability": "nonpayable",
      "type": "constructor"
    },
    {
      "anonymous": false,
      "inputs": [
        {
          "indexed": true,
          "internalType": "address",
          "name": "wallet",
          "type": "address"
        },
        {
          "indexed": false,
          "internalType": "string",
          "name": "name",
          "type": "string"
        },
        {
          "indexed": false,
          "internalType": "uint256",
          "name": "numberOfChichis",
          "type": "uint256"
        }
      ],
      "name": "AddedClaimer",
      "type": "event"
    },
    {
      "anonymous": false,
      "inputs": [
        {
          "indexed": true,
          "internalType": "address",
          "name": "by",
          "type": "address"
        },
        {
          "indexed": false,
          "internalType": "uint256",
          "name": "numberOfChichis",
          "type": "uint256"
        }
      ],
      "name": "Claimed",
      "type": "event"
    },
    {
      "anonymous": false,
      "inputs": [
        {
          "indexed": true,
          "internalType": "address",
          "name": "to",
          "type": "address"
        },
        {
          "indexed": false,
          "internalType": "uint256",
          "name": "numberOfChichis",
          "type": "uint256"
        }
      ],
      "name": "IncreasedAllowance",
      "type": "event"
    },
    {
      "anonymous": false,
      "inputs": [
        {
          "indexed": true,
          "internalType": "address",
          "name": "previousOwner",
          "type": "address"
        },
        {
          "indexed": true,
          "internalType": "address",
          "name": "newOwner",
          "type": "address"
        }
      ],
      "name": "OwnershipTransferred",
      "type": "event"
    },
    {
      "anonymous": false,
      "inputs": [
        {
          "indexed": false,
          "internalType": "uint256",
          "name": "numberOfChichis",
          "type": "uint256"
        }
      ],
      "name": "TransferredToTreasury",
      "type": "event"
    },
    {
      "inputs": [],
      "name": "owner",
      "outputs": [
        {
          "internalType": "address",
          "name": "",
          "type": "address"
        }
      ],
      "stateMutability": "view",
      "type": "function"
    },
    {
      "inputs": [],
      "name": "renounceOwnership",
      "outputs": [],
      "stateMutability": "nonpayable",
      "type": "function"
    },
    {
      "inputs": [
        {
          "internalType": "address",
          "name": "newOwner",
          "type": "address"
        }
      ],
      "name": "transferOwnership",
      "outputs": [],
      "stateMutability": "nonpayable",
      "type": "function"
    },
    {
      "inputs": [],
      "name": "startingBlock",
      "outputs": [
        {
          "internalType": "uint256",
          "name": "",
          "type": "uint256"
        }
      ],
      "stateMutability": "view",
      "type": "function"
    },
    {
      "inputs": [],
      "name": "activeForNumberOfBlocks",
      "outputs": [
        {
          "internalType": "uint256",
          "name": "",
          "type": "uint256"
        }
      ],
      "stateMutability": "view",
      "type": "function"
    },
    {
      "inputs": [],
      "name": "endingBlock",
      "outputs": [
        {
          "internalType": "uint256",
          "name": "",
          "type": "uint256"
        }
      ],
      "stateMutability": "view",
      "type": "function"
    },
    {
      "inputs": [],
      "name": "hasStarted",
      "outputs": [
        {
          "internalType": "bool",
          "name": "",
          "type": "bool"
        }
      ],
      "stateMutability": "view",
      "type": "function"
    },
    {
      "inputs": [],
      "name": "hasEnded",
      "outputs": [
        {
          "internalType": "bool",
          "name": "",
          "type": "bool"
        }
      ],
      "stateMutability": "view",
      "type": "function"
    },
    {
      "inputs": [],
      "name": "name",
      "outputs": [
        {
          "internalType": "string",
          "name": "",
          "type": "string"
        }
      ],
      "stateMutability": "pure",
      "type": "function"
    },
    {
      "inputs": [],
      "name": "treasury",
      "outputs": [
        {
          "internalType": "address",
          "name": "",
          "type": "address"
        }
      ],
      "stateMutability": "view",
      "type": "function"
    },
    {
      "inputs": [],
      "name": "balance",
      "outputs": [
        {
          "internalType": "uint256",
          "name": "",
          "type": "uint256"
        }
      ],
      "stateMutability": "view",
      "type": "function"
    },
    {
      "inputs": [],
      "name": "numberOfClaims",
      "outputs": [
        {
          "internalType": "uint256",
          "name": "",
          "type": "uint256"
        }
      ],
      "stateMutability": "view",
      "type": "function"
    },
    {
      "inputs": [
        {
          "internalType": "address",
          "name": "claimer",
          "type": "address"
        },
        {
          "internalType": "string",
          "name": "nameOfClaimer",
          "type": "string"
        },
        {
          "internalType": "uint256",
          "name": "allowance",
          "type": "uint256"
        }
      ],
      "name": "addClaimer",
      "outputs": [],
      "stateMutability": "nonpayable",
      "type": "function"
    },
    {
      "inputs": [
        {
          "internalType": "address",
          "name": "to",
          "type": "address"
        },
        {
          "internalType": "uint256",
          "name": "amount",
          "type": "uint256"
        }
      ],
      "name": "increaseAllowance",
      "outputs": [],
      "stateMutability": "nonpayable",
      "type": "function"
    },
    {
      "inputs": [
        {
          "internalType": "address",
          "name": "by",
          "type": "address"
        }
      ],
      "name": "numberOfChichisToClaim",
      "outputs": [
        {
          "internalType": "uint256",
          "name": "",
          "type": "uint256"
        }
      ],
      "stateMutability": "view",
      "type": "function"
    },
    {
      "inputs": [
        {
          "internalType": "address",
          "name": "by",
          "type": "address"
        }
      ],
      "name": "nameOf",
      "outputs": [
        {
          "internalType": "string",
          "name": "",
          "type": "string"
        }
      ],
      "stateMutability": "view",
      "type": "function"
    },
    {
      "inputs": [],
      "name": "claim",
      "outputs": [],
      "stateMutability": "nonpayable",
      "type": "function"
    },
    {
      "inputs": [],
      "name": "transferRemainingBalanceToTreasury",
      "outputs": [],
      "stateMutability": "nonpayable",
      "type": "function"
    }
  ],
  "bytecode": "0x60806040523480156200001157600080fd5b50604051620021bb380380620021bb8339818101604052810190620000379190620003a6565b620000576200004b620001f060201b60201c565b620001f860201b60201c565b600073ffffffffffffffffffffffffffffffffffffffff168173ffffffffffffffffffffffffffffffffffffffff161415620000ca576040517f08c379a0000000000000000000000000000000000000000000000000000000008152600401620000c1906200049f565b60405180910390fd5b6000831162000110576040517f08c379a0000000000000000000000000000000000000000000000000000000008152600401620001079062000537565b60405180910390fd5b6000821162000156576040517f08c379a00000000000000000000000000000000000000000000000000000000081526004016200014d90620005cf565b60405180910390fd5b83600160006101000a81548173ffffffffffffffffffffffffffffffffffffffff021916908373ffffffffffffffffffffffffffffffffffffffff160217905550826002819055508160038190555080600460006101000a81548173ffffffffffffffffffffffffffffffffffffffff021916908373ffffffffffffffffffffffffffffffffffffffff16021790555050505050620005f1565b600033905090565b60008060009054906101000a900473ffffffffffffffffffffffffffffffffffffffff169050816000806101000a81548173ffffffffffffffffffffffffffffffffffffffff021916908373ffffffffffffffffffffffffffffffffffffffff1602179055508173ffffffffffffffffffffffffffffffffffffffff168173ffffffffffffffffffffffffffffffffffffffff167f8be0079c531659141344cd1fd0a4f28419497f9722a3daafe3b4186f6b6457e060405160405180910390a35050565b600080fd5b600073ffffffffffffffffffffffffffffffffffffffff82169050919050565b6000620002ee82620002c1565b9050919050565b60006200030282620002e1565b9050919050565b6200031481620002f5565b81146200032057600080fd5b50565b600081519050620003348162000309565b92915050565b6000819050919050565b6200034f816200033a565b81146200035b57600080fd5b50565b6000815190506200036f8162000344565b92915050565b6200038081620002e1565b81146200038c57600080fd5b50565b600081519050620003a08162000375565b92915050565b60008060008060808587031215620003c357620003c2620002bc565b5b6000620003d38782880162000323565b9450506020620003e6878288016200035e565b9350506040620003f9878288016200035e565b92505060606200040c878288016200038f565b91505092959194509250565b600082825260208201905092915050565b7f547265617375727920616464726573732063616e6e6f7420626520746865207a60008201527f65726f2061646472657373000000000000000000000000000000000000000000602082015250565b600062000487602b8362000418565b9150620004948262000429565b604082019050919050565b60006020820190508181036000830152620004ba8162000478565b9050919050565b7f5374617274696e6720626c6f636b206d7573742062652067726561746572207460008201527f68616e2030000000000000000000000000000000000000000000000000000000602082015250565b60006200051f60258362000418565b91506200052c82620004c1565b604082019050919050565b60006020820190508181036000830152620005528162000510565b9050919050565b7f416374697665206475726174696f6e206d75737420626520677265617465722060008201527f7468616e20300000000000000000000000000000000000000000000000000000602082015250565b6000620005b760268362000418565b9150620005c48262000559565b604082019050919050565b60006020820190508181036000830152620005ea81620005a8565b9050919050565b611bba80620006016000396000f3fe608060405234801561001057600080fd5b50600436106101165760003560e01c80638da5cb5b116100a2578063d91c98d311610071578063d91c98d314610273578063ecb70fb714610291578063ee993375146102af578063f2fde38b146102cd578063f5c57382146102e957610116565b80638da5cb5b146101fd578063b29e259c1461021b578063b69ef8a814610225578063cc8ce6a11461024357610116565b80634e71d92d116100e95780634e71d92d1461019157806361d027b31461019b5780636cf5ae7a146101b9578063715018a6146101d55780637b1f337d146101df57610116565b806306fdde031461011b5780633357436814610139578063395093511461015757806344691f7e14610173575b600080fd5b610123610319565b6040516101309190611167565b60405180910390f35b610141610356565b60405161014e91906111a2565b60405180910390f35b610171600480360381019061016c919061125b565b610360565b005b61017b610487565b60405161018891906112b6565b60405180910390f35b610199610494565b005b6101a361077f565b6040516101b091906112e0565b60405180910390f35b6101d360048036038101906101ce9190611430565b6107a9565b005b6101dd61097d565b005b6101e7610a05565b6040516101f491906111a2565b60405180910390f35b610205610a1c565b60405161021291906112e0565b60405180910390f35b610223610a45565b005b61022d610c54565b60405161023a91906111a2565b60405180910390f35b61025d6004803603810190610258919061149f565b610cf7565b60405161026a91906111a2565b60405180910390f35b61027b610d43565b60405161028891906111a2565b60405180910390f35b610299610d4d565b6040516102a691906112b6565b60405180910390f35b6102b7610d5e565b6040516102c491906111a2565b60405180910390f35b6102e760048036038101906102e2919061149f565b610d6f565b005b61030360048036038101906102fe919061149f565b610e67565b6040516103109190611167565b60405180910390f35b60606040518060400160405280600b81526020017f4348494348492048656c70000000000000000000000000000000000000000000815250905090565b6000600354905090565b610368610f3b565b73ffffffffffffffffffffffffffffffffffffffff16610386610a1c565b73ffffffffffffffffffffffffffffffffffffffff16146103dc576040517f08c379a00000000000000000000000000000000000000000000000000000000081526004016103d390611518565b60405180910390fd5b80600660008473ffffffffffffffffffffffffffffffffffffffff1673ffffffffffffffffffffffffffffffffffffffff168152602001908152602001600020600101600082825461042e9190611567565b925050819055508173ffffffffffffffffffffffffffffffffffffffff167f81f2b0ee26cd73436e1191c40f9f50aa41703f91667028784e29b19e6d6d371b8260405161047b91906111a2565b60405180910390a25050565b6000600254431015905090565b600061049e610f3b565b9050600015156104ac610d4d565b1515146104ee576040517f08c379a00000000000000000000000000000000000000000000000000000000081526004016104e590611609565b60405180910390fd5b6104f6610487565b610535576040517f08c379a000000000000000000000000000000000000000000000000000000000815260040161052c90611675565b60405180910390fd5b600061053f610c54565b905060008111610584576040517f08c379a000000000000000000000000000000000000000000000000000000000815260040161057b90611707565b60405180910390fd5b600061058f83610cf7565b9050600081116105d4576040517f08c379a00000000000000000000000000000000000000000000000000000000081526004016105cb90611773565b60405180910390fd5b8082106105e157806105e3565b815b905080821015610628576040517f08c379a000000000000000000000000000000000000000000000000000000000815260040161061f90611805565b60405180910390fd5b600160009054906101000a900473ffffffffffffffffffffffffffffffffffffffff1673ffffffffffffffffffffffffffffffffffffffff1663a9059cbb84836040518363ffffffff1660e01b8152600401610685929190611825565b6020604051808303816000875af11580156106a4573d6000803e3d6000fd5b505050506040513d601f19601f820116820180604052508101906106c8919061187a565b5080600660008573ffffffffffffffffffffffffffffffffffffffff1673ffffffffffffffffffffffffffffffffffffffff168152602001908152602001600020600101600082825461071b91906118a7565b9250508190555061072c6005610f43565b8273ffffffffffffffffffffffffffffffffffffffff167fd8138f8a3f377c5259ca548e70e4c2de94f129f5a11036a15b69513cba2b426a8260405161077291906111a2565b60405180910390a2505050565b6000600460009054906101000a900473ffffffffffffffffffffffffffffffffffffffff16905090565b6107b1610f3b565b73ffffffffffffffffffffffffffffffffffffffff166107cf610a1c565b73ffffffffffffffffffffffffffffffffffffffff1614610825576040517f08c379a000000000000000000000000000000000000000000000000000000000815260040161081c90611518565b60405180910390fd5b6000600660008573ffffffffffffffffffffffffffffffffffffffff1673ffffffffffffffffffffffffffffffffffffffff16815260200190815260200160002060010154146108aa576040517f08c379a00000000000000000000000000000000000000000000000000000000081526004016108a190611927565b60405180910390fd5b604051806040016040528083815260200182815250600660008573ffffffffffffffffffffffffffffffffffffffff1673ffffffffffffffffffffffffffffffffffffffff168152602001908152602001600020600082015181600001908051906020019061091a92919061102b565b50602082015181600101559050508273ffffffffffffffffffffffffffffffffffffffff167fcbf460a380004cbc8481c8435a5eb78414493ff39f8b15097019cfd06878c88b8383604051610970929190611947565b60405180910390a2505050565b610985610f3b565b73ffffffffffffffffffffffffffffffffffffffff166109a3610a1c565b73ffffffffffffffffffffffffffffffffffffffff16146109f9576040517f08c379a00000000000000000000000000000000000000000000000000000000081526004016109f090611518565b60405180910390fd5b610a036000610f59565b565b6000600354600254610a179190611567565b905090565b60008060009054906101000a900473ffffffffffffffffffffffffffffffffffffffff16905090565b610a4d610f3b565b73ffffffffffffffffffffffffffffffffffffffff16610a6b610a1c565b73ffffffffffffffffffffffffffffffffffffffff1614610ac1576040517f08c379a0000000000000000000000000000000000000000000000000000000008152600401610ab890611518565b60405180910390fd5b610ac9610d4d565b610b08576040517f08c379a0000000000000000000000000000000000000000000000000000000008152600401610aff906119c3565b60405180910390fd5b6000610b12610c54565b905060008111610b57576040517f08c379a0000000000000000000000000000000000000000000000000000000008152600401610b4e90611a2f565b60405180910390fd5b600160009054906101000a900473ffffffffffffffffffffffffffffffffffffffff1673ffffffffffffffffffffffffffffffffffffffff1663a9059cbb600460009054906101000a900473ffffffffffffffffffffffffffffffffffffffff16836040518363ffffffff1660e01b8152600401610bd6929190611825565b6020604051808303816000875af1158015610bf5573d6000803e3d6000fd5b505050506040513d601f19601f82011682018060405250810190610c19919061187a565b507f42df749e7644a4435038a28d02b17d18ee300aca364443ab26f11325d4c88d7b81604051610c4991906111a2565b60405180910390a150565b6000600160009054906101000a900473ffffffffffffffffffffffffffffffffffffffff1673ffffffffffffffffffffffffffffffffffffffff166370a08231306040518263ffffffff1660e01b8152600401610cb191906112e0565b602060405180830381865afa158015610cce573d6000803e3d6000fd5b505050506040513d601f19601f82011682018060405250810190610cf29190611a64565b905090565b6000600660008373ffffffffffffffffffffffffffffffffffffffff1673ffffffffffffffffffffffffffffffffffffffff168152602001908152602001600020600101549050919050565b6000600254905090565b6000610d57610a05565b4311905090565b6000610d6a600561101d565b905090565b610d77610f3b565b73ffffffffffffffffffffffffffffffffffffffff16610d95610a1c565b73ffffffffffffffffffffffffffffffffffffffff1614610deb576040517f08c379a0000000000000000000000000000000000000000000000000000000008152600401610de290611518565b60405180910390fd5b600073ffffffffffffffffffffffffffffffffffffffff168173ffffffffffffffffffffffffffffffffffffffff161415610e5b576040517f08c379a0000000000000000000000000000000000000000000000000000000008152600401610e5290611b03565b60405180910390fd5b610e6481610f59565b50565b6060600660008373ffffffffffffffffffffffffffffffffffffffff1673ffffffffffffffffffffffffffffffffffffffff1681526020019081526020016000206000018054610eb690611b52565b80601f0160208091040260200160405190810160405280929190818152602001828054610ee290611b52565b8015610f2f5780601f10610f0457610100808354040283529160200191610f2f565b820191906000526020600020905b815481529060010190602001808311610f1257829003601f168201915b50505050509050919050565b600033905090565b6001816000016000828254019250508190555050565b60008060009054906101000a900473ffffffffffffffffffffffffffffffffffffffff169050816000806101000a81548173ffffffffffffffffffffffffffffffffffffffff021916908373ffffffffffffffffffffffffffffffffffffffff1602179055508173ffffffffffffffffffffffffffffffffffffffff168173ffffffffffffffffffffffffffffffffffffffff167f8be0079c531659141344cd1fd0a4f28419497f9722a3daafe3b4186f6b6457e060405160405180910390a35050565b600081600001549050919050565b82805461103790611b52565b90600052602060002090601f01602090048101928261105957600085556110a0565b82601f1061107257805160ff19168380011785556110a0565b828001600101855582156110a0579182015b8281111561109f578251825591602001919060010190611084565b5b5090506110ad91906110b1565b5090565b5b808211156110ca5760008160009055506001016110b2565b5090565b600081519050919050565b600082825260208201905092915050565b60005b838110156111085780820151818401526020810190506110ed565b83811115611117576000848401525b50505050565b6000601f19601f8301169050919050565b6000611139826110ce565b61114381856110d9565b93506111538185602086016110ea565b61115c8161111d565b840191505092915050565b60006020820190508181036000830152611181818461112e565b905092915050565b6000819050919050565b61119c81611189565b82525050565b60006020820190506111b76000830184611193565b92915050565b6000604051905090565b600080fd5b600080fd5b600073ffffffffffffffffffffffffffffffffffffffff82169050919050565b60006111fc826111d1565b9050919050565b61120c816111f1565b811461121757600080fd5b50565b60008135905061122981611203565b92915050565b61123881611189565b811461124357600080fd5b50565b6000813590506112558161122f565b92915050565b60008060408385031215611272576112716111c7565b5b60006112808582860161121a565b925050602061129185828601611246565b9150509250929050565b60008115159050919050565b6112b08161129b565b82525050565b60006020820190506112cb60008301846112a7565b92915050565b6112da816111f1565b82525050565b60006020820190506112f560008301846112d1565b92915050565b600080fd5b600080fd5b7f4e487b7100000000000000000000000000000000000000000000000000000000600052604160045260246000fd5b61133d8261111d565b810181811067ffffffffffffffff8211171561135c5761135b611305565b5b80604052505050565b600061136f6111bd565b905061137b8282611334565b919050565b600067ffffffffffffffff82111561139b5761139a611305565b5b6113a48261111d565b9050602081019050919050565b82818337600083830152505050565b60006113d36113ce84611380565b611365565b9050828152602081018484840111156113ef576113ee611300565b5b6113fa8482856113b1565b509392505050565b600082601f830112611417576114166112fb565b5b81356114278482602086016113c0565b91505092915050565b600080600060608486031215611449576114486111c7565b5b60006114578682870161121a565b935050602084013567ffffffffffffffff811115611478576114776111cc565b5b61148486828701611402565b925050604061149586828701611246565b9150509250925092565b6000602082840312156114b5576114b46111c7565b5b60006114c38482850161121a565b91505092915050565b7f4f776e61626c653a2063616c6c6572206973206e6f7420746865206f776e6572600082015250565b60006115026020836110d9565b915061150d826114cc565b602082019050919050565b60006020820190508181036000830152611531816114f5565b9050919050565b7f4e487b7100000000000000000000000000000000000000000000000000000000600052601160045260246000fd5b600061157282611189565b915061157d83611189565b9250827fffffffffffffffffffffffffffffffffffffffffffffffffffffffffffffffff038211156115b2576115b1611538565b5b828201905092915050565b7f5468652070726f6772616d206861732066696e69736865640000000000000000600082015250565b60006115f36018836110d9565b91506115fe826115bd565b602082019050919050565b60006020820190508181036000830152611622816115e6565b9050919050565b7f5468652070726f6772616d206973206e6f742061637469766520796574000000600082015250565b600061165f601d836110d9565b915061166a82611629565b602082019050919050565b6000602082019050818103600083015261168e81611652565b9050919050565b7f416c6c20434849434849732068617665206265656e20636c61696d656420616c60008201527f7265616479000000000000000000000000000000000000000000000000000000602082015250565b60006116f16025836110d9565b91506116fc82611695565b604082019050919050565b60006020820190508181036000830152611720816116e4565b9050919050565b7f596f752068617665206e6f20616c6c6f77616e63650000000000000000000000600082015250565b600061175d6015836110d9565b915061176882611727565b602082019050919050565b6000602082019050818103600083015261178c81611750565b9050919050565b7f5468652063757272656e742062616c616e6365206f662043484943484973206960008201527f7320696e73756666696369656e74000000000000000000000000000000000000602082015250565b60006117ef602e836110d9565b91506117fa82611793565b604082019050919050565b6000602082019050818103600083015261181e816117e2565b9050919050565b600060408201905061183a60008301856112d1565b6118476020830184611193565b9392505050565b6118578161129b565b811461186257600080fd5b50565b6000815190506118748161184e565b92915050565b6000602082840312156118905761188f6111c7565b5b600061189e84828501611865565b91505092915050565b60006118b282611189565b91506118bd83611189565b9250828210156118d0576118cf611538565b5b828203905092915050565b7f416c726561647920616464656400000000000000000000000000000000000000600082015250565b6000611911600d836110d9565b915061191c826118db565b602082019050919050565b6000602082019050818103600083015261194081611904565b9050919050565b60006040820190508181036000830152611961818561112e565b90506119706020830184611193565b9392505050565b7f5468652070726f6772616d20686173206e6f7420656e64656420796574000000600082015250565b60006119ad601d836110d9565b91506119b882611977565b602082019050919050565b600060208201905081810360008301526119dc816119a0565b9050919050565b7f4e6f206d6f72652043484943484973206c656674000000000000000000000000600082015250565b6000611a196014836110d9565b9150611a24826119e3565b602082019050919050565b60006020820190508181036000830152611a4881611a0c565b9050919050565b600081519050611a5e8161122f565b92915050565b600060208284031215611a7a57611a796111c7565b5b6000611a8884828501611a4f565b91505092915050565b7f4f776e61626c653a206e6577206f776e657220697320746865207a65726f206160008201527f6464726573730000000000000000000000000000000000000000000000000000602082015250565b6000611aed6026836110d9565b9150611af882611a91565b604082019050919050565b60006020820190508181036000830152611b1c81611ae0565b9050919050565b7f4e487b7100000000000000000000000000000000000000000000000000000000600052602260045260246000fd5b60006002820490506001821680611b6a57607f821691505b60208210811415611b7e57611b7d611b23565b5b5091905056fea2646970667358221220903bc004fe897ccd37e1b8e73a75ebb28bf1f0a1c1fcd989fa27ae2a0ef28e6964736f6c634300080a0033",
  "immutableReferences": {},
  "source": "// SPDX-License-Identifier: MIT\npragma solidity 0.8.10;\n\nimport \"@openzeppelin/contracts/token/ERC20/ERC20.sol\";\nimport \"@openzeppelin/contracts/access/Ownable.sol\";\nimport \"@openzeppelin/contracts/utils/Counters.sol\";\n\ncontract CHICHIHelp is Ownable {\n  using Counters for Counters.Counter;\n\n  struct Claimer {\n    string name;\n    uint256 allowance;\n}\n\n  // Emitted when a claimer has been added\n  event AddedClaimer(address indexed wallet, string name, uint numberOfChichis);\n  // Emitted when the allowance is increased for an address\n  event IncreasedAllowance(address indexed to, uint numberOfChichis);\n  // Emitted when a claim occurred\n  event Claimed(address indexed by, uint numberOfChichis);\n  // Emitted when the assets are transferred to the treasury\n  event TransferredToTreasury(uint numberOfChichis);\n\n  // Name of the smart contract\n  string constant private _name = \"CHICHI Help\";\n\n  // Token that will be used to transfer funds\n  ERC20 private _token;\n\n  // Block number when the program starts\n  uint256 private _startingBlock;\n\n  // Duration of the program measured in number of blocks\n  uint256 private _activeDuration;\n\n  // Address of the CHICHI Treasury.\n  address private _treasury;\n\n  // Number of times the CHICHIs have been claimed\n  Counters.Counter private _claims;\n\n  // CHICHI claimers\n  mapping(address => Claimer) private _claimers;\n\n  /**\n    Smart contract initialization.\n    */\n  constructor(ERC20 token, uint256 startingAt, uint256 activeDuration, address treasuryAddress) {\n    require(treasuryAddress != address(0), \"Treasury address cannot be the zero address\");\n    require(startingAt > 0, \"Starting block must be greater than 0\");\n    require(activeDuration > 0, \"Active duration must be greater than 0\");\n\n    _token = token;\n    _startingBlock = startingAt;\n    _activeDuration = activeDuration;\n    _treasury = treasuryAddress;\n  }\n\n  /**\n   Returns the block number when the program starts.\n   */\n  function startingBlock() external view returns (uint256) {\n    return _startingBlock;\n  }\n\n  /**\n   Returns the duration of the program measured in number of blocks.\n   */\n  function activeForNumberOfBlocks() external view returns (uint256) {\n    return _activeDuration;\n  }\n\n  /**\n   Returns the block number when the program ends.\n   */\n  function endingBlock() public view returns (uint256) {\n    return _startingBlock + _activeDuration;\n  }\n\n  /**\n   Indicates if the program has started.\n   */\n  function hasStarted() public view returns (bool) {\n    return block.number >= _startingBlock;\n  }\n\n  /**\n   Indicates if the program has ended.\n   */\n  function hasEnded() public view returns (bool) {\n    return block.number > endingBlock();\n  }\n\n  /**\n    Returns the smart contract name.\n    */\n  function name() external pure returns (string memory) {\n    return _name;\n  }\n\n  /**\n    Returns the treasury address.\n    */\n  function treasury() external view returns (address) {\n    return _treasury;\n  }\n\n  /**\n    Returns the current CHICHI balance for the program.\n    */\n  function balance() public view returns (uint256) {\n    return _token.balanceOf(address(this));\n  }\n\n  /**\n    Returns the number of times the CHICHIs have been claimed.\n    */\n  function numberOfClaims() external view returns (uint256) {\n    return _claims.current();\n  }\n\n  /**\n    Adds a new claimer.\n    */\n  function addClaimer(address claimer, string memory nameOfClaimer, uint256 allowance) external onlyOwner {\n    require(_claimers[claimer].allowance == 0, \"Already added\");\n\n    _claimers[claimer] = Claimer({\n      name: nameOfClaimer,\n      allowance: allowance\n    });\n\n    emit AddedClaimer(claimer, nameOfClaimer, allowance);\n  }\n\n  /**\n    Increase the number of CHICHIs that can be claimed by an address.\n    */\n  function increaseAllowance(address to, uint256 amount) external onlyOwner {\n    _claimers[to].allowance += amount;\n    emit IncreasedAllowance(to, amount);\n  }\n\n  /**\n    Returns the number of CHICHIs that can be claimed by an address.\n    */\n  function numberOfChichisToClaim(address by) public view returns (uint256) {\n    return _claimers[by].allowance;\n  }\n\n  /**\n    Returns the name of a claimer.\n    */\n  function nameOf(address by) external view returns (string memory) {\n    return _claimers[by].name;\n  }\n\n  /**\n    Claim CHICHIs.\n    */\n  function claim() external {\n    address claimer = _msgSender();\n\n    require(hasEnded() == false, \"The program has finished\");\n    require(hasStarted(), \"The program is not active yet\");\n\n    uint256 currentBalance = balance();\n    require(currentBalance > 0, \"All CHICHIs have been claimed already\");\n\n    uint256 chichis = numberOfChichisToClaim(claimer);\n    require(chichis > 0, \"You have no allowance\");\n\n    chichis = currentBalance < chichis ? currentBalance : chichis; // If the balance is less than the allowance for the claimer, claim all the remaining CHICHIs\n    require(currentBalance >= chichis, \"The current balance of CHICHIs is insufficient\");\n    \n    _token.transfer(claimer, chichis);\n    _claimers[claimer].allowance -= chichis;\n    _claims.increment();\n\n    emit Claimed(claimer, chichis);\n  }\n\n  /**\n   Transfers the remaining balance to the CHICHI Treasury.\n   */\n  function transferRemainingBalanceToTreasury() external onlyOwner {\n    require(hasEnded(), \"The program has not ended yet\");\n    \n    uint256 currentBalance = balance();\n    require(currentBalance > 0, \"No more CHICHIs left\");\n    \n    _token.transfer(_treasury, currentBalance);\n    emit TransferredToTreasury(currentBalance);\n  }\n}",
  "sourcePath": "/Volumes/Storage/Workspace/Projects/Inu/contracts/contracts/CHICHIHelp.sol",
  "compiler": {
    "name": "solc",
    "version": "0.8.10+commit.fc410830.Emscripten.clang"
  },
  "schemaVersion": "3.4.3",
  "updatedAt": "2021-11-15T14:37:22.689Z",
  "devdoc": {
    "kind": "dev",
    "methods": {
      "owner()": {
        "details": "Returns the address of the current owner."
      },
      "renounceOwnership()": {
        "details": "Leaves the contract without owner. It will not be possible to call `onlyOwner` functions anymore. Can only be called by the current owner. NOTE: Renouncing ownership will leave the contract without an owner, thereby removing any functionality that is only available to the owner."
      },
      "transferOwnership(address)": {
        "details": "Transfers ownership of the contract to a new account (`newOwner`). Can only be called by the current owner."
      }
    },
    "version": 1
  },
  "userdoc": {
    "kind": "user",
    "methods": {
      "activeForNumberOfBlocks()": {
        "notice": "Returns the duration of the program measured in number of blocks."
      },
      "addClaimer(address,string,uint256)": {
        "notice": "Adds a new claimer."
      },
      "balance()": {
        "notice": "Returns the current CHICHI balance for the program."
      },
      "claim()": {
        "notice": "Claim CHICHIs."
      },
      "constructor": {
        "notice": "Smart contract initialization."
      },
      "endingBlock()": {
        "notice": "Returns the block number when the program ends."
      },
      "hasEnded()": {
        "notice": "Indicates if the program has ended."
      },
      "hasStarted()": {
        "notice": "Indicates if the program has started."
      },
      "increaseAllowance(address,uint256)": {
        "notice": "Increase the number of CHICHIs that can be claimed by an address."
      },
      "name()": {
        "notice": "Returns the smart contract name."
      },
      "nameOf(address)": {
        "notice": "Returns the name of a claimer."
      },
      "numberOfChichisToClaim(address)": {
        "notice": "Returns the number of CHICHIs that can be claimed by an address."
      },
      "numberOfClaims()": {
        "notice": "Returns the number of times the CHICHIs have been claimed."
      },
      "startingBlock()": {
        "notice": "Returns the block number when the program starts."
      },
      "transferRemainingBalanceToTreasury()": {
        "notice": "Transfers the remaining balance to the CHICHI Treasury."
      },
      "treasury()": {
        "notice": "Returns the treasury address."
      }
    },
    "version": 1
  }
}