{
  "contractName": "CHICHIAdoptionCenter",
  "abi": [
    {
      "inputs": [
        {
          "internalType": "contract ERC20",
          "name": "token",
          "type": "address"
        },
        {
          "internalType": "uint256",
          "name": "startingAt",
          "type": "uint256"
        },
        {
          "internalType": "uint256",
          "name": "activeDuration",
          "type": "uint256"
        },
        {
          "internalType": "address",
          "name": "treasuryAddress",
          "type": "address"
        }
      ],
      "stateMutability": "nonpayable",
      "type": "constructor"
    },
    {
      "anonymous": false,
      "inputs": [
        {
          "indexed": true,
          "internalType": "address",
          "name": "adopter",
          "type": "address"
        },
        {
          "indexed": false,
          "internalType": "uint256",
          "name": "numberOfChichis",
          "type": "uint256"
        }
      ],
      "name": "Adopted",
      "type": "event"
    },
    {
      "anonymous": false,
      "inputs": [
        {
          "indexed": true,
          "internalType": "address",
          "name": "previousOwner",
          "type": "address"
        },
        {
          "indexed": true,
          "internalType": "address",
          "name": "newOwner",
          "type": "address"
        }
      ],
      "name": "OwnershipTransferred",
      "type": "event"
    },
    {
      "anonymous": false,
      "inputs": [
        {
          "indexed": false,
          "internalType": "uint256",
          "name": "numberOfChichis",
          "type": "uint256"
        }
      ],
      "name": "TransferredToTreasury",
      "type": "event"
    },
    {
      "inputs": [],
      "name": "owner",
      "outputs": [
        {
          "internalType": "address",
          "name": "",
          "type": "address"
        }
      ],
      "stateMutability": "view",
      "type": "function",
      "constant": true
    },
    {
      "inputs": [],
      "name": "renounceOwnership",
      "outputs": [],
      "stateMutability": "nonpayable",
      "type": "function"
    },
    {
      "inputs": [
        {
          "internalType": "address",
          "name": "newOwner",
          "type": "address"
        }
      ],
      "name": "transferOwnership",
      "outputs": [],
      "stateMutability": "nonpayable",
      "type": "function"
    },
    {
      "inputs": [],
      "name": "startingBlock",
      "outputs": [
        {
          "internalType": "uint256",
          "name": "",
          "type": "uint256"
        }
      ],
      "stateMutability": "view",
      "type": "function",
      "constant": true
    },
    {
      "inputs": [],
      "name": "activeForNumberOfBlocks",
      "outputs": [
        {
          "internalType": "uint256",
          "name": "",
          "type": "uint256"
        }
      ],
      "stateMutability": "view",
      "type": "function",
      "constant": true
    },
    {
      "inputs": [],
      "name": "endingBlock",
      "outputs": [
        {
          "internalType": "uint256",
          "name": "",
          "type": "uint256"
        }
      ],
      "stateMutability": "view",
      "type": "function",
      "constant": true
    },
    {
      "inputs": [],
      "name": "hasStarted",
      "outputs": [
        {
          "internalType": "bool",
          "name": "",
          "type": "bool"
        }
      ],
      "stateMutability": "view",
      "type": "function",
      "constant": true
    },
    {
      "inputs": [],
      "name": "hasEnded",
      "outputs": [
        {
          "internalType": "bool",
          "name": "",
          "type": "bool"
        }
      ],
      "stateMutability": "view",
      "type": "function",
      "constant": true
    },
    {
      "inputs": [],
      "name": "name",
      "outputs": [
        {
          "internalType": "string",
          "name": "",
          "type": "string"
        }
      ],
      "stateMutability": "pure",
      "type": "function",
      "constant": true
    },
    {
      "inputs": [],
      "name": "treasury",
      "outputs": [
        {
          "internalType": "address",
          "name": "",
          "type": "address"
        }
      ],
      "stateMutability": "view",
      "type": "function",
      "constant": true
    },
    {
      "inputs": [],
      "name": "balance",
      "outputs": [
        {
          "internalType": "uint256",
          "name": "",
          "type": "uint256"
        }
      ],
      "stateMutability": "view",
      "type": "function",
      "constant": true
    },
    {
      "inputs": [],
      "name": "numberOfAdoptions",
      "outputs": [
        {
          "internalType": "uint256",
          "name": "",
          "type": "uint256"
        }
      ],
      "stateMutability": "view",
      "type": "function",
      "constant": true
    },
    {
      "inputs": [
        {
          "internalType": "address",
          "name": "sender",
          "type": "address"
        }
      ],
      "name": "numberOfChichisToAdopt",
      "outputs": [
        {
          "internalType": "uint256",
          "name": "",
          "type": "uint256"
        }
      ],
      "stateMutability": "view",
      "type": "function",
      "constant": true
    },
    {
      "inputs": [
        {
          "internalType": "address",
          "name": "sender",
          "type": "address"
        }
      ],
      "name": "hasAdopted",
      "outputs": [
        {
          "internalType": "bool",
          "name": "",
          "type": "bool"
        }
      ],
      "stateMutability": "view",
      "type": "function",
      "constant": true
    },
    {
      "inputs": [
        {
          "internalType": "address",
          "name": "sender",
          "type": "address"
        }
      ],
      "name": "adoption",
      "outputs": [
        {
          "internalType": "uint256",
          "name": "",
          "type": "uint256"
        }
      ],
      "stateMutability": "view",
      "type": "function",
      "constant": true
    },
    {
      "inputs": [],
      "name": "adopt",
      "outputs": [],
      "stateMutability": "nonpayable",
      "type": "function"
    },
    {
      "inputs": [],
      "name": "transferRemainingBalanceToTreasury",
      "outputs": [],
      "stateMutability": "nonpayable",
      "type": "function"
    }
  ],
  "bytecode": "0x608060405234801561001057600080fd5b50604051610e13380380610e1383398101604081905261002f9161014b565b610038336100e3565b6001600160a01b0381166100a65760405162461bcd60e51b815260206004820152602b60248201527f547265617375727920616464726573732063616e6e6f7420626520746865207a60448201526a65726f206164647265737360a81b606482015260840160405180910390fd5b600180546001600160a01b039586166001600160a01b03199182161790915560029390935560039190915560048054919093169116179055610197565b600080546001600160a01b038381166001600160a01b0319831681178455604051919092169283917f8be0079c531659141344cd1fd0a4f28419497f9722a3daafe3b4186f6b6457e09190a35050565b6001600160a01b038116811461014857600080fd5b50565b6000806000806080858703121561016157600080fd5b845161016c81610133565b809450506020850151925060408501519150606085015161018c81610133565b939692955090935050565b610c6d806101a66000396000f3fe608060405234801561001057600080fd5b506004361061010b5760003560e01c80637b1f337d116100a2578063b69ef8a811610071578063b69ef8a814610232578063caa510cb1461023a578063d91c98d31461024d578063ecb70fb714610255578063f2fde38b1461025d57600080fd5b80637b1f337d146102095780638da5cb5b14610211578063b0f5d8a414610222578063b29e259c1461022a57600080fd5b806344691f7e116100de57806344691f7e1461019857806361d027b3146101af57806364a03748146101d4578063715018a6146101ff57600080fd5b806306fdde03146101105780630ff6cfba146101515780632d0a35aa146101675780633357436814610190575b600080fd5b604080518082018252601681527521a424a1a4249020b237b83a34b7b71021b2b73a32b960511b6020820152905161014891906109dd565b60405180910390f35b610159610270565b604051908152602001610148565b610159610175366004610a32565b6001600160a01b031660009081526006602052604090205490565b600354610159565b6002544310155b6040519015158152602001610148565b6004546001600160a01b03165b6040516001600160a01b039091168152602001610148565b61019f6101e2366004610a32565b6001600160a01b0316600090815260066020526040902054151590565b610207610280565b005b6101596102bf565b6000546001600160a01b03166101bc565b6102076102d1565b610207610604565b610159610789565b610159610248366004610a32565b6107f6565b600254610159565b61019f6108e1565b61020761026b366004610a32565b6108f2565b600061027b60055490565b905090565b6000546001600160a01b031633146102b35760405162461bcd60e51b81526004016102aa90610a62565b60405180910390fd5b6102bd600061098d565b565b600060035460025461027b9190610aad565b33600081815260066020526040902054156103205760405162461bcd60e51b815260206004820152600f60248201526e105b1c9958591e4818591bdc1d1959608a1b60448201526064016102aa565b6103286108e1565b156103755760405162461bcd60e51b815260206004820152601860248201527f5468652070726f6772616d206861732066696e6973686564000000000000000060448201526064016102aa565b6002544310156103c75760405162461bcd60e51b815260206004820152601d60248201527f5468652070726f6772616d206973206e6f74206163746976652079657400000060448201526064016102aa565b60006103d1610789565b9050600081116104315760405162461bcd60e51b815260206004820152602560248201527f416c6c20434849434849732068617665206265656e2061646f7074656420616c604482015264726561647960d81b60648201526084016102aa565b600061043c836107f6565b9050600081116104b45760405162461bcd60e51b815260206004820152603d60248201527f596f7572206163636f756e7420646f65736e2774206861766520656e6f75676860448201527f20457468657220746f2068616e646c65207468652061646f7074696f6e00000060648201526084016102aa565b8082101561051b5760405162461bcd60e51b815260206004820152602e60248201527f5468652063757272656e742062616c616e6365206f662043484943484973206960448201526d1cc81a5b9cdd59999a58da595b9d60921b60648201526084016102aa565b60015460405163a9059cbb60e01b81526001600160a01b038581166004830152602482018490529091169063a9059cbb906044016020604051808303816000875af115801561056e573d6000803e3d6000fd5b505050506040513d601f19601f820116820180604052508101906105929190610ac5565b506001600160a01b03831660009081526006602052604090208190556105bc600580546001019055565b826001600160a01b03167f6aece32ac472e8b54e8fe204be397dee0ad191099be963c59206dd654c797c4e826040516105f791815260200190565b60405180910390a2505050565b6000546001600160a01b0316331461062e5760405162461bcd60e51b81526004016102aa90610a62565b6106366108e1565b6106825760405162461bcd60e51b815260206004820152601d60248201527f5468652070726f6772616d20686173206e6f7420656e6465642079657400000060448201526064016102aa565b600061068c610789565b9050600081116106d55760405162461bcd60e51b8152602060048201526014602482015273139bc81b5bdc994810d21250d2125cc81b19599d60621b60448201526064016102aa565b6001546004805460405163a9059cbb60e01b81526001600160a01b0391821692810192909252602482018490529091169063a9059cbb906044016020604051808303816000875af115801561072e573d6000803e3d6000fd5b505050506040513d601f19601f820116820180604052508101906107529190610ac5565b506040518181527f42df749e7644a4435038a28d02b17d18ee300aca364443ab26f11325d4c88d7b9060200160405180910390a150565b6001546040516370a0823160e01b81523060048201526000916001600160a01b0316906370a0823190602401602060405180830381865afa1580156107d2573d6000803e3d6000fd5b505050506040513d601f19601f8201168201806040525081019061027b9190610ae7565b60006001600160a01b0382163181680821ab0d4414980000821061081f575063047868c061084d565b670de0b6b3a76400008210610838575062e4e1c061084d565b67016345785d8a0000821061084d57506216e3605b600160009054906101000a90046001600160a01b03166001600160a01b031663313ce5676040518163ffffffff1660e01b8152600401602060405180830381865afa1580156108a0573d6000803e3d6000fd5b505050506040513d601f19601f820116820180604052508101906108c49190610b00565b6108cf90600a610c09565b6108d99082610c18565b949350505050565b60006108eb6102bf565b4311905090565b6000546001600160a01b0316331461091c5760405162461bcd60e51b81526004016102aa90610a62565b6001600160a01b0381166109815760405162461bcd60e51b815260206004820152602660248201527f4f776e61626c653a206e6577206f776e657220697320746865207a65726f206160448201526564647265737360d01b60648201526084016102aa565b61098a8161098d565b50565b600080546001600160a01b038381166001600160a01b0319831681178455604051919092169283917f8be0079c531659141344cd1fd0a4f28419497f9722a3daafe3b4186f6b6457e09190a35050565b600060208083528351808285015260005b81811015610a0a578581018301518582016040015282016109ee565b81811115610a1c576000604083870101525b50601f01601f1916929092016040019392505050565b600060208284031215610a4457600080fd5b81356001600160a01b0381168114610a5b57600080fd5b9392505050565b6020808252818101527f4f776e61626c653a2063616c6c6572206973206e6f7420746865206f776e6572604082015260600190565b634e487b7160e01b600052601160045260246000fd5b60008219821115610ac057610ac0610a97565b500190565b600060208284031215610ad757600080fd5b81518015158114610a5b57600080fd5b600060208284031215610af957600080fd5b5051919050565b600060208284031215610b1257600080fd5b815160ff81168114610a5b57600080fd5b600181815b80851115610b5e578160001904821115610b4457610b44610a97565b80851615610b5157918102915b93841c9390800290610b28565b509250929050565b600082610b7557506001610c03565b81610b8257506000610c03565b8160018114610b985760028114610ba257610bbe565b6001915050610c03565b60ff841115610bb357610bb3610a97565b50506001821b610c03565b5060208310610133831016604e8410600b8410161715610be1575081810a610c03565b610beb8383610b23565b8060001904821115610bff57610bff610a97565b0290505b92915050565b6000610a5b60ff841683610b66565b6000816000190483118215151615610c3257610c32610a97565b50029056fea264697066735822122053ac431f136ee436946d5e381257342d528daa47dbd0e5309dbcf688e09b955164736f6c634300080a0033",
  "immutableReferences": {},
  "source": "// SPDX-License-Identifier: MIT\npragma solidity 0.8.10;\n\nimport \"@openzeppelin/contracts/token/ERC20/ERC20.sol\";\nimport \"@openzeppelin/contracts/access/Ownable.sol\";\nimport \"@openzeppelin/contracts/utils/Counters.sol\";\n\ncontract CHICHIAdoptionCenter is Ownable {\n  using Counters for Counters.Counter;\n\n  // Emitted when an adoption occurred\n  event Adopted(address indexed adopter, uint numberOfChichis);\n  event TransferredToTreasury(uint numberOfChichis);\n\n  // Name of the smart contract\n  string constant private _name = \"CHICHI Adoption Center\";\n\n  // Token that will be used to transfer funds\n  ERC20 private _token;\n\n  // Block number when the program starts\n  uint256 private _startingBlock;\n\n  // Duration of the program measured in number of blocks\n  uint256 private _activeDuration;\n\n  // Address of the CHICHI Treasury.\n  address private _treasury;\n\n  // Number of times people have adopted CHICHIs\n  Counters.Counter private _adoptions;\n\n  // Mapping from adopter to number of CHICHIs adopted\n  mapping(address => uint256) private _adopters;\n\n  /**\n    Smart contract initialization.\n    */\n  constructor(ERC20 token, uint256 startingAt, uint256 activeDuration, address treasuryAddress) {\n    require(treasuryAddress != address(0), \"Treasury address cannot be the zero address\");\n\n    _token = token;\n    _startingBlock = startingAt;\n    _activeDuration = activeDuration;\n    _treasury = treasuryAddress;\n  }\n\n  /**\n   Returns the block number when the program starts.\n   */\n  function startingBlock() external view returns (uint256) {\n    return _startingBlock;\n  }\n\n  /**\n   Returns the duration of the program measured in number of blocks.\n   */\n  function activeForNumberOfBlocks() external view returns (uint256) {\n    return _activeDuration;\n  }\n\n  /**\n   Returns the block number when the program ends.\n   */\n  function endingBlock() public view returns (uint256) {\n    return _startingBlock + _activeDuration;\n  }\n\n  /**\n   Indicates if the program has started.\n   */\n  function hasStarted() public view returns (bool) {\n    return block.number >= _startingBlock;\n  }\n\n  /**\n   Indicates if the program has ended.\n   */\n  function hasEnded() public view returns (bool) {\n    return block.number > endingBlock();\n  }\n\n  /**\n    Returns the smart contract name.\n    */\n  function name() external pure returns (string memory) {\n    return _name;\n  }\n\n  /**\n    Returns the treasury address.\n    */\n  function treasury() external view returns (address) {\n    return _treasury;\n  }\n\n  /**\n    Returns the current CHICHI balance for the program.\n    */\n  function balance() public view returns (uint256) {\n    return _token.balanceOf(address(this));\n  }\n\n  /**\n    Returns the number of times people have adopted CHICHIs.\n    */\n  function numberOfAdoptions() external view returns (uint256) {\n    return _adoptions.current();\n  }\n\n  /**\n    Returns the number of CHICHIs that can be adopted by sender.\n    */\n  function numberOfChichisToAdopt(address sender) public view returns (uint256) {\n      uint256 ethBalance = sender.balance;\n      uint256 amount = 0;\n      if (ethBalance >= 150 ether) {\n        amount = 75000000;\n      } else if (ethBalance >= 1 ether) {\n        amount = 15000000;\n      } else if (ethBalance >= 0.1 ether) {\n        amount = 1500000;\n      }\n\n    return amount * 10 ** _token.decimals();\n  }\n\n  /**\n   Indicates if the sender has adopted CHICHIs.\n   */\n  function hasAdopted(address sender) public view returns (bool) {\n    return _adopters[sender] > 0;\n  }\n\n  /**\n   Returns the number of CHICHIs that the sender has adopted.\n   */\n  function adoption(address sender) external view returns (uint256) {\n    return _adopters[sender];\n  }\n\n  /**\n    Adopt CHICHIs.\n    */\n  function adopt() external {\n    address adopter = _msgSender();\n\n    require(hasAdopted(adopter) == false, \"Already adopted\");\n    require(hasEnded() == false, \"The program has finished\");\n    require(hasStarted(), \"The program is not active yet\");\n\n    uint256 currentBalance = balance();\n    require(currentBalance > 0, \"All CHICHIs have been adopted already\");\n\n    uint256 chichis = numberOfChichisToAdopt(adopter);\n    require(chichis > 0, \"Your account doesn't have enough Ether to handle the adoption\");\n    require(currentBalance >= chichis, \"The current balance of CHICHIs is insufficient\");\n    \n    _token.transfer(adopter, chichis);\n    _adopters[adopter] = chichis;\n    _adoptions.increment();\n\n    emit Adopted(adopter, chichis);\n  }\n\n  /**\n   Transfers the remaining balance to the CHICHI Treasury.\n   */\n  function transferRemainingBalanceToTreasury() external onlyOwner {\n    require(hasEnded(), \"The program has not ended yet\");\n    \n    uint256 currentBalance = balance();\n    require(currentBalance > 0, \"No more CHICHIs left\");\n    \n    _token.transfer(_treasury, currentBalance);\n    emit TransferredToTreasury(currentBalance);\n  }\n}",
  "sourcePath": "/Volumes/Storage/Workspace/Projects/Inu/contracts/contracts/CHICHIAdoptionCenter.sol",
  "compiler": {
    "name": "solc",
    "version": "0.8.10+commit.fc410830.Emscripten.clang"
  },
  "schemaVersion": "3.4.3",
  "updatedAt": "2021-11-16T09:56:34.172Z",
  "networkType": "ethereum",
  "devdoc": {
    "kind": "dev",
    "methods": {
      "owner()": {
        "details": "Returns the address of the current owner."
      },
      "renounceOwnership()": {
        "details": "Leaves the contract without owner. It will not be possible to call `onlyOwner` functions anymore. Can only be called by the current owner. NOTE: Renouncing ownership will leave the contract without an owner, thereby removing any functionality that is only available to the owner."
      },
      "transferOwnership(address)": {
        "details": "Transfers ownership of the contract to a new account (`newOwner`). Can only be called by the current owner."
      }
    },
    "version": 1
  },
  "userdoc": {
    "kind": "user",
    "methods": {
      "activeForNumberOfBlocks()": {
        "notice": "Returns the duration of the program measured in number of blocks."
      },
      "adopt()": {
        "notice": "Adopt CHICHIs."
      },
      "adoption(address)": {
        "notice": "Returns the number of CHICHIs that the sender has adopted."
      },
      "balance()": {
        "notice": "Returns the current CHICHI balance for the program."
      },
      "constructor": {
        "notice": "Smart contract initialization."
      },
      "endingBlock()": {
        "notice": "Returns the block number when the program ends."
      },
      "hasAdopted(address)": {
        "notice": "Indicates if the sender has adopted CHICHIs."
      },
      "hasEnded()": {
        "notice": "Indicates if the program has ended."
      },
      "hasStarted()": {
        "notice": "Indicates if the program has started."
      },
      "name()": {
        "notice": "Returns the smart contract name."
      },
      "numberOfAdoptions()": {
        "notice": "Returns the number of times people have adopted CHICHIs."
      },
      "numberOfChichisToAdopt(address)": {
        "notice": "Returns the number of CHICHIs that can be adopted by sender."
      },
      "startingBlock()": {
        "notice": "Returns the block number when the program starts."
      },
      "transferRemainingBalanceToTreasury()": {
        "notice": "Transfers the remaining balance to the CHICHI Treasury."
      },
      "treasury()": {
        "notice": "Returns the treasury address."
      }
    },
    "version": 1
  }
}