{
  "contractName": "Chichi",
  "abi": [
    {
      "inputs": [],
      "stateMutability": "nonpayable",
      "type": "constructor"
    },
    {
      "anonymous": false,
      "inputs": [
        {
          "indexed": true,
          "internalType": "address",
          "name": "owner",
          "type": "address"
        },
        {
          "indexed": true,
          "internalType": "address",
          "name": "spender",
          "type": "address"
        },
        {
          "indexed": false,
          "internalType": "uint256",
          "name": "value",
          "type": "uint256"
        }
      ],
      "name": "Approval",
      "type": "event"
    },
    {
      "anonymous": false,
      "inputs": [
        {
          "indexed": true,
          "internalType": "address",
          "name": "delegator",
          "type": "address"
        },
        {
          "indexed": true,
          "internalType": "address",
          "name": "fromDelegate",
          "type": "address"
        },
        {
          "indexed": true,
          "internalType": "address",
          "name": "toDelegate",
          "type": "address"
        }
      ],
      "name": "DelegateChanged",
      "type": "event"
    },
    {
      "anonymous": false,
      "inputs": [
        {
          "indexed": true,
          "internalType": "address",
          "name": "delegate",
          "type": "address"
        },
        {
          "indexed": false,
          "internalType": "uint256",
          "name": "previousBalance",
          "type": "uint256"
        },
        {
          "indexed": false,
          "internalType": "uint256",
          "name": "newBalance",
          "type": "uint256"
        }
      ],
      "name": "DelegateVotesChanged",
      "type": "event"
    },
    {
      "anonymous": false,
      "inputs": [
        {
          "indexed": true,
          "internalType": "address",
          "name": "from",
          "type": "address"
        },
        {
          "indexed": true,
          "internalType": "address",
          "name": "to",
          "type": "address"
        },
        {
          "indexed": false,
          "internalType": "uint256",
          "name": "value",
          "type": "uint256"
        }
      ],
      "name": "Transfer",
      "type": "event"
    },
    {
      "inputs": [],
      "name": "DOMAIN_SEPARATOR",
      "outputs": [
        {
          "internalType": "bytes32",
          "name": "",
          "type": "bytes32"
        }
      ],
      "stateMutability": "view",
      "type": "function",
      "constant": true
    },
    {
      "inputs": [
        {
          "internalType": "address",
          "name": "owner",
          "type": "address"
        },
        {
          "internalType": "address",
          "name": "spender",
          "type": "address"
        }
      ],
      "name": "allowance",
      "outputs": [
        {
          "internalType": "uint256",
          "name": "",
          "type": "uint256"
        }
      ],
      "stateMutability": "view",
      "type": "function",
      "constant": true
    },
    {
      "inputs": [
        {
          "internalType": "address",
          "name": "spender",
          "type": "address"
        },
        {
          "internalType": "uint256",
          "name": "amount",
          "type": "uint256"
        }
      ],
      "name": "approve",
      "outputs": [
        {
          "internalType": "bool",
          "name": "",
          "type": "bool"
        }
      ],
      "stateMutability": "nonpayable",
      "type": "function"
    },
    {
      "inputs": [
        {
          "internalType": "address",
          "name": "account",
          "type": "address"
        }
      ],
      "name": "balanceOf",
      "outputs": [
        {
          "internalType": "uint256",
          "name": "",
          "type": "uint256"
        }
      ],
      "stateMutability": "view",
      "type": "function",
      "constant": true
    },
    {
      "inputs": [
        {
          "internalType": "uint256",
          "name": "amount",
          "type": "uint256"
        }
      ],
      "name": "burn",
      "outputs": [],
      "stateMutability": "nonpayable",
      "type": "function"
    },
    {
      "inputs": [
        {
          "internalType": "address",
          "name": "account",
          "type": "address"
        },
        {
          "internalType": "uint256",
          "name": "amount",
          "type": "uint256"
        }
      ],
      "name": "burnFrom",
      "outputs": [],
      "stateMutability": "nonpayable",
      "type": "function"
    },
    {
      "inputs": [
        {
          "internalType": "address",
          "name": "account",
          "type": "address"
        },
        {
          "internalType": "uint32",
          "name": "pos",
          "type": "uint32"
        }
      ],
      "name": "checkpoints",
      "outputs": [
        {
          "components": [
            {
              "internalType": "uint32",
              "name": "fromBlock",
              "type": "uint32"
            },
            {
              "internalType": "uint224",
              "name": "votes",
              "type": "uint224"
            }
          ],
          "internalType": "struct ERC20Votes.Checkpoint",
          "name": "",
          "type": "tuple"
        }
      ],
      "stateMutability": "view",
      "type": "function",
      "constant": true
    },
    {
      "inputs": [],
      "name": "decimals",
      "outputs": [
        {
          "internalType": "uint8",
          "name": "",
          "type": "uint8"
        }
      ],
      "stateMutability": "view",
      "type": "function",
      "constant": true
    },
    {
      "inputs": [
        {
          "internalType": "address",
          "name": "spender",
          "type": "address"
        },
        {
          "internalType": "uint256",
          "name": "subtractedValue",
          "type": "uint256"
        }
      ],
      "name": "decreaseAllowance",
      "outputs": [
        {
          "internalType": "bool",
          "name": "",
          "type": "bool"
        }
      ],
      "stateMutability": "nonpayable",
      "type": "function"
    },
    {
      "inputs": [
        {
          "internalType": "address",
          "name": "delegatee",
          "type": "address"
        }
      ],
      "name": "delegate",
      "outputs": [],
      "stateMutability": "nonpayable",
      "type": "function"
    },
    {
      "inputs": [
        {
          "internalType": "address",
          "name": "delegatee",
          "type": "address"
        },
        {
          "internalType": "uint256",
          "name": "nonce",
          "type": "uint256"
        },
        {
          "internalType": "uint256",
          "name": "expiry",
          "type": "uint256"
        },
        {
          "internalType": "uint8",
          "name": "v",
          "type": "uint8"
        },
        {
          "internalType": "bytes32",
          "name": "r",
          "type": "bytes32"
        },
        {
          "internalType": "bytes32",
          "name": "s",
          "type": "bytes32"
        }
      ],
      "name": "delegateBySig",
      "outputs": [],
      "stateMutability": "nonpayable",
      "type": "function"
    },
    {
      "inputs": [
        {
          "internalType": "address",
          "name": "account",
          "type": "address"
        }
      ],
      "name": "delegates",
      "outputs": [
        {
          "internalType": "address",
          "name": "",
          "type": "address"
        }
      ],
      "stateMutability": "view",
      "type": "function",
      "constant": true
    },
    {
      "inputs": [
        {
          "internalType": "uint256",
          "name": "blockNumber",
          "type": "uint256"
        }
      ],
      "name": "getPastTotalSupply",
      "outputs": [
        {
          "internalType": "uint256",
          "name": "",
          "type": "uint256"
        }
      ],
      "stateMutability": "view",
      "type": "function",
      "constant": true
    },
    {
      "inputs": [
        {
          "internalType": "address",
          "name": "account",
          "type": "address"
        },
        {
          "internalType": "uint256",
          "name": "blockNumber",
          "type": "uint256"
        }
      ],
      "name": "getPastVotes",
      "outputs": [
        {
          "internalType": "uint256",
          "name": "",
          "type": "uint256"
        }
      ],
      "stateMutability": "view",
      "type": "function",
      "constant": true
    },
    {
      "inputs": [
        {
          "internalType": "address",
          "name": "account",
          "type": "address"
        }
      ],
      "name": "getVotes",
      "outputs": [
        {
          "internalType": "uint256",
          "name": "",
          "type": "uint256"
        }
      ],
      "stateMutability": "view",
      "type": "function",
      "constant": true
    },
    {
      "inputs": [
        {
          "internalType": "address",
          "name": "spender",
          "type": "address"
        },
        {
          "internalType": "uint256",
          "name": "addedValue",
          "type": "uint256"
        }
      ],
      "name": "increaseAllowance",
      "outputs": [
        {
          "internalType": "bool",
          "name": "",
          "type": "bool"
        }
      ],
      "stateMutability": "nonpayable",
      "type": "function"
    },
    {
      "inputs": [],
      "name": "name",
      "outputs": [
        {
          "internalType": "string",
          "name": "",
          "type": "string"
        }
      ],
      "stateMutability": "view",
      "type": "function",
      "constant": true
    },
    {
      "inputs": [
        {
          "internalType": "address",
          "name": "owner",
          "type": "address"
        }
      ],
      "name": "nonces",
      "outputs": [
        {
          "internalType": "uint256",
          "name": "",
          "type": "uint256"
        }
      ],
      "stateMutability": "view",
      "type": "function",
      "constant": true
    },
    {
      "inputs": [
        {
          "internalType": "address",
          "name": "account",
          "type": "address"
        }
      ],
      "name": "numCheckpoints",
      "outputs": [
        {
          "internalType": "uint32",
          "name": "",
          "type": "uint32"
        }
      ],
      "stateMutability": "view",
      "type": "function",
      "constant": true
    },
    {
      "inputs": [
        {
          "internalType": "address",
          "name": "owner",
          "type": "address"
        },
        {
          "internalType": "address",
          "name": "spender",
          "type": "address"
        },
        {
          "internalType": "uint256",
          "name": "value",
          "type": "uint256"
        },
        {
          "internalType": "uint256",
          "name": "deadline",
          "type": "uint256"
        },
        {
          "internalType": "uint8",
          "name": "v",
          "type": "uint8"
        },
        {
          "internalType": "bytes32",
          "name": "r",
          "type": "bytes32"
        },
        {
          "internalType": "bytes32",
          "name": "s",
          "type": "bytes32"
        }
      ],
      "name": "permit",
      "outputs": [],
      "stateMutability": "nonpayable",
      "type": "function"
    },
    {
      "inputs": [],
      "name": "symbol",
      "outputs": [
        {
          "internalType": "string",
          "name": "",
          "type": "string"
        }
      ],
      "stateMutability": "view",
      "type": "function",
      "constant": true
    },
    {
      "inputs": [],
      "name": "totalSupply",
      "outputs": [
        {
          "internalType": "uint256",
          "name": "",
          "type": "uint256"
        }
      ],
      "stateMutability": "view",
      "type": "function",
      "constant": true
    },
    {
      "inputs": [
        {
          "internalType": "address",
          "name": "recipient",
          "type": "address"
        },
        {
          "internalType": "uint256",
          "name": "amount",
          "type": "uint256"
        }
      ],
      "name": "transfer",
      "outputs": [
        {
          "internalType": "bool",
          "name": "",
          "type": "bool"
        }
      ],
      "stateMutability": "nonpayable",
      "type": "function"
    },
    {
      "inputs": [
        {
          "internalType": "address",
          "name": "sender",
          "type": "address"
        },
        {
          "internalType": "address",
          "name": "recipient",
          "type": "address"
        },
        {
          "internalType": "uint256",
          "name": "amount",
          "type": "uint256"
        }
      ],
      "name": "transferFrom",
      "outputs": [
        {
          "internalType": "bool",
          "name": "",
          "type": "bool"
        }
      ],
      "stateMutability": "nonpayable",
      "type": "function"
    }
  ],
  "bytecode": "0x6101406040527f6e71edae12b1b97f4d1f60370fef10105fa2faae0126114a169c64845d6126c9610120523480156200003757600080fd5b506040518060400160405280600a81526020016943686963686920496e7560b01b81525080604051806040016040528060018152602001603160f81b8152506040518060400160405280600a81526020016943484943484920496e7560b01b8152506040518060400160405280600681526020016543484943484960d01b8152508160039080519060200190620000d0929190620007a4565b508051620000e6906004906020840190620007a4565b5050825160209384012082519284019290922060c083815260e08290524660a0818152604080517f8b73c3c69bb8fe3d512ecc4cf759cc79239f7b179b0ffacaa9a75d522b39400f818a0181905281830198909852606081019590955260808086019390935230858301528051808603909201825293909201909252805194019390932090925261010052506200019e905033620001876012600a62000953565b620001989064e8d4a5100062000964565b620001a4565b62000a0e565b620001bb8282620001bf60201b62000b881760201c565b5050565b620001d682826200027660201b62000c181760201c565b6001600160e01b03620001ea620003658216565b1115620002575760405162461bcd60e51b815260206004820152603060248201527f4552433230566f7465733a20746f74616c20737570706c79207269736b73206f60448201526f766572666c6f77696e6720766f74657360801b60648201526084015b60405180910390fd5b62000270600862000d036200036b60201b178362000382565b50505050565b6001600160a01b038216620002ce5760405162461bcd60e51b815260206004820152601f60248201527f45524332303a206d696e7420746f20746865207a65726f20616464726573730060448201526064016200024e565b8060026000828254620002e2919062000986565b90915550506001600160a01b038216600090815260208190526040812080548392906200031190849062000986565b90915550506040518181526001600160a01b038316906000907fddf252ad1be2c89b69c2b068fc378daa952ba7f163c4a11628f55a4df523b3ef9060200160405180910390a3620001bb6000838362000539565b60025490565b600062000379828462000986565b90505b92915050565b825460009081908015620003d457856200039e600183620009a1565b81548110620003b157620003b1620009bb565b60009182526020909120015464010000000090046001600160e01b0316620003d7565b60005b6001600160e01b03169250620003ee83858760201c565b915060008111801562000432575043866200040b600184620009a1565b815481106200041e576200041e620009bb565b60009182526020909120015463ffffffff16145b15620004a6576200044e826200055160201b62000d0f1760201c565b866200045c600184620009a1565b815481106200046f576200046f620009bb565b9060005260206000200160000160046101000a8154816001600160e01b0302191690836001600160e01b031602179055506200052b565b856040518060400160405280620004c843620005c060201b62000d7c1760201c565b63ffffffff168152602001620004e9856200055160201b62000d0f1760201c565b6001600160e01b0390811690915282546001810184556000938452602093849020835194909301519091166401000000000263ffffffff909316929092179101555b50935093915050565b505050565b620005348383836200062760201b62000de11760201c565b60006001600160e01b03821115620005bc5760405162461bcd60e51b815260206004820152602760248201527f53616665436173743a2076616c756520646f65736e27742066697420696e20326044820152663234206269747360c81b60648201526084016200024e565b5090565b600063ffffffff821115620005bc5760405162461bcd60e51b815260206004820152602660248201527f53616665436173743a2076616c756520646f65736e27742066697420696e203360448201526532206269747360d01b60648201526084016200024e565b6200063f8383836200053460201b620006af1760201c565b6001600160a01b0383811660009081526006602052604080822054858416835291205462000534929182169116838183148015906200067e5750600081115b1562000534576001600160a01b038316156200070b576001600160a01b038316600090815260076020908152604082208291620006c8919062000796901b62000e13178562000382565b91509150846001600160a01b031660008051602062002886833981519152838360405162000700929190918252602082015260400190565b60405180910390a250505b6001600160a01b0382161562000534576001600160a01b0382166000908152600760209081526040822082916200074f91906200036b901b62000d03178562000382565b91509150836001600160a01b031660008051602062002886833981519152838360405162000787929190918252602082015260400190565b60405180910390a25050505050565b6000620003798284620009a1565b828054620007b290620009d1565b90600052602060002090601f016020900481019282620007d6576000855562000821565b82601f10620007f157805160ff191683800117855562000821565b8280016001018555821562000821579182015b828111156200082157825182559160200191906001019062000804565b50620005bc9291505b80821115620005bc57600081556001016200082a565b634e487b7160e01b600052601160045260246000fd5b600181815b80851115620008975781600019048211156200087b576200087b62000840565b808516156200088957918102915b93841c93908002906200085b565b509250929050565b600082620008b0575060016200037c565b81620008bf575060006200037c565b8160018114620008d85760028114620008e35762000903565b60019150506200037c565b60ff841115620008f757620008f762000840565b50506001821b6200037c565b5060208310610133831016604e8410600b841016171562000928575081810a6200037c565b62000934838362000856565b80600019048211156200094b576200094b62000840565b029392505050565b60006200037960ff8416836200089f565b600081600019048311821515161562000981576200098162000840565b500290565b600082198211156200099c576200099c62000840565b500190565b600082821015620009b657620009b662000840565b500390565b634e487b7160e01b600052603260045260246000fd5b600181811c90821680620009e657607f821691505b6020821081141562000a0857634e487b7160e01b600052602260045260246000fd5b50919050565b60805160a05160c05160e0516101005161012051611e2862000a5e60003960006109f40152600061116d015260006111bc015260006111970152600061111b015260006111440152611e286000f3fe608060405234801561001057600080fd5b50600436106101585760003560e01c806370a08231116100c3578063a457c2d71161007c578063a457c2d714610311578063a9059cbb14610324578063c3cda52014610337578063d505accf1461034a578063dd62ed3e1461035d578063f1127ed81461039657600080fd5b806370a082311461029457806379cc6790146102bd5780637ecebe00146102d05780638e539e8c146102e357806395d89b41146102f65780639ab24eb0146102fe57600080fd5b8063395093511161011557806339509351146101da5780633a46b1a8146101ed57806342966c6814610200578063587cde1e146102155780635c19a95c146102595780636fcfff451461026c57600080fd5b806306fdde031461015d578063095ea7b31461017b57806318160ddd1461019e57806323b872dd146101b0578063313ce567146101c35780633644e515146101d2575b600080fd5b6101656103d3565b6040516101729190611ad9565b60405180910390f35b61018e610189366004611b4a565b610465565b6040519015158152602001610172565b6002545b604051908152602001610172565b61018e6101be366004611b74565b61047b565b60405160128152602001610172565b6101a261052a565b61018e6101e8366004611b4a565b610539565b6101a26101fb366004611b4a565b610575565b61021361020e366004611bb0565b6105ef565b005b610241610223366004611bc9565b6001600160a01b039081166000908152600660205260409020541690565b6040516001600160a01b039091168152602001610172565b610213610267366004611bc9565b6105fc565b61027f61027a366004611bc9565b610606565b60405163ffffffff9091168152602001610172565b6101a26102a2366004611bc9565b6001600160a01b031660009081526020819052604090205490565b6102136102cb366004611b4a565b61062e565b6101a26102de366004611bc9565b6106b4565b6101a26102f1366004611bb0565b6106d2565b61016561072e565b6101a261030c366004611bc9565b61073d565b61018e61031f366004611b4a565b6107c4565b61018e610332366004611b4a565b61085d565b610213610345366004611bf5565b61086a565b610213610358366004611c4d565b6109a0565b6101a261036b366004611cb7565b6001600160a01b03918216600090815260016020908152604080832093909416825291909152205490565b6103a96103a4366004611cea565b610b04565b60408051825163ffffffff1681526020928301516001600160e01b03169281019290925201610172565b6060600380546103e290611d2a565b80601f016020809104026020016040519081016040528092919081815260200182805461040e90611d2a565b801561045b5780601f106104305761010080835404028352916020019161045b565b820191906000526020600020905b81548152906001019060200180831161043e57829003601f168201915b5050505050905090565b6000610472338484610e1f565b50600192915050565b6000610488848484610f43565b6001600160a01b0384166000908152600160209081526040808320338452909152902054828110156105125760405162461bcd60e51b815260206004820152602860248201527f45524332303a207472616e7366657220616d6f756e74206578636565647320616044820152676c6c6f77616e636560c01b60648201526084015b60405180910390fd5b61051f8533858403610e1f565b506001949350505050565b6000610534611117565b905090565b3360008181526001602090815260408083206001600160a01b03871684529091528120549091610472918590610570908690611d75565b610e1f565b60004382106105c65760405162461bcd60e51b815260206004820152601f60248201527f4552433230566f7465733a20626c6f636b206e6f7420796574206d696e6564006044820152606401610509565b6001600160a01b03831660009081526007602052604090206105e8908361120a565b9392505050565b6105f933826112c7565b50565b6105f933826112d1565b6001600160a01b03811660009081526007602052604081205461062890610d7c565b92915050565b600061063a833361036b565b9050818110156106985760405162461bcd60e51b8152602060048201526024808201527f45524332303a206275726e20616d6f756e74206578636565647320616c6c6f77604482015263616e636560e01b6064820152608401610509565b6106a58333848403610e1f565b6106af83836112c7565b505050565b6001600160a01b038116600090815260056020526040812054610628565b60004382106107235760405162461bcd60e51b815260206004820152601f60248201527f4552433230566f7465733a20626c6f636b206e6f7420796574206d696e6564006044820152606401610509565b61062860088361120a565b6060600480546103e290611d2a565b6001600160a01b03811660009081526007602052604081205480156107b1576001600160a01b038316600090815260076020526040902061077f600183611d8d565b8154811061078f5761078f611da4565b60009182526020909120015464010000000090046001600160e01b03166107b4565b60005b6001600160e01b03169392505050565b3360009081526001602090815260408083206001600160a01b0386168452909152812054828110156108465760405162461bcd60e51b815260206004820152602560248201527f45524332303a2064656372656173656420616c6c6f77616e63652062656c6f77604482015264207a65726f60d81b6064820152608401610509565b6108533385858403610e1f565b5060019392505050565b6000610472338484610f43565b834211156108ba5760405162461bcd60e51b815260206004820152601d60248201527f4552433230566f7465733a207369676e617475726520657870697265640000006044820152606401610509565b604080517fe48329057bfd03d55e49b547132e39cffd9c1820ad7b9d4c5307691425d15adf60208201526001600160a01b0388169181019190915260608101869052608081018590526000906109349061092c9060a0016040516020818303038152906040528051906020012061134a565b858585611398565b905061093f816113c0565b861461098d5760405162461bcd60e51b815260206004820152601960248201527f4552433230566f7465733a20696e76616c6964206e6f6e6365000000000000006044820152606401610509565b61099781886112d1565b50505050505050565b834211156109f05760405162461bcd60e51b815260206004820152601d60248201527f45524332305065726d69743a206578706972656420646561646c696e650000006044820152606401610509565b60007f0000000000000000000000000000000000000000000000000000000000000000888888610a1f8c6113c0565b6040805160208101969096526001600160a01b0394851690860152929091166060840152608083015260a082015260c0810186905260e0016040516020818303038152906040528051906020012090506000610a7a8261134a565b90506000610a8a82878787611398565b9050896001600160a01b0316816001600160a01b031614610aed5760405162461bcd60e51b815260206004820152601e60248201527f45524332305065726d69743a20696e76616c6964207369676e617475726500006044820152606401610509565b610af88a8a8a610e1f565b50505050505050505050565b60408051808201909152600080825260208201526001600160a01b0383166000908152600760205260409020805463ffffffff8416908110610b4857610b48611da4565b60009182526020918290206040805180820190915291015463ffffffff8116825264010000000090046001600160e01b0316918101919091529392505050565b610b928282610c18565b6002546001600160e01b031015610c045760405162461bcd60e51b815260206004820152603060248201527f4552433230566f7465733a20746f74616c20737570706c79207269736b73206f60448201526f766572666c6f77696e6720766f74657360801b6064820152608401610509565b610c126008610d03836113e8565b50505050565b6001600160a01b038216610c6e5760405162461bcd60e51b815260206004820152601f60248201527f45524332303a206d696e7420746f20746865207a65726f2061646472657373006044820152606401610509565b8060026000828254610c809190611d75565b90915550506001600160a01b03821660009081526020819052604081208054839290610cad908490611d75565b90915550506040518181526001600160a01b038316906000907fddf252ad1be2c89b69c2b068fc378daa952ba7f163c4a11628f55a4df523b3ef9060200160405180910390a3610cff60008383611561565b5050565b60006105e88284611d75565b60006001600160e01b03821115610d785760405162461bcd60e51b815260206004820152602760248201527f53616665436173743a2076616c756520646f65736e27742066697420696e20326044820152663234206269747360c81b6064820152608401610509565b5090565b600063ffffffff821115610d785760405162461bcd60e51b815260206004820152602660248201527f53616665436173743a2076616c756520646f65736e27742066697420696e203360448201526532206269747360d01b6064820152608401610509565b6001600160a01b038381166000908152600660205260408082205485841683529120546106af9291821691168361156c565b60006105e88284611d8d565b6001600160a01b038316610e815760405162461bcd60e51b8152602060048201526024808201527f45524332303a20617070726f76652066726f6d20746865207a65726f206164646044820152637265737360e01b6064820152608401610509565b6001600160a01b038216610ee25760405162461bcd60e51b815260206004820152602260248201527f45524332303a20617070726f766520746f20746865207a65726f206164647265604482015261737360f01b6064820152608401610509565b6001600160a01b0383811660008181526001602090815260408083209487168084529482529182902085905590518481527f8c5be1e5ebec7d5bd14f71427d1e84f3dd0314c0f7b2291e5b200ac8c7c3b925910160405180910390a3505050565b6001600160a01b038316610fa75760405162461bcd60e51b815260206004820152602560248201527f45524332303a207472616e736665722066726f6d20746865207a65726f206164604482015264647265737360d81b6064820152608401610509565b6001600160a01b0382166110095760405162461bcd60e51b815260206004820152602360248201527f45524332303a207472616e7366657220746f20746865207a65726f206164647260448201526265737360e81b6064820152608401610509565b6001600160a01b038316600090815260208190526040902054818110156110815760405162461bcd60e51b815260206004820152602660248201527f45524332303a207472616e7366657220616d6f756e7420657863656564732062604482015265616c616e636560d01b6064820152608401610509565b6001600160a01b038085166000908152602081905260408082208585039055918516815290812080548492906110b8908490611d75565b92505081905550826001600160a01b0316846001600160a01b03167fddf252ad1be2c89b69c2b068fc378daa952ba7f163c4a11628f55a4df523b3ef8460405161110491815260200190565b60405180910390a3610c12848484611561565b60007f000000000000000000000000000000000000000000000000000000000000000046141561116657507f000000000000000000000000000000000000000000000000000000000000000090565b50604080517f00000000000000000000000000000000000000000000000000000000000000006020808301919091527f0000000000000000000000000000000000000000000000000000000000000000828401527f000000000000000000000000000000000000000000000000000000000000000060608301524660808301523060a0808401919091528351808403909101815260c0909201909252805191012090565b8154600090815b8181101561126e57600061122582846116a9565b90508486828154811061123a5761123a611da4565b60009182526020909120015463ffffffff16111561125a57809250611268565b611265816001611d75565b91505b50611211565b81156112b25784611280600184611d8d565b8154811061129057611290611da4565b60009182526020909120015464010000000090046001600160e01b03166112b5565b60005b6001600160e01b031695945050505050565b610cff82826116c4565b6001600160a01b038281166000818152600660208181526040808420805485845282862054949093528787166001600160a01b03198416811790915590519190951694919391928592917f3134e8a2e6d97e929a7e54011ea5485d7d196dd5f0ba4d4ef95803e8e3fc257f9190a4610c1282848361156c565b6000610628611357611117565b8360405161190160f01b6020820152602281018390526042810182905260009060620160405160208183030381529060405280519060200120905092915050565b60008060006113a9878787876116dc565b915091506113b6816117c9565b5095945050505050565b6001600160a01b03811660009081526005602052604090208054600181018255905b50919050565b8254600090819080156114335785611401600183611d8d565b8154811061141157611411611da4565b60009182526020909120015464010000000090046001600160e01b0316611436565b60005b6001600160e01b0316925061144f83858763ffffffff16565b915060008111801561148d57504386611469600184611d8d565b8154811061147957611479611da4565b60009182526020909120015463ffffffff16145b156114ed5761149b82610d0f565b866114a7600184611d8d565b815481106114b7576114b7611da4565b9060005260206000200160000160046101000a8154816001600160e01b0302191690836001600160e01b03160217905550611558565b85604051806040016040528061150243610d7c565b63ffffffff16815260200161151685610d0f565b6001600160e01b0390811690915282546001810184556000938452602093849020835194909301519091166401000000000263ffffffff909316929092179101555b50935093915050565b6106af838383610de1565b816001600160a01b0316836001600160a01b03161415801561158e5750600081115b156106af576001600160a01b0383161561161c576001600160a01b038316600090815260076020526040812081906115c990610e13856113e8565b91509150846001600160a01b03167fdec2bacdd2f05b59de34da9b523dff8be42e5e38e818c82fdb0bae774387a7248383604051611611929190918252602082015260400190565b60405180910390a250505b6001600160a01b038216156106af576001600160a01b0382166000908152600760205260408120819061165290610d03856113e8565b91509150836001600160a01b03167fdec2bacdd2f05b59de34da9b523dff8be42e5e38e818c82fdb0bae774387a724838360405161169a929190918252602082015260400190565b60405180910390a25050505050565b60006116b86002848418611dba565b6105e890848416611d75565b6116ce8282611984565b610c126008610e13836113e8565b6000807f7fffffffffffffffffffffffffffffff5d576e7357a4501ddfe92f46681b20a083111561171357506000905060036117c0565b8460ff16601b1415801561172b57508460ff16601c14155b1561173c57506000905060046117c0565b6040805160008082526020820180845289905260ff881692820192909252606081018690526080810185905260019060a0016020604051602081039080840390855afa158015611790573d6000803e3d6000fd5b5050604051601f1901519150506001600160a01b0381166117b9576000600192509250506117c0565b9150600090505b94509492505050565b60008160048111156117dd576117dd611ddc565b14156117e65750565b60018160048111156117fa576117fa611ddc565b14156118485760405162461bcd60e51b815260206004820152601860248201527f45434453413a20696e76616c6964207369676e617475726500000000000000006044820152606401610509565b600281600481111561185c5761185c611ddc565b14156118aa5760405162461bcd60e51b815260206004820152601f60248201527f45434453413a20696e76616c6964207369676e6174757265206c656e677468006044820152606401610509565b60038160048111156118be576118be611ddc565b14156119175760405162461bcd60e51b815260206004820152602260248201527f45434453413a20696e76616c6964207369676e6174757265202773272076616c604482015261756560f01b6064820152608401610509565b600481600481111561192b5761192b611ddc565b14156105f95760405162461bcd60e51b815260206004820152602260248201527f45434453413a20696e76616c6964207369676e6174757265202776272076616c604482015261756560f01b6064820152608401610509565b6001600160a01b0382166119e45760405162461bcd60e51b815260206004820152602160248201527f45524332303a206275726e2066726f6d20746865207a65726f206164647265736044820152607360f81b6064820152608401610509565b6001600160a01b03821660009081526020819052604090205481811015611a585760405162461bcd60e51b815260206004820152602260248201527f45524332303a206275726e20616d6f756e7420657863656564732062616c616e604482015261636560f01b6064820152608401610509565b6001600160a01b0383166000908152602081905260408120838303905560028054849290611a87908490611d8d565b90915550506040518281526000906001600160a01b038516907fddf252ad1be2c89b69c2b068fc378daa952ba7f163c4a11628f55a4df523b3ef9060200160405180910390a36106af83600084611561565b600060208083528351808285015260005b81811015611b0657858101830151858201604001528201611aea565b81811115611b18576000604083870101525b50601f01601f1916929092016040019392505050565b80356001600160a01b0381168114611b4557600080fd5b919050565b60008060408385031215611b5d57600080fd5b611b6683611b2e565b946020939093013593505050565b600080600060608486031215611b8957600080fd5b611b9284611b2e565b9250611ba060208501611b2e565b9150604084013590509250925092565b600060208284031215611bc257600080fd5b5035919050565b600060208284031215611bdb57600080fd5b6105e882611b2e565b803560ff81168114611b4557600080fd5b60008060008060008060c08789031215611c0e57600080fd5b611c1787611b2e565b95506020870135945060408701359350611c3360608801611be4565b92506080870135915060a087013590509295509295509295565b600080600080600080600060e0888a031215611c6857600080fd5b611c7188611b2e565b9650611c7f60208901611b2e565b95506040880135945060608801359350611c9b60808901611be4565b925060a0880135915060c0880135905092959891949750929550565b60008060408385031215611cca57600080fd5b611cd383611b2e565b9150611ce160208401611b2e565b90509250929050565b60008060408385031215611cfd57600080fd5b611d0683611b2e565b9150602083013563ffffffff81168114611d1f57600080fd5b809150509250929050565b600181811c90821680611d3e57607f821691505b602082108114156113e257634e487b7160e01b600052602260045260246000fd5b634e487b7160e01b600052601160045260246000fd5b60008219821115611d8857611d88611d5f565b500190565b600082821015611d9f57611d9f611d5f565b500390565b634e487b7160e01b600052603260045260246000fd5b600082611dd757634e487b7160e01b600052601260045260246000fd5b500490565b634e487b7160e01b600052602160045260246000fdfea26469706673582212203c07b5914431d8b23446c57a862d76a7264935537db3a3b032b83c01c144e22d64736f6c634300080a0033dec2bacdd2f05b59de34da9b523dff8be42e5e38e818c82fdb0bae774387a724",
  "immutableReferences": {
    "2872": [
      {
        "length": 32,
        "start": 2548
      }
    ],
    "4029": [
      {
        "length": 32,
        "start": 4420
      }
    ],
    "4031": [
      {
        "length": 32,
        "start": 4379
      }
    ],
    "4033": [
      {
        "length": 32,
        "start": 4503
      }
    ],
    "4035": [
      {
        "length": 32,
        "start": 4540
      }
    ],
    "4037": [
      {
        "length": 32,
        "start": 4461
      }
    ]
  },
  "source": "// SPDX-License-Identifier: MIT\npragma solidity 0.8.10;\n\nimport \"@openzeppelin/contracts/token/ERC20/ERC20.sol\";\nimport \"@openzeppelin/contracts/token/ERC20/extensions/ERC20Burnable.sol\";\nimport \"@openzeppelin/contracts/token/ERC20/extensions/draft-ERC20Permit.sol\";\nimport \"@openzeppelin/contracts/token/ERC20/extensions/ERC20Votes.sol\";\n\ncontract Chichi is ERC20, ERC20Burnable, ERC20Permit, ERC20Votes {\n  constructor() ERC20(\"CHICHI Inu\", \"CHICHI\") ERC20Permit(\"Chichi Inu\") {\n    _mint(msg.sender, 1000000000000 * 10 ** decimals());\n  }\n\n  // Solidity required overrides\n\n  function _afterTokenTransfer(address from, address to, uint256 amount)\n    internal\n    override(ERC20, ERC20Votes)\n  {\n    super._afterTokenTransfer(from, to, amount);\n  }\n\n  function _mint(address to, uint256 amount)\n    internal\n    override(ERC20, ERC20Votes)\n  {\n    super._mint(to, amount);\n  }\n\n  function _burn(address account, uint256 amount)\n    internal\n    override(ERC20, ERC20Votes)\n  {\n    super._burn(account, amount);\n  }\n}",
  "sourcePath": "/Volumes/Storage/Workspace/Projects/Inu/contracts/contracts/CHICHI.sol",
  "compiler": {
    "name": "solc",
    "version": "0.8.10+commit.fc410830.Emscripten.clang"
  },
  "schemaVersion": "3.4.3",
  "updatedAt": "2021-12-07T08:46:53.137Z",
  "networkType": "ethereum",
  "devdoc": {
    "kind": "dev",
    "methods": {
      "DOMAIN_SEPARATOR()": {
        "details": "See {IERC20Permit-DOMAIN_SEPARATOR}."
      },
      "allowance(address,address)": {
        "details": "See {IERC20-allowance}."
      },
      "approve(address,uint256)": {
        "details": "See {IERC20-approve}. Requirements: - `spender` cannot be the zero address."
      },
      "balanceOf(address)": {
        "details": "See {IERC20-balanceOf}."
      },
      "burn(uint256)": {
        "details": "Destroys `amount` tokens from the caller. See {ERC20-_burn}."
      },
      "burnFrom(address,uint256)": {
        "details": "Destroys `amount` tokens from `account`, deducting from the caller's allowance. See {ERC20-_burn} and {ERC20-allowance}. Requirements: - the caller must have allowance for ``accounts``'s tokens of at least `amount`."
      },
      "checkpoints(address,uint32)": {
        "details": "Get the `pos`-th checkpoint for `account`."
      },
      "decimals()": {
        "details": "Returns the number of decimals used to get its user representation. For example, if `decimals` equals `2`, a balance of `505` tokens should be displayed to a user as `5.05` (`505 / 10 ** 2`). Tokens usually opt for a value of 18, imitating the relationship between Ether and Wei. This is the value {ERC20} uses, unless this function is overridden; NOTE: This information is only used for _display_ purposes: it in no way affects any of the arithmetic of the contract, including {IERC20-balanceOf} and {IERC20-transfer}."
      },
      "decreaseAllowance(address,uint256)": {
        "details": "Atomically decreases the allowance granted to `spender` by the caller. This is an alternative to {approve} that can be used as a mitigation for problems described in {IERC20-approve}. Emits an {Approval} event indicating the updated allowance. Requirements: - `spender` cannot be the zero address. - `spender` must have allowance for the caller of at least `subtractedValue`."
      },
      "delegate(address)": {
        "details": "Delegate votes from the sender to `delegatee`."
      },
      "delegateBySig(address,uint256,uint256,uint8,bytes32,bytes32)": {
        "details": "Delegates votes from signer to `delegatee`"
      },
      "delegates(address)": {
        "details": "Get the address `account` is currently delegating to."
      },
      "getPastTotalSupply(uint256)": {
        "details": "Retrieve the `totalSupply` at the end of `blockNumber`. Note, this value is the sum of all balances. It is but NOT the sum of all the delegated votes! Requirements: - `blockNumber` must have been already mined"
      },
      "getPastVotes(address,uint256)": {
        "details": "Retrieve the number of votes for `account` at the end of `blockNumber`. Requirements: - `blockNumber` must have been already mined"
      },
      "getVotes(address)": {
        "details": "Gets the current votes balance for `account`"
      },
      "increaseAllowance(address,uint256)": {
        "details": "Atomically increases the allowance granted to `spender` by the caller. This is an alternative to {approve} that can be used as a mitigation for problems described in {IERC20-approve}. Emits an {Approval} event indicating the updated allowance. Requirements: - `spender` cannot be the zero address."
      },
      "name()": {
        "details": "Returns the name of the token."
      },
      "nonces(address)": {
        "details": "See {IERC20Permit-nonces}."
      },
      "numCheckpoints(address)": {
        "details": "Get number of checkpoints for `account`."
      },
      "permit(address,address,uint256,uint256,uint8,bytes32,bytes32)": {
        "details": "See {IERC20Permit-permit}."
      },
      "symbol()": {
        "details": "Returns the symbol of the token, usually a shorter version of the name."
      },
      "totalSupply()": {
        "details": "See {IERC20-totalSupply}."
      },
      "transfer(address,uint256)": {
        "details": "See {IERC20-transfer}. Requirements: - `recipient` cannot be the zero address. - the caller must have a balance of at least `amount`."
      },
      "transferFrom(address,address,uint256)": {
        "details": "See {IERC20-transferFrom}. Emits an {Approval} event indicating the updated allowance. This is not required by the EIP. See the note at the beginning of {ERC20}. Requirements: - `sender` and `recipient` cannot be the zero address. - `sender` must have a balance of at least `amount`. - the caller must have allowance for ``sender``'s tokens of at least `amount`."
      }
    },
    "version": 1
  },
  "userdoc": {
    "kind": "user",
    "methods": {},
    "version": 1
  }
}