{
  "contractName": "CHICHIHelp",
  "abi": [
    {
      "inputs": [
        {
          "internalType": "contract ERC20",
          "name": "token",
          "type": "address"
        },
        {
          "internalType": "uint256",
          "name": "startingAt",
          "type": "uint256"
        },
        {
          "internalType": "uint256",
          "name": "activeDuration",
          "type": "uint256"
        },
        {
          "internalType": "address",
          "name": "treasuryAddress",
          "type": "address"
        }
      ],
      "stateMutability": "nonpayable",
      "type": "constructor"
    },
    {
      "anonymous": false,
      "inputs": [
        {
          "indexed": true,
          "internalType": "address",
          "name": "wallet",
          "type": "address"
        },
        {
          "indexed": false,
          "internalType": "string",
          "name": "name",
          "type": "string"
        },
        {
          "indexed": false,
          "internalType": "uint256",
          "name": "numberOfChichis",
          "type": "uint256"
        }
      ],
      "name": "AddedClaimer",
      "type": "event"
    },
    {
      "anonymous": false,
      "inputs": [
        {
          "indexed": true,
          "internalType": "address",
          "name": "by",
          "type": "address"
        },
        {
          "indexed": false,
          "internalType": "uint256",
          "name": "numberOfChichis",
          "type": "uint256"
        }
      ],
      "name": "Claimed",
      "type": "event"
    },
    {
      "anonymous": false,
      "inputs": [
        {
          "indexed": true,
          "internalType": "address",
          "name": "to",
          "type": "address"
        },
        {
          "indexed": false,
          "internalType": "uint256",
          "name": "numberOfChichis",
          "type": "uint256"
        }
      ],
      "name": "IncreasedAllowance",
      "type": "event"
    },
    {
      "anonymous": false,
      "inputs": [
        {
          "indexed": true,
          "internalType": "address",
          "name": "previousOwner",
          "type": "address"
        },
        {
          "indexed": true,
          "internalType": "address",
          "name": "newOwner",
          "type": "address"
        }
      ],
      "name": "OwnershipTransferred",
      "type": "event"
    },
    {
      "anonymous": false,
      "inputs": [
        {
          "indexed": false,
          "internalType": "uint256",
          "name": "numberOfChichis",
          "type": "uint256"
        }
      ],
      "name": "TransferredToTreasury",
      "type": "event"
    },
    {
      "inputs": [],
      "name": "owner",
      "outputs": [
        {
          "internalType": "address",
          "name": "",
          "type": "address"
        }
      ],
      "stateMutability": "view",
      "type": "function",
      "constant": true
    },
    {
      "inputs": [],
      "name": "renounceOwnership",
      "outputs": [],
      "stateMutability": "nonpayable",
      "type": "function"
    },
    {
      "inputs": [
        {
          "internalType": "address",
          "name": "newOwner",
          "type": "address"
        }
      ],
      "name": "transferOwnership",
      "outputs": [],
      "stateMutability": "nonpayable",
      "type": "function"
    },
    {
      "inputs": [],
      "name": "startingBlock",
      "outputs": [
        {
          "internalType": "uint256",
          "name": "",
          "type": "uint256"
        }
      ],
      "stateMutability": "view",
      "type": "function",
      "constant": true
    },
    {
      "inputs": [],
      "name": "activeForNumberOfBlocks",
      "outputs": [
        {
          "internalType": "uint256",
          "name": "",
          "type": "uint256"
        }
      ],
      "stateMutability": "view",
      "type": "function",
      "constant": true
    },
    {
      "inputs": [],
      "name": "endingBlock",
      "outputs": [
        {
          "internalType": "uint256",
          "name": "",
          "type": "uint256"
        }
      ],
      "stateMutability": "view",
      "type": "function",
      "constant": true
    },
    {
      "inputs": [],
      "name": "hasStarted",
      "outputs": [
        {
          "internalType": "bool",
          "name": "",
          "type": "bool"
        }
      ],
      "stateMutability": "view",
      "type": "function",
      "constant": true
    },
    {
      "inputs": [],
      "name": "hasEnded",
      "outputs": [
        {
          "internalType": "bool",
          "name": "",
          "type": "bool"
        }
      ],
      "stateMutability": "view",
      "type": "function",
      "constant": true
    },
    {
      "inputs": [],
      "name": "name",
      "outputs": [
        {
          "internalType": "string",
          "name": "",
          "type": "string"
        }
      ],
      "stateMutability": "view",
      "type": "function",
      "constant": true
    },
    {
      "inputs": [],
      "name": "treasury",
      "outputs": [
        {
          "internalType": "address",
          "name": "",
          "type": "address"
        }
      ],
      "stateMutability": "view",
      "type": "function",
      "constant": true
    },
    {
      "inputs": [],
      "name": "balance",
      "outputs": [
        {
          "internalType": "uint256",
          "name": "",
          "type": "uint256"
        }
      ],
      "stateMutability": "view",
      "type": "function",
      "constant": true
    },
    {
      "inputs": [],
      "name": "numberOfClaims",
      "outputs": [
        {
          "internalType": "uint256",
          "name": "",
          "type": "uint256"
        }
      ],
      "stateMutability": "view",
      "type": "function",
      "constant": true
    },
    {
      "inputs": [
        {
          "internalType": "address",
          "name": "claimer",
          "type": "address"
        },
        {
          "internalType": "string",
          "name": "nameOfClaimer",
          "type": "string"
        },
        {
          "internalType": "uint256",
          "name": "allowance",
          "type": "uint256"
        }
      ],
      "name": "addClaimer",
      "outputs": [],
      "stateMutability": "nonpayable",
      "type": "function"
    },
    {
      "inputs": [
        {
          "internalType": "address",
          "name": "to",
          "type": "address"
        },
        {
          "internalType": "uint256",
          "name": "amount",
          "type": "uint256"
        }
      ],
      "name": "increaseAllowance",
      "outputs": [],
      "stateMutability": "nonpayable",
      "type": "function"
    },
    {
      "inputs": [
        {
          "internalType": "address",
          "name": "by",
          "type": "address"
        }
      ],
      "name": "numberOfChichisToClaim",
      "outputs": [
        {
          "internalType": "uint256",
          "name": "",
          "type": "uint256"
        }
      ],
      "stateMutability": "view",
      "type": "function",
      "constant": true
    },
    {
      "inputs": [],
      "name": "claim",
      "outputs": [],
      "stateMutability": "nonpayable",
      "type": "function"
    },
    {
      "inputs": [],
      "name": "transferRemainingBalanceToTreasury",
      "outputs": [],
      "stateMutability": "nonpayable",
      "type": "function"
    }
  ],
  "bytecode": "0x60806040526040518060400160405280600b81526020017f4348494348492048656c70000000000000000000000000000000000000000000815250600190805190602001906200005192919062000297565b503480156200005f57600080fd5b506040516200218638038062002186833981810160405281019062000085919062000431565b620000a562000099620001cb60201b60201c565b620001d360201b60201c565b60008311620000eb576040517f08c379a0000000000000000000000000000000000000000000000000000000008152600401620000e2906200052a565b60405180910390fd5b6000821162000131576040517f08c379a00000000000000000000000000000000000000000000000000000000081526004016200012890620005c2565b60405180910390fd5b83600260006101000a81548173ffffffffffffffffffffffffffffffffffffffff021916908373ffffffffffffffffffffffffffffffffffffffff160217905550826003819055508160048190555080600560006101000a81548173ffffffffffffffffffffffffffffffffffffffff021916908373ffffffffffffffffffffffffffffffffffffffff1602179055505050505062000649565b600033905090565b60008060009054906101000a900473ffffffffffffffffffffffffffffffffffffffff169050816000806101000a81548173ffffffffffffffffffffffffffffffffffffffff021916908373ffffffffffffffffffffffffffffffffffffffff1602179055508173ffffffffffffffffffffffffffffffffffffffff168173ffffffffffffffffffffffffffffffffffffffff167f8be0079c531659141344cd1fd0a4f28419497f9722a3daafe3b4186f6b6457e060405160405180910390a35050565b828054620002a59062000613565b90600052602060002090601f016020900481019282620002c9576000855562000315565b82601f10620002e457805160ff191683800117855562000315565b8280016001018555821562000315579182015b8281111562000314578251825591602001919060010190620002f7565b5b50905062000324919062000328565b5090565b5b808211156200034357600081600090555060010162000329565b5090565b600080fd5b600073ffffffffffffffffffffffffffffffffffffffff82169050919050565b600062000379826200034c565b9050919050565b60006200038d826200036c565b9050919050565b6200039f8162000380565b8114620003ab57600080fd5b50565b600081519050620003bf8162000394565b92915050565b6000819050919050565b620003da81620003c5565b8114620003e657600080fd5b50565b600081519050620003fa81620003cf565b92915050565b6200040b816200036c565b81146200041757600080fd5b50565b6000815190506200042b8162000400565b92915050565b600080600080608085870312156200044e576200044d62000347565b5b60006200045e87828801620003ae565b94505060206200047187828801620003e9565b93505060406200048487828801620003e9565b925050606062000497878288016200041a565b91505092959194509250565b600082825260208201905092915050565b7f5374617274696e6720626c6f636b206d7573742062652067726561746572207460008201527f68616e2030000000000000000000000000000000000000000000000000000000602082015250565b600062000512602583620004a3565b91506200051f82620004b4565b604082019050919050565b60006020820190508181036000830152620005458162000503565b9050919050565b7f416374697665206475726174696f6e206d75737420626520677265617465722060008201527f7468616e20300000000000000000000000000000000000000000000000000000602082015250565b6000620005aa602683620004a3565b9150620005b7826200054c565b604082019050919050565b60006020820190508181036000830152620005dd816200059b565b9050919050565b7f4e487b7100000000000000000000000000000000000000000000000000000000600052602260045260246000fd5b600060028204905060018216806200062c57607f821691505b60208210811415620006435762000642620005e4565b5b50919050565b611b2d80620006596000396000f3fe608060405234801561001057600080fd5b506004361061010b5760003560e01c80637b1f337d116100a2578063cc8ce6a111610071578063cc8ce6a114610238578063d91c98d314610268578063ecb70fb714610286578063ee993375146102a4578063f2fde38b146102c25761010b565b80637b1f337d146101d45780638da5cb5b146101f2578063b29e259c14610210578063b69ef8a81461021a5761010b565b80634e71d92d116100de5780634e71d92d1461018657806361d027b3146101905780636cf5ae7a146101ae578063715018a6146101ca5761010b565b806306fdde0314610110578063335743681461012e578063395093511461014c57806344691f7e14610168575b600080fd5b6101186102de565b60405161012591906110da565b60405180910390f35b610136610370565b6040516101439190611115565b60405180910390f35b610166600480360381019061016191906111ce565b61037a565b005b6101706104a1565b60405161017d9190611229565b60405180910390f35b61018e6104ae565b005b6101986107a8565b6040516101a59190611253565b60405180910390f35b6101c860048036038101906101c391906113a3565b6107d2565b005b6101d26109a6565b005b6101dc610a2e565b6040516101e99190611115565b60405180910390f35b6101fa610a45565b6040516102079190611253565b60405180910390f35b610218610a6e565b005b610222610c8c565b60405161022f9190611115565b60405180910390f35b610252600480360381019061024d9190611412565b610d3e565b60405161025f9190611115565b60405180910390f35b610270610d8a565b60405161027d9190611115565b60405180910390f35b61028e610d94565b60405161029b9190611229565b60405180910390f35b6102ac610da5565b6040516102b99190611115565b60405180910390f35b6102dc60048036038101906102d79190611412565b610db6565b005b6060600180546102ed9061146e565b80601f01602080910402602001604051908101604052809291908181526020018280546103199061146e565b80156103665780601f1061033b57610100808354040283529160200191610366565b820191906000526020600020905b81548152906001019060200180831161034957829003601f168201915b5050505050905090565b6000600454905090565b610382610eae565b73ffffffffffffffffffffffffffffffffffffffff166103a0610a45565b73ffffffffffffffffffffffffffffffffffffffff16146103f6576040517f08c379a00000000000000000000000000000000000000000000000000000000081526004016103ed906114ec565b60405180910390fd5b80600760008473ffffffffffffffffffffffffffffffffffffffff1673ffffffffffffffffffffffffffffffffffffffff1681526020019081526020016000206001016000828254610448919061153b565b925050819055508173ffffffffffffffffffffffffffffffffffffffff167f81f2b0ee26cd73436e1191c40f9f50aa41703f91667028784e29b19e6d6d371b826040516104959190611115565b60405180910390a25050565b6000600354431015905090565b60006104b8610eae565b9050600015156104c6610d94565b151514610508576040517f08c379a00000000000000000000000000000000000000000000000000000000081526004016104ff906115dd565b60405180910390fd5b6105106104a1565b61054f576040517f08c379a000000000000000000000000000000000000000000000000000000000815260040161054690611649565b60405180910390fd5b6000610559610c8c565b90506000811161059e576040517f08c379a0000000000000000000000000000000000000000000000000000000008152600401610595906116db565b60405180910390fd5b60006105a983610d3e565b9050600081116105ee576040517f08c379a00000000000000000000000000000000000000000000000000000000081526004016105e590611747565b60405180910390fd5b8082106105fb57806105fd565b815b905080821015610642576040517f08c379a0000000000000000000000000000000000000000000000000000000008152600401610639906117d9565b60405180910390fd5b600260009054906101000a900473ffffffffffffffffffffffffffffffffffffffff1673ffffffffffffffffffffffffffffffffffffffff1663a9059cbb84836040518363ffffffff1660e01b815260040161069f9291906117f9565b602060405180830381600087803b1580156106b957600080fd5b505af11580156106cd573d6000803e3d6000fd5b505050506040513d601f19601f820116820180604052508101906106f1919061184e565b5080600760008573ffffffffffffffffffffffffffffffffffffffff1673ffffffffffffffffffffffffffffffffffffffff1681526020019081526020016000206001016000828254610744919061187b565b925050819055506107556006610eb6565b8273ffffffffffffffffffffffffffffffffffffffff167fd8138f8a3f377c5259ca548e70e4c2de94f129f5a11036a15b69513cba2b426a8260405161079b9190611115565b60405180910390a2505050565b6000600560009054906101000a900473ffffffffffffffffffffffffffffffffffffffff16905090565b6107da610eae565b73ffffffffffffffffffffffffffffffffffffffff166107f8610a45565b73ffffffffffffffffffffffffffffffffffffffff161461084e576040517f08c379a0000000000000000000000000000000000000000000000000000000008152600401610845906114ec565b60405180910390fd5b6000600760008573ffffffffffffffffffffffffffffffffffffffff1673ffffffffffffffffffffffffffffffffffffffff16815260200190815260200160002060010154146108d3576040517f08c379a00000000000000000000000000000000000000000000000000000000081526004016108ca906118fb565b60405180910390fd5b604051806040016040528083815260200182815250600760008573ffffffffffffffffffffffffffffffffffffffff1673ffffffffffffffffffffffffffffffffffffffff1681526020019081526020016000206000820151816000019080519060200190610943929190610f9e565b50602082015181600101559050508273ffffffffffffffffffffffffffffffffffffffff167fcbf460a380004cbc8481c8435a5eb78414493ff39f8b15097019cfd06878c88b838360405161099992919061191b565b60405180910390a2505050565b6109ae610eae565b73ffffffffffffffffffffffffffffffffffffffff166109cc610a45565b73ffffffffffffffffffffffffffffffffffffffff1614610a22576040517f08c379a0000000000000000000000000000000000000000000000000000000008152600401610a19906114ec565b60405180910390fd5b610a2c6000610ecc565b565b6000600454600354610a40919061153b565b905090565b60008060009054906101000a900473ffffffffffffffffffffffffffffffffffffffff16905090565b610a76610eae565b73ffffffffffffffffffffffffffffffffffffffff16610a94610a45565b73ffffffffffffffffffffffffffffffffffffffff1614610aea576040517f08c379a0000000000000000000000000000000000000000000000000000000008152600401610ae1906114ec565b60405180910390fd5b610af2610d94565b610b31576040517f08c379a0000000000000000000000000000000000000000000000000000000008152600401610b2890611997565b60405180910390fd5b6000610b3b610c8c565b905060008111610b80576040517f08c379a0000000000000000000000000000000000000000000000000000000008152600401610b7790611a03565b60405180910390fd5b600260009054906101000a900473ffffffffffffffffffffffffffffffffffffffff1673ffffffffffffffffffffffffffffffffffffffff1663a9059cbb600560009054906101000a900473ffffffffffffffffffffffffffffffffffffffff16836040518363ffffffff1660e01b8152600401610bff9291906117f9565b602060405180830381600087803b158015610c1957600080fd5b505af1158015610c2d573d6000803e3d6000fd5b505050506040513d601f19601f82011682018060405250810190610c51919061184e565b507f42df749e7644a4435038a28d02b17d18ee300aca364443ab26f11325d4c88d7b81604051610c819190611115565b60405180910390a150565b6000600260009054906101000a900473ffffffffffffffffffffffffffffffffffffffff1673ffffffffffffffffffffffffffffffffffffffff166370a08231306040518263ffffffff1660e01b8152600401610ce99190611253565b60206040518083038186803b158015610d0157600080fd5b505afa158015610d15573d6000803e3d6000fd5b505050506040513d601f19601f82011682018060405250810190610d399190611a38565b905090565b6000600760008373ffffffffffffffffffffffffffffffffffffffff1673ffffffffffffffffffffffffffffffffffffffff168152602001908152602001600020600101549050919050565b6000600354905090565b6000610d9e610a2e565b4311905090565b6000610db16006610f90565b905090565b610dbe610eae565b73ffffffffffffffffffffffffffffffffffffffff16610ddc610a45565b73ffffffffffffffffffffffffffffffffffffffff1614610e32576040517f08c379a0000000000000000000000000000000000000000000000000000000008152600401610e29906114ec565b60405180910390fd5b600073ffffffffffffffffffffffffffffffffffffffff168173ffffffffffffffffffffffffffffffffffffffff161415610ea2576040517f08c379a0000000000000000000000000000000000000000000000000000000008152600401610e9990611ad7565b60405180910390fd5b610eab81610ecc565b50565b600033905090565b6001816000016000828254019250508190555050565b60008060009054906101000a900473ffffffffffffffffffffffffffffffffffffffff169050816000806101000a81548173ffffffffffffffffffffffffffffffffffffffff021916908373ffffffffffffffffffffffffffffffffffffffff1602179055508173ffffffffffffffffffffffffffffffffffffffff168173ffffffffffffffffffffffffffffffffffffffff167f8be0079c531659141344cd1fd0a4f28419497f9722a3daafe3b4186f6b6457e060405160405180910390a35050565b600081600001549050919050565b828054610faa9061146e565b90600052602060002090601f016020900481019282610fcc5760008555611013565b82601f10610fe557805160ff1916838001178555611013565b82800160010185558215611013579182015b82811115611012578251825591602001919060010190610ff7565b5b5090506110209190611024565b5090565b5b8082111561103d576000816000905550600101611025565b5090565b600081519050919050565b600082825260208201905092915050565b60005b8381101561107b578082015181840152602081019050611060565b8381111561108a576000848401525b50505050565b6000601f19601f8301169050919050565b60006110ac82611041565b6110b6818561104c565b93506110c681856020860161105d565b6110cf81611090565b840191505092915050565b600060208201905081810360008301526110f481846110a1565b905092915050565b6000819050919050565b61110f816110fc565b82525050565b600060208201905061112a6000830184611106565b92915050565b6000604051905090565b600080fd5b600080fd5b600073ffffffffffffffffffffffffffffffffffffffff82169050919050565b600061116f82611144565b9050919050565b61117f81611164565b811461118a57600080fd5b50565b60008135905061119c81611176565b92915050565b6111ab816110fc565b81146111b657600080fd5b50565b6000813590506111c8816111a2565b92915050565b600080604083850312156111e5576111e461113a565b5b60006111f38582860161118d565b9250506020611204858286016111b9565b9150509250929050565b60008115159050919050565b6112238161120e565b82525050565b600060208201905061123e600083018461121a565b92915050565b61124d81611164565b82525050565b60006020820190506112686000830184611244565b92915050565b600080fd5b600080fd5b7f4e487b7100000000000000000000000000000000000000000000000000000000600052604160045260246000fd5b6112b082611090565b810181811067ffffffffffffffff821117156112cf576112ce611278565b5b80604052505050565b60006112e2611130565b90506112ee82826112a7565b919050565b600067ffffffffffffffff82111561130e5761130d611278565b5b61131782611090565b9050602081019050919050565b82818337600083830152505050565b6000611346611341846112f3565b6112d8565b90508281526020810184848401111561136257611361611273565b5b61136d848285611324565b509392505050565b600082601f83011261138a5761138961126e565b5b813561139a848260208601611333565b91505092915050565b6000806000606084860312156113bc576113bb61113a565b5b60006113ca8682870161118d565b935050602084013567ffffffffffffffff8111156113eb576113ea61113f565b5b6113f786828701611375565b9250506040611408868287016111b9565b9150509250925092565b6000602082840312156114285761142761113a565b5b60006114368482850161118d565b91505092915050565b7f4e487b7100000000000000000000000000000000000000000000000000000000600052602260045260246000fd5b6000600282049050600182168061148657607f821691505b6020821081141561149a5761149961143f565b5b50919050565b7f4f776e61626c653a2063616c6c6572206973206e6f7420746865206f776e6572600082015250565b60006114d660208361104c565b91506114e1826114a0565b602082019050919050565b60006020820190508181036000830152611505816114c9565b9050919050565b7f4e487b7100000000000000000000000000000000000000000000000000000000600052601160045260246000fd5b6000611546826110fc565b9150611551836110fc565b9250827fffffffffffffffffffffffffffffffffffffffffffffffffffffffffffffffff038211156115865761158561150c565b5b828201905092915050565b7f5468652070726f6772616d206861732066696e69736865640000000000000000600082015250565b60006115c760188361104c565b91506115d282611591565b602082019050919050565b600060208201905081810360008301526115f6816115ba565b9050919050565b7f5468652070726f6772616d206973206e6f742061637469766520796574000000600082015250565b6000611633601d8361104c565b915061163e826115fd565b602082019050919050565b6000602082019050818103600083015261166281611626565b9050919050565b7f416c6c20434849434849732068617665206265656e20636c61696d656420616c60008201527f7265616479000000000000000000000000000000000000000000000000000000602082015250565b60006116c560258361104c565b91506116d082611669565b604082019050919050565b600060208201905081810360008301526116f4816116b8565b9050919050565b7f596f752068617665206e6f20616c6c6f77616e63650000000000000000000000600082015250565b600061173160158361104c565b915061173c826116fb565b602082019050919050565b6000602082019050818103600083015261176081611724565b9050919050565b7f5468652063757272656e742062616c616e6365206f662043484943484973206960008201527f7320696e73756666696369656e74000000000000000000000000000000000000602082015250565b60006117c3602e8361104c565b91506117ce82611767565b604082019050919050565b600060208201905081810360008301526117f2816117b6565b9050919050565b600060408201905061180e6000830185611244565b61181b6020830184611106565b9392505050565b61182b8161120e565b811461183657600080fd5b50565b60008151905061184881611822565b92915050565b6000602082840312156118645761186361113a565b5b600061187284828501611839565b91505092915050565b6000611886826110fc565b9150611891836110fc565b9250828210156118a4576118a361150c565b5b828203905092915050565b7f416c726561647920616464656400000000000000000000000000000000000000600082015250565b60006118e5600d8361104c565b91506118f0826118af565b602082019050919050565b60006020820190508181036000830152611914816118d8565b9050919050565b6000604082019050818103600083015261193581856110a1565b90506119446020830184611106565b9392505050565b7f5468652070726f6772616d20686173206e6f7420656e64656420796574000000600082015250565b6000611981601d8361104c565b915061198c8261194b565b602082019050919050565b600060208201905081810360008301526119b081611974565b9050919050565b7f4e6f206d6f72652043484943484973206c656674000000000000000000000000600082015250565b60006119ed60148361104c565b91506119f8826119b7565b602082019050919050565b60006020820190508181036000830152611a1c816119e0565b9050919050565b600081519050611a32816111a2565b92915050565b600060208284031215611a4e57611a4d61113a565b5b6000611a5c84828501611a23565b91505092915050565b7f4f776e61626c653a206e6577206f776e657220697320746865207a65726f206160008201527f6464726573730000000000000000000000000000000000000000000000000000602082015250565b6000611ac160268361104c565b9150611acc82611a65565b604082019050919050565b60006020820190508181036000830152611af081611ab4565b905091905056fea2646970667358221220a2dce4b884268654dfc91e04d03f9f9c3eb5969fd6beccbce983fdf74e0dab3664736f6c63430008090033",
  "immutableReferences": {},
  "source": "// SPDX-License-Identifier: MIT\npragma solidity >=0.4.22 <0.9.0;\n\nimport \"@openzeppelin/contracts/token/ERC20/ERC20.sol\";\nimport \"@openzeppelin/contracts/access/Ownable.sol\";\nimport \"@openzeppelin/contracts/utils/Counters.sol\";\n\ncontract CHICHIHelp is Ownable {\n  using Counters for Counters.Counter;\n\n  struct Claimer {\n    string name;\n    uint256 allowance;\n}\n\n  // Emitted when a claimer has been added\n  event AddedClaimer(address indexed wallet, string name, uint numberOfChichis);\n  // Emitted when the allowance is increased for an address\n  event IncreasedAllowance(address indexed to, uint numberOfChichis);\n  // Emitted when a claim occurred\n  event Claimed(address indexed by, uint numberOfChichis);\n  // Emitted when the assets are transferred to the treasury\n  event TransferredToTreasury(uint numberOfChichis);\n\n  // Name of the smart contract\n  string private _name = \"CHICHI Help\";\n\n  // Token that will be used to transfer funds\n  ERC20 private _token;\n\n  // Block number when the program starts\n  uint256 private _startingBlock;\n\n  // Duration of the program measured in number of blocks\n  uint256 private _activeDuration;\n\n  // Address of the CHICHI Treasury.\n  address private _treasury;\n\n  // Number of times the CHICHIs have been claimed\n  Counters.Counter private _claims;\n\n  // CHICHI claimers\n  mapping(address => Claimer) private _claimers;\n\n  /**\n    Smart contract initialization.\n    */\n  constructor(ERC20 token, uint256 startingAt, uint256 activeDuration, address treasuryAddress) {\n    require(startingAt > 0, \"Starting block must be greater than 0\");\n    require(activeDuration > 0, \"Active duration must be greater than 0\");\n\n    _token = token;\n    _startingBlock = startingAt;\n    _activeDuration = activeDuration;\n    _treasury = treasuryAddress;\n  }\n\n  /**\n   Returns the block number when the program starts.\n   */\n  function startingBlock() external view returns (uint256) {\n    return _startingBlock;\n  }\n\n  /**\n   Returns the duration of the program measured in number of blocks.\n   */\n  function activeForNumberOfBlocks() external view returns (uint256) {\n    return _activeDuration;\n  }\n\n  /**\n   Returns the block number when the program ends.\n   */\n  function endingBlock() public view returns (uint256) {\n    return _startingBlock + _activeDuration;\n  }\n\n  /**\n   Indicates if the program has started.\n   */\n  function hasStarted() public view returns (bool) {\n    return block.number >= _startingBlock;\n  }\n\n  /**\n   Indicates if the program has ended.\n   */\n  function hasEnded() public view returns (bool) {\n    return block.number > endingBlock();\n  }\n\n  /**\n    Returns the smart contract name.\n    */\n  function name() external view returns (string memory) {\n    return _name;\n  }\n\n  /**\n    Returns the treasury address.\n    */\n  function treasury() external view returns (address) {\n    return _treasury;\n  }\n\n  /**\n    Returns the current CHICHI balance for the program.\n    */\n  function balance() public view returns (uint256) {\n    return _token.balanceOf(address(this));\n  }\n\n  /**\n    Returns the number of times the CHICHIs have been claimed.\n    */\n  function numberOfClaims() external view returns (uint256) {\n    return _claims.current();\n  }\n\n  /**\n    Adds a new claimer.\n    */\n  function addClaimer(address claimer, string memory nameOfClaimer, uint256 allowance) external onlyOwner {\n    require(_claimers[claimer].allowance == 0, \"Already added\");\n\n    _claimers[claimer] = Claimer({\n      name: nameOfClaimer,\n      allowance: allowance\n    });\n\n    emit AddedClaimer(claimer, nameOfClaimer, allowance);\n  }\n\n  /**\n    Increase the number of CHICHIs that can be claimed by an address.\n    */\n  function increaseAllowance(address to, uint256 amount) external onlyOwner {\n    _claimers[to].allowance += amount;\n    emit IncreasedAllowance(to, amount);\n  }\n\n  /**\n    Returns the number of CHICHIs that can be claimed by an address.\n    */\n  function numberOfChichisToClaim(address by) public view returns (uint256) {\n    return _claimers[by].allowance;\n  }\n\n  /**\n    Claim CHICHIs.\n    */\n  function claim() external {\n    address claimer = _msgSender();\n\n    require(hasEnded() == false, \"The program has finished\");\n    require(hasStarted(), \"The program is not active yet\");\n\n    uint256 currentBalance = balance();\n    require(currentBalance > 0, \"All CHICHIs have been claimed already\");\n\n    uint256 chichis = numberOfChichisToClaim(claimer);\n    require(chichis > 0, \"You have no allowance\");\n\n    chichis = currentBalance < chichis ? currentBalance : chichis; // If the balance is less than the allowance for the claimer, claim all the remaining CHICHIs\n    require(currentBalance >= chichis, \"The current balance of CHICHIs is insufficient\");\n    \n    _token.transfer(claimer, chichis);\n    _claimers[claimer].allowance -= chichis;\n    _claims.increment();\n\n    emit Claimed(claimer, chichis);\n  }\n\n  /**\n   Transfers the remaining balance to the CHICHI Treasury.\n   */\n  function transferRemainingBalanceToTreasury() external onlyOwner {\n    require(hasEnded(), \"The program has not ended yet\");\n    \n    uint256 currentBalance = balance();\n    require(currentBalance > 0, \"No more CHICHIs left\");\n    \n    _token.transfer(_treasury, currentBalance);\n    emit TransferredToTreasury(currentBalance);\n  }\n}",
  "sourcePath": "/Volumes/Storage/Workspace/Projects/Inu/contracts/contracts/CHICHIHelp.sol",
  "compiler": {
    "name": "solc",
    "version": "0.8.9+commit.e5eed63a.Emscripten.clang"
  },
  "schemaVersion": "3.4.3",
  "updatedAt": "2021-11-07T13:26:43.726Z",
  "networkType": "ethereum",
  "devdoc": {
    "kind": "dev",
    "methods": {
      "owner()": {
        "details": "Returns the address of the current owner."
      },
      "renounceOwnership()": {
        "details": "Leaves the contract without owner. It will not be possible to call `onlyOwner` functions anymore. Can only be called by the current owner. NOTE: Renouncing ownership will leave the contract without an owner, thereby removing any functionality that is only available to the owner."
      },
      "transferOwnership(address)": {
        "details": "Transfers ownership of the contract to a new account (`newOwner`). Can only be called by the current owner."
      }
    },
    "version": 1
  },
  "userdoc": {
    "kind": "user",
    "methods": {
      "activeForNumberOfBlocks()": {
        "notice": "Returns the duration of the program measured in number of blocks."
      },
      "addClaimer(address,string,uint256)": {
        "notice": "Adds a new claimer."
      },
      "balance()": {
        "notice": "Returns the current CHICHI balance for the program."
      },
      "claim()": {
        "notice": "Claim CHICHIs."
      },
      "constructor": {
        "notice": "Smart contract initialization."
      },
      "endingBlock()": {
        "notice": "Returns the block number when the program ends."
      },
      "hasEnded()": {
        "notice": "Indicates if the program has ended."
      },
      "hasStarted()": {
        "notice": "Indicates if the program has started."
      },
      "increaseAllowance(address,uint256)": {
        "notice": "Increase the number of CHICHIs that can be claimed by an address."
      },
      "name()": {
        "notice": "Returns the smart contract name."
      },
      "numberOfChichisToClaim(address)": {
        "notice": "Returns the number of CHICHIs that can be claimed by an address."
      },
      "numberOfClaims()": {
        "notice": "Returns the number of times the CHICHIs have been claimed."
      },
      "startingBlock()": {
        "notice": "Returns the block number when the program starts."
      },
      "transferRemainingBalanceToTreasury()": {
        "notice": "Transfers the remaining balance to the CHICHI Treasury."
      },
      "treasury()": {
        "notice": "Returns the treasury address."
      }
    },
    "version": 1
  }
}