{
  "contractName": "CHICHIGovernor",
  "abi": [
    {
      "inputs": [
        {
          "internalType": "contract ERC20Votes",
          "name": "_token",
          "type": "address"
        }
      ],
      "stateMutability": "nonpayable",
      "type": "constructor"
    },
    {
      "anonymous": false,
      "inputs": [
        {
          "indexed": false,
          "internalType": "uint256",
          "name": "proposalId",
          "type": "uint256"
        }
      ],
      "name": "ProposalCanceled",
      "type": "event"
    },
    {
      "anonymous": false,
      "inputs": [
        {
          "indexed": false,
          "internalType": "uint256",
          "name": "proposalId",
          "type": "uint256"
        },
        {
          "indexed": false,
          "internalType": "address",
          "name": "proposer",
          "type": "address"
        },
        {
          "indexed": false,
          "internalType": "address[]",
          "name": "targets",
          "type": "address[]"
        },
        {
          "indexed": false,
          "internalType": "uint256[]",
          "name": "values",
          "type": "uint256[]"
        },
        {
          "indexed": false,
          "internalType": "string[]",
          "name": "signatures",
          "type": "string[]"
        },
        {
          "indexed": false,
          "internalType": "bytes[]",
          "name": "calldatas",
          "type": "bytes[]"
        },
        {
          "indexed": false,
          "internalType": "uint256",
          "name": "startBlock",
          "type": "uint256"
        },
        {
          "indexed": false,
          "internalType": "uint256",
          "name": "endBlock",
          "type": "uint256"
        },
        {
          "indexed": false,
          "internalType": "string",
          "name": "description",
          "type": "string"
        }
      ],
      "name": "ProposalCreated",
      "type": "event"
    },
    {
      "anonymous": false,
      "inputs": [
        {
          "indexed": false,
          "internalType": "uint256",
          "name": "proposalId",
          "type": "uint256"
        }
      ],
      "name": "ProposalExecuted",
      "type": "event"
    },
    {
      "anonymous": false,
      "inputs": [
        {
          "indexed": false,
          "internalType": "uint256",
          "name": "oldQuorumNumerator",
          "type": "uint256"
        },
        {
          "indexed": false,
          "internalType": "uint256",
          "name": "newQuorumNumerator",
          "type": "uint256"
        }
      ],
      "name": "QuorumNumeratorUpdated",
      "type": "event"
    },
    {
      "anonymous": false,
      "inputs": [
        {
          "indexed": true,
          "internalType": "address",
          "name": "voter",
          "type": "address"
        },
        {
          "indexed": false,
          "internalType": "uint256",
          "name": "proposalId",
          "type": "uint256"
        },
        {
          "indexed": false,
          "internalType": "uint8",
          "name": "support",
          "type": "uint8"
        },
        {
          "indexed": false,
          "internalType": "uint256",
          "name": "weight",
          "type": "uint256"
        },
        {
          "indexed": false,
          "internalType": "string",
          "name": "reason",
          "type": "string"
        }
      ],
      "name": "VoteCast",
      "type": "event"
    },
    {
      "inputs": [],
      "name": "BALLOT_TYPEHASH",
      "outputs": [
        {
          "internalType": "bytes32",
          "name": "",
          "type": "bytes32"
        }
      ],
      "stateMutability": "view",
      "type": "function"
    },
    {
      "inputs": [],
      "name": "COUNTING_MODE",
      "outputs": [
        {
          "internalType": "string",
          "name": "",
          "type": "string"
        }
      ],
      "stateMutability": "pure",
      "type": "function"
    },
    {
      "inputs": [
        {
          "internalType": "uint256",
          "name": "proposalId",
          "type": "uint256"
        },
        {
          "internalType": "uint8",
          "name": "support",
          "type": "uint8"
        }
      ],
      "name": "castVote",
      "outputs": [
        {
          "internalType": "uint256",
          "name": "",
          "type": "uint256"
        }
      ],
      "stateMutability": "nonpayable",
      "type": "function"
    },
    {
      "inputs": [
        {
          "internalType": "uint256",
          "name": "proposalId",
          "type": "uint256"
        },
        {
          "internalType": "uint8",
          "name": "support",
          "type": "uint8"
        },
        {
          "internalType": "uint8",
          "name": "v",
          "type": "uint8"
        },
        {
          "internalType": "bytes32",
          "name": "r",
          "type": "bytes32"
        },
        {
          "internalType": "bytes32",
          "name": "s",
          "type": "bytes32"
        }
      ],
      "name": "castVoteBySig",
      "outputs": [
        {
          "internalType": "uint256",
          "name": "",
          "type": "uint256"
        }
      ],
      "stateMutability": "nonpayable",
      "type": "function"
    },
    {
      "inputs": [
        {
          "internalType": "uint256",
          "name": "proposalId",
          "type": "uint256"
        },
        {
          "internalType": "uint8",
          "name": "support",
          "type": "uint8"
        },
        {
          "internalType": "string",
          "name": "reason",
          "type": "string"
        }
      ],
      "name": "castVoteWithReason",
      "outputs": [
        {
          "internalType": "uint256",
          "name": "",
          "type": "uint256"
        }
      ],
      "stateMutability": "nonpayable",
      "type": "function"
    },
    {
      "inputs": [
        {
          "internalType": "address[]",
          "name": "targets",
          "type": "address[]"
        },
        {
          "internalType": "uint256[]",
          "name": "values",
          "type": "uint256[]"
        },
        {
          "internalType": "bytes[]",
          "name": "calldatas",
          "type": "bytes[]"
        },
        {
          "internalType": "bytes32",
          "name": "descriptionHash",
          "type": "bytes32"
        }
      ],
      "name": "execute",
      "outputs": [
        {
          "internalType": "uint256",
          "name": "",
          "type": "uint256"
        }
      ],
      "stateMutability": "payable",
      "type": "function"
    },
    {
      "inputs": [
        {
          "internalType": "uint256",
          "name": "proposalId",
          "type": "uint256"
        },
        {
          "internalType": "address",
          "name": "account",
          "type": "address"
        }
      ],
      "name": "hasVoted",
      "outputs": [
        {
          "internalType": "bool",
          "name": "",
          "type": "bool"
        }
      ],
      "stateMutability": "view",
      "type": "function"
    },
    {
      "inputs": [
        {
          "internalType": "address[]",
          "name": "targets",
          "type": "address[]"
        },
        {
          "internalType": "uint256[]",
          "name": "values",
          "type": "uint256[]"
        },
        {
          "internalType": "bytes[]",
          "name": "calldatas",
          "type": "bytes[]"
        },
        {
          "internalType": "bytes32",
          "name": "descriptionHash",
          "type": "bytes32"
        }
      ],
      "name": "hashProposal",
      "outputs": [
        {
          "internalType": "uint256",
          "name": "",
          "type": "uint256"
        }
      ],
      "stateMutability": "pure",
      "type": "function"
    },
    {
      "inputs": [],
      "name": "name",
      "outputs": [
        {
          "internalType": "string",
          "name": "",
          "type": "string"
        }
      ],
      "stateMutability": "view",
      "type": "function"
    },
    {
      "inputs": [
        {
          "internalType": "uint256",
          "name": "proposalId",
          "type": "uint256"
        }
      ],
      "name": "proposalDeadline",
      "outputs": [
        {
          "internalType": "uint256",
          "name": "",
          "type": "uint256"
        }
      ],
      "stateMutability": "view",
      "type": "function"
    },
    {
      "inputs": [
        {
          "internalType": "uint256",
          "name": "proposalId",
          "type": "uint256"
        }
      ],
      "name": "proposalSnapshot",
      "outputs": [
        {
          "internalType": "uint256",
          "name": "",
          "type": "uint256"
        }
      ],
      "stateMutability": "view",
      "type": "function"
    },
    {
      "inputs": [
        {
          "internalType": "uint256",
          "name": "proposalId",
          "type": "uint256"
        }
      ],
      "name": "proposalVotes",
      "outputs": [
        {
          "internalType": "uint256",
          "name": "againstVotes",
          "type": "uint256"
        },
        {
          "internalType": "uint256",
          "name": "forVotes",
          "type": "uint256"
        },
        {
          "internalType": "uint256",
          "name": "abstainVotes",
          "type": "uint256"
        }
      ],
      "stateMutability": "view",
      "type": "function"
    },
    {
      "inputs": [
        {
          "internalType": "address[]",
          "name": "targets",
          "type": "address[]"
        },
        {
          "internalType": "uint256[]",
          "name": "values",
          "type": "uint256[]"
        },
        {
          "internalType": "bytes[]",
          "name": "calldatas",
          "type": "bytes[]"
        },
        {
          "internalType": "string",
          "name": "description",
          "type": "string"
        }
      ],
      "name": "propose",
      "outputs": [
        {
          "internalType": "uint256",
          "name": "",
          "type": "uint256"
        }
      ],
      "stateMutability": "nonpayable",
      "type": "function"
    },
    {
      "inputs": [],
      "name": "quorumDenominator",
      "outputs": [
        {
          "internalType": "uint256",
          "name": "",
          "type": "uint256"
        }
      ],
      "stateMutability": "view",
      "type": "function"
    },
    {
      "inputs": [],
      "name": "quorumNumerator",
      "outputs": [
        {
          "internalType": "uint256",
          "name": "",
          "type": "uint256"
        }
      ],
      "stateMutability": "view",
      "type": "function"
    },
    {
      "inputs": [
        {
          "internalType": "uint256",
          "name": "proposalId",
          "type": "uint256"
        }
      ],
      "name": "state",
      "outputs": [
        {
          "internalType": "enum IGovernor.ProposalState",
          "name": "",
          "type": "uint8"
        }
      ],
      "stateMutability": "view",
      "type": "function"
    },
    {
      "inputs": [
        {
          "internalType": "bytes4",
          "name": "interfaceId",
          "type": "bytes4"
        }
      ],
      "name": "supportsInterface",
      "outputs": [
        {
          "internalType": "bool",
          "name": "",
          "type": "bool"
        }
      ],
      "stateMutability": "view",
      "type": "function"
    },
    {
      "inputs": [],
      "name": "token",
      "outputs": [
        {
          "internalType": "contract ERC20Votes",
          "name": "",
          "type": "address"
        }
      ],
      "stateMutability": "view",
      "type": "function"
    },
    {
      "inputs": [
        {
          "internalType": "uint256",
          "name": "newQuorumNumerator",
          "type": "uint256"
        }
      ],
      "name": "updateQuorumNumerator",
      "outputs": [],
      "stateMutability": "nonpayable",
      "type": "function"
    },
    {
      "inputs": [],
      "name": "version",
      "outputs": [
        {
          "internalType": "string",
          "name": "",
          "type": "string"
        }
      ],
      "stateMutability": "view",
      "type": "function"
    },
    {
      "inputs": [],
      "name": "votingDelay",
      "outputs": [
        {
          "internalType": "uint256",
          "name": "",
          "type": "uint256"
        }
      ],
      "stateMutability": "pure",
      "type": "function"
    },
    {
      "inputs": [],
      "name": "votingPeriod",
      "outputs": [
        {
          "internalType": "uint256",
          "name": "",
          "type": "uint256"
        }
      ],
      "stateMutability": "pure",
      "type": "function"
    },
    {
      "inputs": [
        {
          "internalType": "uint256",
          "name": "blockNumber",
          "type": "uint256"
        }
      ],
      "name": "quorum",
      "outputs": [
        {
          "internalType": "uint256",
          "name": "",
          "type": "uint256"
        }
      ],
      "stateMutability": "view",
      "type": "function"
    },
    {
      "inputs": [
        {
          "internalType": "address",
          "name": "account",
          "type": "address"
        },
        {
          "internalType": "uint256",
          "name": "blockNumber",
          "type": "uint256"
        }
      ],
      "name": "getVotes",
      "outputs": [
        {
          "internalType": "uint256",
          "name": "",
          "type": "uint256"
        }
      ],
      "stateMutability": "view",
      "type": "function"
    }
  ],
  "bytecode": "0x6101406040523480156200001257600080fd5b5060405162004368380380620043688339818101604052810190620000389190620003ba565b600a816040518060400160405280600f81526020017f43484943484920476f7665726e6f72000000000000000000000000000000000081525080620000826200016860201b60201c565b60008280519060200120905060008280519060200120905060007f8b73c3c69bb8fe3d512ecc4cf759cc79239f7b179b0ffacaa9a75d522b39400f90508260c081815250508160e081815250504660a08181525050620000ea818484620001a560201b60201c565b6080818152505080610100818152505050505050508060009080519060200190620001179291906200028c565b50508073ffffffffffffffffffffffffffffffffffffffff166101208173ffffffffffffffffffffffffffffffffffffffff1681525050506200016081620001e160201b60201c565b5050620005f1565b60606040518060400160405280600181526020017f3100000000000000000000000000000000000000000000000000000000000000815250905090565b60008383834630604051602001620001c295949392919062000433565b6040516020818303038152906040528051906020012090509392505050565b620001f16200028360201b60201c565b81111562000236576040517f08c379a00000000000000000000000000000000000000000000000000000000081526004016200022d906200053d565b60405180910390fd5b60006003549050816003819055507f0553476bf02ef2726e8ce5ced78d63e26e602e4a2257b1f559418e24b46339978183604051620002779291906200055f565b60405180910390a15050565b60006064905090565b8280546200029a90620005bb565b90600052602060002090601f016020900481019282620002be57600085556200030a565b82601f10620002d957805160ff19168380011785556200030a565b828001600101855582156200030a579182015b8281111562000309578251825591602001919060010190620002ec565b5b5090506200031991906200031d565b5090565b5b80821115620003385760008160009055506001016200031e565b5090565b600080fd5b600073ffffffffffffffffffffffffffffffffffffffff82169050919050565b60006200036e8262000341565b9050919050565b6000620003828262000361565b9050919050565b620003948162000375565b8114620003a057600080fd5b50565b600081519050620003b48162000389565b92915050565b600060208284031215620003d357620003d26200033c565b5b6000620003e384828501620003a3565b91505092915050565b6000819050919050565b6200040181620003ec565b82525050565b6000819050919050565b6200041c8162000407565b82525050565b6200042d8162000361565b82525050565b600060a0820190506200044a6000830188620003f6565b620004596020830187620003f6565b620004686040830186620003f6565b62000477606083018562000411565b62000486608083018462000422565b9695505050505050565b600082825260208201905092915050565b7f476f7665726e6f72566f74657351756f72756d4672616374696f6e3a2071756f60008201527f72756d4e756d657261746f72206f7665722071756f72756d44656e6f6d696e6160208201527f746f720000000000000000000000000000000000000000000000000000000000604082015250565b60006200052560438362000490565b91506200053282620004a1565b606082019050919050565b60006020820190508181036000830152620005588162000516565b9050919050565b600060408201905062000576600083018562000411565b62000585602083018462000411565b9392505050565b7f4e487b7100000000000000000000000000000000000000000000000000000000600052602260045260246000fd5b60006002820490506001821680620005d457607f821691505b60208210811415620005eb57620005ea6200058c565b5b50919050565b60805160a05160c05160e0516101005161012051613d196200064f6000396000818161113f015281816116820152611738015260006118a9015260006118eb015260006118ca015260006118560152600061187e0152613d196000f3fe60806040526004361061014b5760003560e01c806356781388116100b6578063c59057e41161006f578063c59057e41461050f578063dd4e2ba51461054c578063deaaa7cc14610577578063eb9019d4146105a2578063f8ce560a146105df578063fc0c546a1461061c5761014b565b806356781388146103c55780637b3c71d3146104025780637d5e81e21461043f57806397c3d3341461047c578063a7713a70146104a7578063c01f9e37146104d25761014b565b80633932abb1116101085780633932abb1146102795780633bccf4fd146102a45780633e4f49e6146102e1578063438596321461031e578063544ffc9c1461035b57806354fd4d501461039a5761014b565b806301ffc9a71461015057806302a251a31461018d57806306f3f9e6146101b857806306fdde03146101e15780632656227d1461020c5780632d63f6931461023c575b600080fd5b34801561015c57600080fd5b5061017760048036038101906101729190611ef0565b610647565b6040516101849190611f38565b60405180910390f35b34801561019957600080fd5b506101a26106c1565b6040516101af9190611f6c565b60405180910390f35b3480156101c457600080fd5b506101df60048036038101906101da9190611fb3565b6106cb565b005b3480156101ed57600080fd5b506101f6610753565b6040516102039190612079565b60405180910390f35b610226600480360381019061022191906124d0565b6107e5565b6040516102339190611f6c565b60405180910390f35b34801561024857600080fd5b50610263600480360381019061025e9190611fb3565b610918565b6040516102709190611f6c565b60405180910390f35b34801561028557600080fd5b5061028e610986565b60405161029b9190611f6c565b60405180910390f35b3480156102b057600080fd5b506102cb60048036038101906102c691906125c4565b61098f565b6040516102d89190611f6c565b60405180910390f35b3480156102ed57600080fd5b5061030860048036038101906103039190611fb3565b610a19565b60405161031591906126b6565b60405180910390f35b34801561032a57600080fd5b50610345600480360381019061034091906126d1565b610be0565b6040516103529190611f38565b60405180910390f35b34801561036757600080fd5b50610382600480360381019061037d9190611fb3565b610c4b565b60405161039193929190612711565b60405180910390f35b3480156103a657600080fd5b506103af610c83565b6040516103bc9190612079565b60405180910390f35b3480156103d157600080fd5b506103ec60048036038101906103e79190612748565b610cc0565b6040516103f99190611f6c565b60405180910390f35b34801561040e57600080fd5b50610429600480360381019061042491906127e3565b610cf1565b6040516104369190611f6c565b60405180910390f35b34801561044b57600080fd5b50610466600480360381019061046191906128f8565b610d59565b6040516104739190611f6c565b60405180910390f35b34801561048857600080fd5b50610491610ff9565b60405161049e9190611f6c565b60405180910390f35b3480156104b357600080fd5b506104bc611002565b6040516104c99190611f6c565b60405180910390f35b3480156104de57600080fd5b506104f960048036038101906104f49190611fb3565b61100c565b6040516105069190611f6c565b60405180910390f35b34801561051b57600080fd5b50610536600480360381019061053191906124d0565b61107a565b6040516105439190611f6c565b60405180910390f35b34801561055857600080fd5b506105616110b6565b60405161056e9190612079565b60405180910390f35b34801561058357600080fd5b5061058c6110f3565b60405161059991906129de565b60405180910390f35b3480156105ae57600080fd5b506105c960048036038101906105c491906129f9565b611117565b6040516105d69190611f6c565b60405180910390f35b3480156105eb57600080fd5b5061060660048036038101906106019190611fb3565b61112b565b6040516106139190611f6c565b60405180910390f35b34801561062857600080fd5b5061063161113d565b60405161063e9190612a98565b60405180910390f35b60007fbf26d897000000000000000000000000000000000000000000000000000000007bffffffffffffffffffffffffffffffffffffffffffffffffffffffff1916827bffffffffffffffffffffffffffffffffffffffffffffffffffffffff191614806106ba57506106b982611161565b5b9050919050565b600061b2fa905090565b6106d36111cb565b73ffffffffffffffffffffffffffffffffffffffff166106f16111d3565b73ffffffffffffffffffffffffffffffffffffffff1614610747576040517f08c379a000000000000000000000000000000000000000000000000000000000815260040161073e90612aff565b60405180910390fd5b610750816111db565b50565b60606000805461076290612b4e565b80601f016020809104026020016040519081016040528092919081815260200182805461078e90612b4e565b80156107db5780601f106107b0576101008083540402835291602001916107db565b820191906000526020600020905b8154815290600101906020018083116107be57829003601f168201915b5050505050905090565b6000806107f48686868661107a565b9050600061080182610a19565b9050600460078111156108175761081661263f565b5b81600781111561082a5761082961263f565b5b148061085a5750600560078111156108455761084461263f565b5b8160078111156108585761085761263f565b5b145b610899576040517f08c379a000000000000000000000000000000000000000000000000000000000815260040161089090612bf2565b60405180910390fd5b600180600084815260200190815260200160002060020160006101000a81548160ff0219169083151502179055507f712ae1383f79ac853f8d882153778e0260ef8f03b504e2866e0593e04d2b291f826040516108f69190611f6c565b60405180910390a161090b8288888888611270565b8192505050949350505050565b6000610975600160008481526020019081526020016000206000016040518060200160405290816000820160009054906101000a900467ffffffffffffffff1667ffffffffffffffff1667ffffffffffffffff168152505061137f565b67ffffffffffffffff169050919050565b60006001905090565b6000806109f06109e87f150214d74d59b7d1e90c73fc22ef3d991dd0a76b046543d4d80ab92d2a50328f89896040516020016109cd93929190612c21565b6040516020818303038152906040528051906020012061138d565b8686866113a7565b9050610a0d878288604051806020016040528060008152506113d2565b91505095945050505050565b60008060016000848152602001908152602001600020604051806080016040529081600082016040518060200160405290816000820160009054906101000a900467ffffffffffffffff1667ffffffffffffffff1667ffffffffffffffff16815250508152602001600182016040518060200160405290816000820160009054906101000a900467ffffffffffffffff1667ffffffffffffffff1667ffffffffffffffff168152505081526020016002820160009054906101000a900460ff161515151581526020016002820160019054906101000a900460ff1615151515815250509050806040015115610b12576007915050610bdb565b806060015115610b26576002915050610bdb565b610b338160000151611526565b15610b42576000915050610bdb565b610b4f8160200151611526565b15610b5e576001915050610bdb565b610b6b8160200151611540565b15610ba057610b798361156c565b8015610b8a5750610b89836115b3565b5b610b95576003610b98565b60045b915050610bdb565b6040517f08c379a0000000000000000000000000000000000000000000000000000000008152600401610bd290612ca4565b60405180910390fd5b919050565b60006002600084815260200190815260200160002060030160008373ffffffffffffffffffffffffffffffffffffffff1673ffffffffffffffffffffffffffffffffffffffff16815260200190815260200160002060009054906101000a900460ff16905092915050565b600080600080600260008681526020019081526020016000209050806000015481600101548260020154935093509350509193909250565b60606040518060400160405280600181526020017f3100000000000000000000000000000000000000000000000000000000000000815250905090565b600080610ccb6111d3565b9050610ce8848285604051806020016040528060008152506113d2565b91505092915050565b600080610cfc6111d3565b9050610d4e86828787878080601f016020809104026020016040519081016040528093929190818152602001838380828437600081840152601f19601f820116905080830192505050505050506113d2565b915050949350505050565b600080610d6f868686868051906020012061107a565b90508451865114610db5576040517f08c379a0000000000000000000000000000000000000000000000000000000008152600401610dac90612d36565b60405180910390fd5b8351865114610df9576040517f08c379a0000000000000000000000000000000000000000000000000000000008152600401610df090612d36565b60405180910390fd5b6000865111610e3d576040517f08c379a0000000000000000000000000000000000000000000000000000000008152600401610e3490612da2565b60405180910390fd5b6000600160008381526020019081526020016000209050610e9d816000016040518060200160405290816000820160009054906101000a900467ffffffffffffffff1667ffffffffffffffff1667ffffffffffffffff16815250506115de565b610edc576040517f08c379a0000000000000000000000000000000000000000000000000000000008152600401610ed390612e34565b60405180910390fd5b6000610eee610ee9610986565b6115f8565b610ef7436115f8565b610f019190612e97565b90506000610f15610f106106c1565b6115f8565b82610f209190612e97565b9050610f38828460000161164f90919063ffffffff16565b610f4e818460010161164f90919063ffffffff16565b7f7d84a6263ae0d98d3329bd7b46bb4e8d6f98cd35a7adb45c274c8b7fd5ebd5e084610f786111d3565b8b8b8d5167ffffffffffffffff811115610f9557610f946120a0565b5b604051908082528060200260200182016040528015610fc857816020015b6060815260200190600190039081610fb35790505b508c88888e604051610fe2999897969594939291906132b4565b60405180910390a183945050505050949350505050565b60006064905090565b6000600354905090565b6000611069600160008481526020019081526020016000206001016040518060200160405290816000820160009054906101000a900467ffffffffffffffff1667ffffffffffffffff1667ffffffffffffffff168152505061137f565b67ffffffffffffffff169050919050565b6000848484846040516020016110939493929190613364565b6040516020818303038152906040528051906020012060001c9050949350505050565b60606040518060400160405280602081526020017f737570706f72743d627261766f2671756f72756d3d666f722c6162737461696e815250905090565b7f150214d74d59b7d1e90c73fc22ef3d991dd0a76b046543d4d80ab92d2a50328f81565b6000611123838361167e565b905092915050565b600061113682611724565b9050919050565b7f000000000000000000000000000000000000000000000000000000000000000081565b60007f01ffc9a7000000000000000000000000000000000000000000000000000000007bffffffffffffffffffffffffffffffffffffffffffffffffffffffff1916827bffffffffffffffffffffffffffffffffffffffffffffffffffffffff1916149050919050565b600030905090565b600033905090565b6111e3610ff9565b811115611225576040517f08c379a000000000000000000000000000000000000000000000000000000000815260040161121c90613456565b60405180910390fd5b60006003549050816003819055507f0553476bf02ef2726e8ce5ced78d63e26e602e4a2257b1f559418e24b46339978183604051611264929190613476565b60405180910390a15050565b6000604051806060016040528060278152602001613cbd60279139905060005b8551811015611376576000808783815181106112af576112ae61349f565b5b602002602001015173ffffffffffffffffffffffffffffffffffffffff168784815181106112e0576112df61349f565b5b60200260200101518785815181106112fb576112fa61349f565b5b6020026020010151604051611310919061350a565b60006040518083038185875af1925050503d806000811461134d576040519150601f19603f3d011682016040523d82523d6000602084013e611352565b606091505b50915091506113628282866117eb565b5050508061136f90613521565b9050611290565b50505050505050565b600081600001519050919050565b60006113a061139a611852565b83611915565b9050919050565b60008060006113b887878787611948565b915091506113c581611a55565b8192505050949350505050565b600080600160008781526020019081526020016000209050600160078111156113fe576113fd61263f565b5b61140787610a19565b60078111156114195761141861263f565b5b14611459576040517f08c379a0000000000000000000000000000000000000000000000000000000008152600401611450906135dc565b60405180910390fd5b60006114b7866114a8846000016040518060200160405290816000820160009054906101000a900467ffffffffffffffff1667ffffffffffffffff1667ffffffffffffffff168152505061137f565b67ffffffffffffffff16611117565b90506114c587878784611c2a565b8573ffffffffffffffffffffffffffffffffffffffff167fb8e138887d0aa13bab447e82de9d5c1777041ecd21ca36ba824ff1e6c07ddda48887848860405161151194939291906135fc565b60405180910390a28092505050949350505050565b600043826000015167ffffffffffffffff16119050919050565b600061154b82611e30565b8015611565575043826000015167ffffffffffffffff1611155b9050919050565b600080600260008481526020019081526020016000209050806002015481600101546115989190613648565b6115a96115a485610918565b61112b565b1115915050919050565b6000806002600084815260200190815260200160002090508060000154816001015411915050919050565b600080826000015167ffffffffffffffff16149050919050565b600067ffffffffffffffff8016821115611647576040517f08c379a000000000000000000000000000000000000000000000000000000000815260040161163e90613710565b60405180910390fd5b819050919050565b808260000160006101000a81548167ffffffffffffffff021916908367ffffffffffffffff1602179055505050565b60007f000000000000000000000000000000000000000000000000000000000000000073ffffffffffffffffffffffffffffffffffffffff16633a46b1a884846040518363ffffffff1660e01b81526004016116db929190613730565b602060405180830381865afa1580156116f8573d6000803e3d6000fd5b505050506040513d601f19601f8201168201806040525081019061171c919061376e565b905092915050565b600061172e610ff9565b611736611002565b7f000000000000000000000000000000000000000000000000000000000000000073ffffffffffffffffffffffffffffffffffffffff16638e539e8c856040518263ffffffff1660e01b815260040161178f9190611f6c565b602060405180830381865afa1580156117ac573d6000803e3d6000fd5b505050506040513d601f19601f820116820180604052508101906117d0919061376e565b6117da919061379b565b6117e49190613824565b9050919050565b606083156117fb5782905061184b565b60008351111561180e5782518084602001fd5b816040517f08c379a00000000000000000000000000000000000000000000000000000000081526004016118429190612079565b60405180910390fd5b9392505050565b60007f00000000000000000000000000000000000000000000000000000000000000004614156118a4577f00000000000000000000000000000000000000000000000000000000000000009050611912565b61190f7f00000000000000000000000000000000000000000000000000000000000000007f00000000000000000000000000000000000000000000000000000000000000007f0000000000000000000000000000000000000000000000000000000000000000611e4a565b90505b90565b6000828260405160200161192a9291906138cd565b60405160208183030381529060405280519060200120905092915050565b6000807f7fffffffffffffffffffffffffffffff5d576e7357a4501ddfe92f46681b20a08360001c1115611983576000600391509150611a4c565b601b8560ff161415801561199b5750601c8560ff1614155b156119ad576000600491509150611a4c565b6000600187878787604051600081526020016040526040516119d29493929190613904565b6020604051602081039080840390855afa1580156119f4573d6000803e3d6000fd5b505050602060405103519050600073ffffffffffffffffffffffffffffffffffffffff168173ffffffffffffffffffffffffffffffffffffffff161415611a4357600060019250925050611a4c565b80600092509250505b94509492505050565b60006004811115611a6957611a6861263f565b5b816004811115611a7c57611a7b61263f565b5b1415611a8757611c27565b60016004811115611a9b57611a9a61263f565b5b816004811115611aae57611aad61263f565b5b1415611aef576040517f08c379a0000000000000000000000000000000000000000000000000000000008152600401611ae690613995565b60405180910390fd5b60026004811115611b0357611b0261263f565b5b816004811115611b1657611b1561263f565b5b1415611b57576040517f08c379a0000000000000000000000000000000000000000000000000000000008152600401611b4e90613a01565b60405180910390fd5b60036004811115611b6b57611b6a61263f565b5b816004811115611b7e57611b7d61263f565b5b1415611bbf576040517f08c379a0000000000000000000000000000000000000000000000000000000008152600401611bb690613a93565b60405180910390fd5b600480811115611bd257611bd161263f565b5b816004811115611be557611be461263f565b5b1415611c26576040517f08c379a0000000000000000000000000000000000000000000000000000000008152600401611c1d90613b25565b60405180910390fd5b5b50565b60006002600086815260200190815260200160002090508060030160008573ffffffffffffffffffffffffffffffffffffffff1673ffffffffffffffffffffffffffffffffffffffff16815260200190815260200160002060009054906101000a900460ff1615611cd0576040517f08c379a0000000000000000000000000000000000000000000000000000000008152600401611cc790613bb7565b60405180910390fd5b60018160030160008673ffffffffffffffffffffffffffffffffffffffff1673ffffffffffffffffffffffffffffffffffffffff16815260200190815260200160002060006101000a81548160ff02191690831515021790555060006002811115611d3e57611d3d61263f565b5b60ff168360ff161415611d6b5781816000016000828254611d5f9190613648565b92505081905550611e29565b60016002811115611d7f57611d7e61263f565b5b60ff168360ff161415611dac5781816001016000828254611da09190613648565b92505081905550611e28565b600280811115611dbf57611dbe61263f565b5b60ff168360ff161415611dec5781816002016000828254611de09190613648565b92505081905550611e27565b6040517f08c379a0000000000000000000000000000000000000000000000000000000008152600401611e1e90613c49565b60405180910390fd5b5b5b5050505050565b600080826000015167ffffffffffffffff16119050919050565b60008383834630604051602001611e65959493929190613c69565b6040516020818303038152906040528051906020012090509392505050565b6000604051905090565b600080fd5b600080fd5b60007fffffffff0000000000000000000000000000000000000000000000000000000082169050919050565b611ecd81611e98565b8114611ed857600080fd5b50565b600081359050611eea81611ec4565b92915050565b600060208284031215611f0657611f05611e8e565b5b6000611f1484828501611edb565b91505092915050565b60008115159050919050565b611f3281611f1d565b82525050565b6000602082019050611f4d6000830184611f29565b92915050565b6000819050919050565b611f6681611f53565b82525050565b6000602082019050611f816000830184611f5d565b92915050565b611f9081611f53565b8114611f9b57600080fd5b50565b600081359050611fad81611f87565b92915050565b600060208284031215611fc957611fc8611e8e565b5b6000611fd784828501611f9e565b91505092915050565b600081519050919050565b600082825260208201905092915050565b60005b8381101561201a578082015181840152602081019050611fff565b83811115612029576000848401525b50505050565b6000601f19601f8301169050919050565b600061204b82611fe0565b6120558185611feb565b9350612065818560208601611ffc565b61206e8161202f565b840191505092915050565b600060208201905081810360008301526120938184612040565b905092915050565b600080fd5b7f4e487b7100000000000000000000000000000000000000000000000000000000600052604160045260246000fd5b6120d88261202f565b810181811067ffffffffffffffff821117156120f7576120f66120a0565b5b80604052505050565b600061210a611e84565b905061211682826120cf565b919050565b600067ffffffffffffffff821115612136576121356120a0565b5b602082029050602081019050919050565b600080fd5b600073ffffffffffffffffffffffffffffffffffffffff82169050919050565b60006121778261214c565b9050919050565b6121878161216c565b811461219257600080fd5b50565b6000813590506121a48161217e565b92915050565b60006121bd6121b88461211b565b612100565b905080838252602082019050602084028301858111156121e0576121df612147565b5b835b8181101561220957806121f58882612195565b8452602084019350506020810190506121e2565b5050509392505050565b600082601f8301126122285761222761209b565b5b81356122388482602086016121aa565b91505092915050565b600067ffffffffffffffff82111561225c5761225b6120a0565b5b602082029050602081019050919050565b600061228061227b84612241565b612100565b905080838252602082019050602084028301858111156122a3576122a2612147565b5b835b818110156122cc57806122b88882611f9e565b8452602084019350506020810190506122a5565b5050509392505050565b600082601f8301126122eb576122ea61209b565b5b81356122fb84826020860161226d565b91505092915050565b600067ffffffffffffffff82111561231f5761231e6120a0565b5b602082029050602081019050919050565b600080fd5b600067ffffffffffffffff8211156123505761234f6120a0565b5b6123598261202f565b9050602081019050919050565b82818337600083830152505050565b600061238861238384612335565b612100565b9050828152602081018484840111156123a4576123a3612330565b5b6123af848285612366565b509392505050565b600082601f8301126123cc576123cb61209b565b5b81356123dc848260208601612375565b91505092915050565b60006123f86123f384612304565b612100565b9050808382526020820190506020840283018581111561241b5761241a612147565b5b835b8181101561246257803567ffffffffffffffff8111156124405761243f61209b565b5b80860161244d89826123b7565b8552602085019450505060208101905061241d565b5050509392505050565b600082601f8301126124815761248061209b565b5b81356124918482602086016123e5565b91505092915050565b6000819050919050565b6124ad8161249a565b81146124b857600080fd5b50565b6000813590506124ca816124a4565b92915050565b600080600080608085870312156124ea576124e9611e8e565b5b600085013567ffffffffffffffff81111561250857612507611e93565b5b61251487828801612213565b945050602085013567ffffffffffffffff81111561253557612534611e93565b5b612541878288016122d6565b935050604085013567ffffffffffffffff81111561256257612561611e93565b5b61256e8782880161246c565b925050606061257f878288016124bb565b91505092959194509250565b600060ff82169050919050565b6125a18161258b565b81146125ac57600080fd5b50565b6000813590506125be81612598565b92915050565b600080600080600060a086880312156125e0576125df611e8e565b5b60006125ee88828901611f9e565b95505060206125ff888289016125af565b9450506040612610888289016125af565b9350506060612621888289016124bb565b9250506080612632888289016124bb565b9150509295509295909350565b7f4e487b7100000000000000000000000000000000000000000000000000000000600052602160045260246000fd5b6008811061267f5761267e61263f565b5b50565b60008190506126908261266e565b919050565b60006126a082612682565b9050919050565b6126b081612695565b82525050565b60006020820190506126cb60008301846126a7565b92915050565b600080604083850312156126e8576126e7611e8e565b5b60006126f685828601611f9e565b925050602061270785828601612195565b9150509250929050565b60006060820190506127266000830186611f5d565b6127336020830185611f5d565b6127406040830184611f5d565b949350505050565b6000806040838503121561275f5761275e611e8e565b5b600061276d85828601611f9e565b925050602061277e858286016125af565b9150509250929050565b600080fd5b60008083601f8401126127a3576127a261209b565b5b8235905067ffffffffffffffff8111156127c0576127bf612788565b5b6020830191508360018202830111156127dc576127db612147565b5b9250929050565b600080600080606085870312156127fd576127fc611e8e565b5b600061280b87828801611f9e565b945050602061281c878288016125af565b935050604085013567ffffffffffffffff81111561283d5761283c611e93565b5b6128498782880161278d565b925092505092959194509250565b600067ffffffffffffffff821115612872576128716120a0565b5b61287b8261202f565b9050602081019050919050565b600061289b61289684612857565b612100565b9050828152602081018484840111156128b7576128b6612330565b5b6128c2848285612366565b509392505050565b600082601f8301126128df576128de61209b565b5b81356128ef848260208601612888565b91505092915050565b6000806000806080858703121561291257612911611e8e565b5b600085013567ffffffffffffffff8111156129305761292f611e93565b5b61293c87828801612213565b945050602085013567ffffffffffffffff81111561295d5761295c611e93565b5b612969878288016122d6565b935050604085013567ffffffffffffffff81111561298a57612989611e93565b5b6129968782880161246c565b925050606085013567ffffffffffffffff8111156129b7576129b6611e93565b5b6129c3878288016128ca565b91505092959194509250565b6129d88161249a565b82525050565b60006020820190506129f360008301846129cf565b92915050565b60008060408385031215612a1057612a0f611e8e565b5b6000612a1e85828601612195565b9250506020612a2f85828601611f9e565b9150509250929050565b6000819050919050565b6000612a5e612a59612a548461214c565b612a39565b61214c565b9050919050565b6000612a7082612a43565b9050919050565b6000612a8282612a65565b9050919050565b612a9281612a77565b82525050565b6000602082019050612aad6000830184612a89565b92915050565b7f476f7665726e6f723a206f6e6c79476f7665726e616e63650000000000000000600082015250565b6000612ae9601883611feb565b9150612af482612ab3565b602082019050919050565b60006020820190508181036000830152612b1881612adc565b9050919050565b7f4e487b7100000000000000000000000000000000000000000000000000000000600052602260045260246000fd5b60006002820490506001821680612b6657607f821691505b60208210811415612b7a57612b79612b1f565b5b50919050565b7f476f7665726e6f723a2070726f706f73616c206e6f742073756363657373667560008201527f6c00000000000000000000000000000000000000000000000000000000000000602082015250565b6000612bdc602183611feb565b9150612be782612b80565b604082019050919050565b60006020820190508181036000830152612c0b81612bcf565b9050919050565b612c1b8161258b565b82525050565b6000606082019050612c3660008301866129cf565b612c436020830185611f5d565b612c506040830184612c12565b949350505050565b7f476f7665726e6f723a20756e6b6e6f776e2070726f706f73616c206964000000600082015250565b6000612c8e601d83611feb565b9150612c9982612c58565b602082019050919050565b60006020820190508181036000830152612cbd81612c81565b9050919050565b7f476f7665726e6f723a20696e76616c69642070726f706f73616c206c656e677460008201527f6800000000000000000000000000000000000000000000000000000000000000602082015250565b6000612d20602183611feb565b9150612d2b82612cc4565b604082019050919050565b60006020820190508181036000830152612d4f81612d13565b9050919050565b7f476f7665726e6f723a20656d7074792070726f706f73616c0000000000000000600082015250565b6000612d8c601883611feb565b9150612d9782612d56565b602082019050919050565b60006020820190508181036000830152612dbb81612d7f565b9050919050565b7f476f7665726e6f723a2070726f706f73616c20616c726561647920657869737460008201527f7300000000000000000000000000000000000000000000000000000000000000602082015250565b6000612e1e602183611feb565b9150612e2982612dc2565b604082019050919050565b60006020820190508181036000830152612e4d81612e11565b9050919050565b600067ffffffffffffffff82169050919050565b7f4e487b7100000000000000000000000000000000000000000000000000000000600052601160045260246000fd5b6000612ea282612e54565b9150612ead83612e54565b92508267ffffffffffffffff03821115612eca57612ec9612e68565b5b828201905092915050565b612ede8161216c565b82525050565b600081519050919050565b600082825260208201905092915050565b6000819050602082019050919050565b612f198161216c565b82525050565b6000612f2b8383612f10565b60208301905092915050565b6000602082019050919050565b6000612f4f82612ee4565b612f598185612eef565b9350612f6483612f00565b8060005b83811015612f95578151612f7c8882612f1f565b9750612f8783612f37565b925050600181019050612f68565b5085935050505092915050565b600081519050919050565b600082825260208201905092915050565b6000819050602082019050919050565b612fd781611f53565b82525050565b6000612fe98383612fce565b60208301905092915050565b6000602082019050919050565b600061300d82612fa2565b6130178185612fad565b935061302283612fbe565b8060005b8381101561305357815161303a8882612fdd565b975061304583612ff5565b925050600181019050613026565b5085935050505092915050565b600081519050919050565b600082825260208201905092915050565b6000819050602082019050919050565b600082825260208201905092915050565b60006130a882611fe0565b6130b2818561308c565b93506130c2818560208601611ffc565b6130cb8161202f565b840191505092915050565b60006130e2838361309d565b905092915050565b6000602082019050919050565b600061310282613060565b61310c818561306b565b93508360208202850161311e8561307c565b8060005b8581101561315a578484038952815161313b85826130d6565b9450613146836130ea565b925060208a01995050600181019050613122565b50829750879550505050505092915050565b600081519050919050565b600082825260208201905092915050565b6000819050602082019050919050565b600081519050919050565b600082825260208201905092915050565b60006131bf82613198565b6131c981856131a3565b93506131d9818560208601611ffc565b6131e28161202f565b840191505092915050565b60006131f983836131b4565b905092915050565b6000602082019050919050565b60006132198261316c565b6132238185613177565b93508360208202850161323585613188565b8060005b85811015613271578484038952815161325285826131ed565b945061325d83613201565b925060208a01995050600181019050613239565b50829750879550505050505092915050565b600061329e61329961329484612e54565b612a39565b611f53565b9050919050565b6132ae81613283565b82525050565b6000610120820190506132ca600083018c611f5d565b6132d7602083018b612ed5565b81810360408301526132e9818a612f44565b905081810360608301526132fd8189613002565b9050818103608083015261331181886130f7565b905081810360a0830152613325818761320e565b905061333460c08301866132a5565b61334160e08301856132a5565b8181036101008301526133548184612040565b90509a9950505050505050505050565b6000608082019050818103600083015261337e8187612f44565b905081810360208301526133928186613002565b905081810360408301526133a6818561320e565b90506133b560608301846129cf565b95945050505050565b7f476f7665726e6f72566f74657351756f72756d4672616374696f6e3a2071756f60008201527f72756d4e756d657261746f72206f7665722071756f72756d44656e6f6d696e6160208201527f746f720000000000000000000000000000000000000000000000000000000000604082015250565b6000613440604383611feb565b915061344b826133be565b606082019050919050565b6000602082019050818103600083015261346f81613433565b9050919050565b600060408201905061348b6000830185611f5d565b6134986020830184611f5d565b9392505050565b7f4e487b7100000000000000000000000000000000000000000000000000000000600052603260045260246000fd5b600081905092915050565b60006134e482613198565b6134ee81856134ce565b93506134fe818560208601611ffc565b80840191505092915050565b600061351682846134d9565b915081905092915050565b600061352c82611f53565b91507fffffffffffffffffffffffffffffffffffffffffffffffffffffffffffffffff82141561355f5761355e612e68565b5b600182019050919050565b7f476f7665726e6f723a20766f7465206e6f742063757272656e746c792061637460008201527f6976650000000000000000000000000000000000000000000000000000000000602082015250565b60006135c6602383611feb565b91506135d18261356a565b604082019050919050565b600060208201905081810360008301526135f5816135b9565b9050919050565b60006080820190506136116000830187611f5d565b61361e6020830186612c12565b61362b6040830185611f5d565b818103606083015261363d8184612040565b905095945050505050565b600061365382611f53565b915061365e83611f53565b9250827fffffffffffffffffffffffffffffffffffffffffffffffffffffffffffffffff0382111561369357613692612e68565b5b828201905092915050565b7f53616665436173743a2076616c756520646f65736e27742066697420696e203660008201527f3420626974730000000000000000000000000000000000000000000000000000602082015250565b60006136fa602683611feb565b91506137058261369e565b604082019050919050565b60006020820190508181036000830152613729816136ed565b9050919050565b60006040820190506137456000830185612ed5565b6137526020830184611f5d565b9392505050565b60008151905061376881611f87565b92915050565b60006020828403121561378457613783611e8e565b5b600061379284828501613759565b91505092915050565b60006137a682611f53565b91506137b183611f53565b9250817fffffffffffffffffffffffffffffffffffffffffffffffffffffffffffffffff04831182151516156137ea576137e9612e68565b5b828202905092915050565b7f4e487b7100000000000000000000000000000000000000000000000000000000600052601260045260246000fd5b600061382f82611f53565b915061383a83611f53565b92508261384a576138496137f5565b5b828204905092915050565b600081905092915050565b7f1901000000000000000000000000000000000000000000000000000000000000600082015250565b6000613896600283613855565b91506138a182613860565b600282019050919050565b6000819050919050565b6138c76138c28261249a565b6138ac565b82525050565b60006138d882613889565b91506138e482856138b6565b6020820191506138f482846138b6565b6020820191508190509392505050565b600060808201905061391960008301876129cf565b6139266020830186612c12565b61393360408301856129cf565b61394060608301846129cf565b95945050505050565b7f45434453413a20696e76616c6964207369676e61747572650000000000000000600082015250565b600061397f601883611feb565b915061398a82613949565b602082019050919050565b600060208201905081810360008301526139ae81613972565b9050919050565b7f45434453413a20696e76616c6964207369676e6174757265206c656e67746800600082015250565b60006139eb601f83611feb565b91506139f6826139b5565b602082019050919050565b60006020820190508181036000830152613a1a816139de565b9050919050565b7f45434453413a20696e76616c6964207369676e6174757265202773272076616c60008201527f7565000000000000000000000000000000000000000000000000000000000000602082015250565b6000613a7d602283611feb565b9150613a8882613a21565b604082019050919050565b60006020820190508181036000830152613aac81613a70565b9050919050565b7f45434453413a20696e76616c6964207369676e6174757265202776272076616c60008201527f7565000000000000000000000000000000000000000000000000000000000000602082015250565b6000613b0f602283611feb565b9150613b1a82613ab3565b604082019050919050565b60006020820190508181036000830152613b3e81613b02565b9050919050565b7f476f7665726e6f72566f74696e6753696d706c653a20766f746520616c72656160008201527f6479206361737400000000000000000000000000000000000000000000000000602082015250565b6000613ba1602783611feb565b9150613bac82613b45565b604082019050919050565b60006020820190508181036000830152613bd081613b94565b9050919050565b7f476f7665726e6f72566f74696e6753696d706c653a20696e76616c696420766160008201527f6c756520666f7220656e756d20566f7465547970650000000000000000000000602082015250565b6000613c33603583611feb565b9150613c3e82613bd7565b604082019050919050565b60006020820190508181036000830152613c6281613c26565b9050919050565b600060a082019050613c7e60008301886129cf565b613c8b60208301876129cf565b613c9860408301866129cf565b613ca56060830185611f5d565b613cb26080830184612ed5565b969550505050505056fe476f7665726e6f723a2063616c6c20726576657274656420776974686f7574206d657373616765a26469706673582212205d61e8a39227e87a973cdf0ad3ae7622dada0d074d5672cd1effc446b422e32564736f6c634300080a0033",
  "immutableReferences": {
    "1356": [
      {
        "length": 32,
        "start": 4415
      },
      {
        "length": 32,
        "start": 5762
      },
      {
        "length": 32,
        "start": 5944
      }
    ],
    "4029": [
      {
        "length": 32,
        "start": 6270
      }
    ],
    "4031": [
      {
        "length": 32,
        "start": 6230
      }
    ],
    "4033": [
      {
        "length": 32,
        "start": 6346
      }
    ],
    "4035": [
      {
        "length": 32,
        "start": 6379
      }
    ],
    "4037": [
      {
        "length": 32,
        "start": 6313
      }
    ]
  },
  "source": "// SPDX-License-Identifier: MIT\npragma solidity 0.8.10;\n\nimport \"@openzeppelin/contracts/governance/Governor.sol\";\nimport \"@openzeppelin/contracts/governance/extensions/GovernorCountingSimple.sol\";\nimport \"@openzeppelin/contracts/governance/extensions/GovernorVotes.sol\";\nimport \"@openzeppelin/contracts/governance/extensions/GovernorVotesQuorumFraction.sol\";\n\ncontract CHICHIGovernor is Governor, GovernorCountingSimple, GovernorVotes, GovernorVotesQuorumFraction {\n    constructor(ERC20Votes _token)\n        Governor(\"CHICHI Governor\")\n        GovernorVotes(_token)\n        GovernorVotesQuorumFraction(10)\n    {}\n\n    function votingDelay() public pure override returns (uint256) {\n        return 1; // 1 block\n    }\n\n    function votingPeriod() public pure override returns (uint256) {\n        return 45818; // 1 week\n    }\n\n    // The following functions are overrides required by Solidity.\n\n    function quorum(uint256 blockNumber)\n        public\n        view\n        override(IGovernor, GovernorVotesQuorumFraction)\n        returns (uint256)\n    {\n        return super.quorum(blockNumber);\n    }\n\n    function getVotes(address account, uint256 blockNumber)\n        public\n        view\n        override(IGovernor, GovernorVotes)\n        returns (uint256)\n    {\n        return super.getVotes(account, blockNumber);\n    }\n}",
  "sourcePath": "/Volumes/Storage/Workspace/Projects/Inu/contracts/contracts/CHICHIGovernor.sol",
  "compiler": {
    "name": "solc",
    "version": "0.8.10+commit.fc410830.Emscripten.clang"
  },
  "schemaVersion": "3.4.3",
  "updatedAt": "2021-11-14T20:00:05.371Z",
  "devdoc": {
    "kind": "dev",
    "methods": {
      "COUNTING_MODE()": {
        "details": "See {IGovernor-COUNTING_MODE}."
      },
      "castVote(uint256,uint8)": {
        "details": "See {IGovernor-castVote}."
      },
      "castVoteBySig(uint256,uint8,uint8,bytes32,bytes32)": {
        "details": "See {IGovernor-castVoteBySig}."
      },
      "castVoteWithReason(uint256,uint8,string)": {
        "details": "See {IGovernor-castVoteWithReason}."
      },
      "execute(address[],uint256[],bytes[],bytes32)": {
        "details": "See {IGovernor-execute}."
      },
      "hasVoted(uint256,address)": {
        "details": "See {IGovernor-hasVoted}."
      },
      "hashProposal(address[],uint256[],bytes[],bytes32)": {
        "details": "See {IGovernor-hashProposal}. The proposal id is produced by hashing the RLC encoded `targets` array, the `values` array, the `calldatas` array and the descriptionHash (bytes32 which itself is the keccak256 hash of the description string). This proposal id can be produced from the proposal data which is part of the {ProposalCreated} event. It can even be computed in advance, before the proposal is submitted. Note that the chainId and the governor address are not part of the proposal id computation. Consequently, the same proposal (with same operation and same description) will have the same id if submitted on multiple governors accross multiple networks. This also means that in order to execute the same operation twice (on the same governor) the proposer will have to change the description in order to avoid proposal id conflicts."
      },
      "name()": {
        "details": "See {IGovernor-name}."
      },
      "proposalDeadline(uint256)": {
        "details": "See {IGovernor-proposalDeadline}."
      },
      "proposalSnapshot(uint256)": {
        "details": "See {IGovernor-proposalSnapshot}."
      },
      "proposalVotes(uint256)": {
        "details": "Accessor to the internal vote counts."
      },
      "propose(address[],uint256[],bytes[],string)": {
        "details": "See {IGovernor-propose}."
      },
      "state(uint256)": {
        "details": "See {IGovernor-state}."
      },
      "supportsInterface(bytes4)": {
        "details": "See {IERC165-supportsInterface}."
      },
      "version()": {
        "details": "See {IGovernor-version}."
      },
      "votingDelay()": {
        "details": "delay, in number of block, between the proposal is created and the vote starts. This can be increassed to leave time for users to buy voting power, of delegate it, before the voting of a proposal starts."
      },
      "votingPeriod()": {
        "details": "delay, in number of blocks, between the vote start and vote ends. Note: the {votingDelay} can delay the start of the vote. This must be considered when setting the voting duration compared to the voting delay."
      }
    },
    "version": 1
  },
  "userdoc": {
    "kind": "user",
    "methods": {
      "votingDelay()": {
        "notice": "module:user-config"
      },
      "votingPeriod()": {
        "notice": "module:user-config"
      }
    },
    "version": 1
  }
}