{
  "contractName": "Chichi",
  "abi": [
    {
      "inputs": [],
      "stateMutability": "nonpayable",
      "type": "constructor"
    },
    {
      "anonymous": false,
      "inputs": [
        {
          "indexed": true,
          "internalType": "address",
          "name": "owner",
          "type": "address"
        },
        {
          "indexed": true,
          "internalType": "address",
          "name": "spender",
          "type": "address"
        },
        {
          "indexed": false,
          "internalType": "uint256",
          "name": "value",
          "type": "uint256"
        }
      ],
      "name": "Approval",
      "type": "event"
    },
    {
      "anonymous": false,
      "inputs": [
        {
          "indexed": true,
          "internalType": "address",
          "name": "delegator",
          "type": "address"
        },
        {
          "indexed": true,
          "internalType": "address",
          "name": "fromDelegate",
          "type": "address"
        },
        {
          "indexed": true,
          "internalType": "address",
          "name": "toDelegate",
          "type": "address"
        }
      ],
      "name": "DelegateChanged",
      "type": "event"
    },
    {
      "anonymous": false,
      "inputs": [
        {
          "indexed": true,
          "internalType": "address",
          "name": "delegate",
          "type": "address"
        },
        {
          "indexed": false,
          "internalType": "uint256",
          "name": "previousBalance",
          "type": "uint256"
        },
        {
          "indexed": false,
          "internalType": "uint256",
          "name": "newBalance",
          "type": "uint256"
        }
      ],
      "name": "DelegateVotesChanged",
      "type": "event"
    },
    {
      "anonymous": false,
      "inputs": [
        {
          "indexed": true,
          "internalType": "address",
          "name": "from",
          "type": "address"
        },
        {
          "indexed": true,
          "internalType": "address",
          "name": "to",
          "type": "address"
        },
        {
          "indexed": false,
          "internalType": "uint256",
          "name": "value",
          "type": "uint256"
        }
      ],
      "name": "Transfer",
      "type": "event"
    },
    {
      "inputs": [],
      "name": "DOMAIN_SEPARATOR",
      "outputs": [
        {
          "internalType": "bytes32",
          "name": "",
          "type": "bytes32"
        }
      ],
      "stateMutability": "view",
      "type": "function",
      "constant": true
    },
    {
      "inputs": [
        {
          "internalType": "address",
          "name": "owner",
          "type": "address"
        },
        {
          "internalType": "address",
          "name": "spender",
          "type": "address"
        }
      ],
      "name": "allowance",
      "outputs": [
        {
          "internalType": "uint256",
          "name": "",
          "type": "uint256"
        }
      ],
      "stateMutability": "view",
      "type": "function",
      "constant": true
    },
    {
      "inputs": [
        {
          "internalType": "address",
          "name": "spender",
          "type": "address"
        },
        {
          "internalType": "uint256",
          "name": "amount",
          "type": "uint256"
        }
      ],
      "name": "approve",
      "outputs": [
        {
          "internalType": "bool",
          "name": "",
          "type": "bool"
        }
      ],
      "stateMutability": "nonpayable",
      "type": "function"
    },
    {
      "inputs": [
        {
          "internalType": "address",
          "name": "account",
          "type": "address"
        }
      ],
      "name": "balanceOf",
      "outputs": [
        {
          "internalType": "uint256",
          "name": "",
          "type": "uint256"
        }
      ],
      "stateMutability": "view",
      "type": "function",
      "constant": true
    },
    {
      "inputs": [
        {
          "internalType": "uint256",
          "name": "amount",
          "type": "uint256"
        }
      ],
      "name": "burn",
      "outputs": [],
      "stateMutability": "nonpayable",
      "type": "function"
    },
    {
      "inputs": [
        {
          "internalType": "address",
          "name": "account",
          "type": "address"
        },
        {
          "internalType": "uint256",
          "name": "amount",
          "type": "uint256"
        }
      ],
      "name": "burnFrom",
      "outputs": [],
      "stateMutability": "nonpayable",
      "type": "function"
    },
    {
      "inputs": [
        {
          "internalType": "address",
          "name": "account",
          "type": "address"
        },
        {
          "internalType": "uint32",
          "name": "pos",
          "type": "uint32"
        }
      ],
      "name": "checkpoints",
      "outputs": [
        {
          "components": [
            {
              "internalType": "uint32",
              "name": "fromBlock",
              "type": "uint32"
            },
            {
              "internalType": "uint224",
              "name": "votes",
              "type": "uint224"
            }
          ],
          "internalType": "struct ERC20Votes.Checkpoint",
          "name": "",
          "type": "tuple"
        }
      ],
      "stateMutability": "view",
      "type": "function",
      "constant": true
    },
    {
      "inputs": [],
      "name": "decimals",
      "outputs": [
        {
          "internalType": "uint8",
          "name": "",
          "type": "uint8"
        }
      ],
      "stateMutability": "view",
      "type": "function",
      "constant": true
    },
    {
      "inputs": [
        {
          "internalType": "address",
          "name": "spender",
          "type": "address"
        },
        {
          "internalType": "uint256",
          "name": "subtractedValue",
          "type": "uint256"
        }
      ],
      "name": "decreaseAllowance",
      "outputs": [
        {
          "internalType": "bool",
          "name": "",
          "type": "bool"
        }
      ],
      "stateMutability": "nonpayable",
      "type": "function"
    },
    {
      "inputs": [
        {
          "internalType": "address",
          "name": "delegatee",
          "type": "address"
        }
      ],
      "name": "delegate",
      "outputs": [],
      "stateMutability": "nonpayable",
      "type": "function"
    },
    {
      "inputs": [
        {
          "internalType": "address",
          "name": "delegatee",
          "type": "address"
        },
        {
          "internalType": "uint256",
          "name": "nonce",
          "type": "uint256"
        },
        {
          "internalType": "uint256",
          "name": "expiry",
          "type": "uint256"
        },
        {
          "internalType": "uint8",
          "name": "v",
          "type": "uint8"
        },
        {
          "internalType": "bytes32",
          "name": "r",
          "type": "bytes32"
        },
        {
          "internalType": "bytes32",
          "name": "s",
          "type": "bytes32"
        }
      ],
      "name": "delegateBySig",
      "outputs": [],
      "stateMutability": "nonpayable",
      "type": "function"
    },
    {
      "inputs": [
        {
          "internalType": "address",
          "name": "account",
          "type": "address"
        }
      ],
      "name": "delegates",
      "outputs": [
        {
          "internalType": "address",
          "name": "",
          "type": "address"
        }
      ],
      "stateMutability": "view",
      "type": "function",
      "constant": true
    },
    {
      "inputs": [
        {
          "internalType": "uint256",
          "name": "blockNumber",
          "type": "uint256"
        }
      ],
      "name": "getPastTotalSupply",
      "outputs": [
        {
          "internalType": "uint256",
          "name": "",
          "type": "uint256"
        }
      ],
      "stateMutability": "view",
      "type": "function",
      "constant": true
    },
    {
      "inputs": [
        {
          "internalType": "address",
          "name": "account",
          "type": "address"
        },
        {
          "internalType": "uint256",
          "name": "blockNumber",
          "type": "uint256"
        }
      ],
      "name": "getPastVotes",
      "outputs": [
        {
          "internalType": "uint256",
          "name": "",
          "type": "uint256"
        }
      ],
      "stateMutability": "view",
      "type": "function",
      "constant": true
    },
    {
      "inputs": [
        {
          "internalType": "address",
          "name": "account",
          "type": "address"
        }
      ],
      "name": "getVotes",
      "outputs": [
        {
          "internalType": "uint256",
          "name": "",
          "type": "uint256"
        }
      ],
      "stateMutability": "view",
      "type": "function",
      "constant": true
    },
    {
      "inputs": [
        {
          "internalType": "address",
          "name": "spender",
          "type": "address"
        },
        {
          "internalType": "uint256",
          "name": "addedValue",
          "type": "uint256"
        }
      ],
      "name": "increaseAllowance",
      "outputs": [
        {
          "internalType": "bool",
          "name": "",
          "type": "bool"
        }
      ],
      "stateMutability": "nonpayable",
      "type": "function"
    },
    {
      "inputs": [],
      "name": "name",
      "outputs": [
        {
          "internalType": "string",
          "name": "",
          "type": "string"
        }
      ],
      "stateMutability": "view",
      "type": "function",
      "constant": true
    },
    {
      "inputs": [
        {
          "internalType": "address",
          "name": "owner",
          "type": "address"
        }
      ],
      "name": "nonces",
      "outputs": [
        {
          "internalType": "uint256",
          "name": "",
          "type": "uint256"
        }
      ],
      "stateMutability": "view",
      "type": "function",
      "constant": true
    },
    {
      "inputs": [
        {
          "internalType": "address",
          "name": "account",
          "type": "address"
        }
      ],
      "name": "numCheckpoints",
      "outputs": [
        {
          "internalType": "uint32",
          "name": "",
          "type": "uint32"
        }
      ],
      "stateMutability": "view",
      "type": "function",
      "constant": true
    },
    {
      "inputs": [
        {
          "internalType": "address",
          "name": "owner",
          "type": "address"
        },
        {
          "internalType": "address",
          "name": "spender",
          "type": "address"
        },
        {
          "internalType": "uint256",
          "name": "value",
          "type": "uint256"
        },
        {
          "internalType": "uint256",
          "name": "deadline",
          "type": "uint256"
        },
        {
          "internalType": "uint8",
          "name": "v",
          "type": "uint8"
        },
        {
          "internalType": "bytes32",
          "name": "r",
          "type": "bytes32"
        },
        {
          "internalType": "bytes32",
          "name": "s",
          "type": "bytes32"
        }
      ],
      "name": "permit",
      "outputs": [],
      "stateMutability": "nonpayable",
      "type": "function"
    },
    {
      "inputs": [],
      "name": "symbol",
      "outputs": [
        {
          "internalType": "string",
          "name": "",
          "type": "string"
        }
      ],
      "stateMutability": "view",
      "type": "function",
      "constant": true
    },
    {
      "inputs": [],
      "name": "totalSupply",
      "outputs": [
        {
          "internalType": "uint256",
          "name": "",
          "type": "uint256"
        }
      ],
      "stateMutability": "view",
      "type": "function",
      "constant": true
    },
    {
      "inputs": [
        {
          "internalType": "address",
          "name": "recipient",
          "type": "address"
        },
        {
          "internalType": "uint256",
          "name": "amount",
          "type": "uint256"
        }
      ],
      "name": "transfer",
      "outputs": [
        {
          "internalType": "bool",
          "name": "",
          "type": "bool"
        }
      ],
      "stateMutability": "nonpayable",
      "type": "function"
    },
    {
      "inputs": [
        {
          "internalType": "address",
          "name": "sender",
          "type": "address"
        },
        {
          "internalType": "address",
          "name": "recipient",
          "type": "address"
        },
        {
          "internalType": "uint256",
          "name": "amount",
          "type": "uint256"
        }
      ],
      "name": "transferFrom",
      "outputs": [
        {
          "internalType": "bool",
          "name": "",
          "type": "bool"
        }
      ],
      "stateMutability": "nonpayable",
      "type": "function"
    }
  ],
  "bytecode": "0x6101406040527f6e71edae12b1b97f4d1f60370fef10105fa2faae0126114a169c64845d6126c9610120908152503480156200003a57600080fd5b506040518060400160405280600a81526020017f43686963686920496e7500000000000000000000000000000000000000000000815250806040518060400160405280600181526020017f31000000000000000000000000000000000000000000000000000000000000008152506040518060400160405280600a81526020017f43484943484920496e75000000000000000000000000000000000000000000008152506040518060400160405280600681526020017f434849434849000000000000000000000000000000000000000000000000000081525081600390805190602001906200012c92919062000b7a565b5080600490805190602001906200014592919062000b7a565b50505060008280519060200120905060008280519060200120905060007f8b73c3c69bb8fe3d512ecc4cf759cc79239f7b179b0ffacaa9a75d522b39400f90508260c081815250508160e081815250504660a08181525050620001b08184846200020d60201b60201c565b608081815250508061010081815250505050505050506200020733620001db6200024960201b60201c565b600a620001e9919062000dc4565b64e8d4a51000620001fb919062000e15565b6200025260201b60201c565b62001305565b600083838346306040516020016200022a95949392919062000ee7565b6040516020818303038152906040528051906020012090509392505050565b60006012905090565b6200026982826200026d60201b620011001760201c565b5050565b6200028482826200032b60201b6200118d1760201c565b62000294620004a460201b60201c565b7bffffffffffffffffffffffffffffffffffffffffffffffffffffffff16620002c2620004c860201b60201c565b111562000306576040517f08c379a0000000000000000000000000000000000000000000000000000000008152600401620002fd9062000fcb565b60405180910390fd5b620003256008620004d260201b620012ed1783620004ea60201b60201c565b50505050565b600073ffffffffffffffffffffffffffffffffffffffff168273ffffffffffffffffffffffffffffffffffffffff1614156200039e576040517f08c379a000000000000000000000000000000000000000000000000000000000815260040162000395906200103d565b60405180910390fd5b620003b2600083836200079b60201b60201c565b8060026000828254620003c691906200105f565b92505081905550806000808473ffffffffffffffffffffffffffffffffffffffff1673ffffffffffffffffffffffffffffffffffffffff16815260200190815260200160002060008282546200041d91906200105f565b925050819055508173ffffffffffffffffffffffffffffffffffffffff16600073ffffffffffffffffffffffffffffffffffffffff167fddf252ad1be2c89b69c2b068fc378daa952ba7f163c4a11628f55a4df523b3ef83604051620004849190620010bc565b60405180910390a3620004a060008383620007a060201b60201c565b5050565b60007bffffffffffffffffffffffffffffffffffffffffffffffffffffffff905090565b6000600254905090565b60008183620004e291906200105f565b905092915050565b600080600085805490509050600081146200055f57856001826200050f9190620010d9565b8154811062000523576200052262001114565b5b9060005260206000200160000160049054906101000a90047bffffffffffffffffffffffffffffffffffffffffffffffffffffffff1662000562565b60005b7bffffffffffffffffffffffffffffffffffffffffffffffffffffffff1692506200058e83858760201c565b9150600081118015620005e757504386600183620005ad9190620010d9565b81548110620005c157620005c062001114565b5b9060005260206000200160000160009054906101000a900463ffffffff1663ffffffff16145b1562000688576200060382620007bd60201b620013031760201c565b86600183620006139190620010d9565b8154811062000627576200062662001114565b5b9060005260206000200160000160046101000a8154817bffffffffffffffffffffffffffffffffffffffffffffffffffffffff02191690837bffffffffffffffffffffffffffffffffffffffffffffffffffffffff16021790555062000792565b856040518060400160405280620006aa436200082b60201b6200136e1760201c565b63ffffffff168152602001620006cb85620007bd60201b620013031760201c565b7bffffffffffffffffffffffffffffffffffffffffffffffffffffffff168152509080600181540180825580915050600190039060005260206000200160009091909190915060008201518160000160006101000a81548163ffffffff021916908363ffffffff16021790555060208201518160000160046101000a8154817bffffffffffffffffffffffffffffffffffffffffffffffffffffffff02191690837bffffffffffffffffffffffffffffffffffffffffffffffffffffffff16021790555050505b50935093915050565b505050565b620007b88383836200088160201b620013c11760201c565b505050565b60007bffffffffffffffffffffffffffffffffffffffffffffffffffffffff801682111562000823576040517f08c379a00000000000000000000000000000000000000000000000000000000081526004016200081a90620011b9565b60405180910390fd5b819050919050565b600063ffffffff801682111562000879576040517f08c379a0000000000000000000000000000000000000000000000000000000008152600401620008709062001251565b60405180910390fd5b819050919050565b62000899838383620008d160201b620013ec1760201c565b620008cc620008ae84620008d660201b60201c565b620008bf84620008d660201b60201c565b836200093f60201b60201c565b505050565b505050565b6000600660008373ffffffffffffffffffffffffffffffffffffffff1673ffffffffffffffffffffffffffffffffffffffff16815260200190815260200160002060009054906101000a900473ffffffffffffffffffffffffffffffffffffffff169050919050565b8173ffffffffffffffffffffffffffffffffffffffff168373ffffffffffffffffffffffffffffffffffffffff16141580156200097c5750600081115b1562000b5d57600073ffffffffffffffffffffffffffffffffffffffff168373ffffffffffffffffffffffffffffffffffffffff161462000a6f5760008062000a16600760008773ffffffffffffffffffffffffffffffffffffffff1673ffffffffffffffffffffffffffffffffffffffff16815260200190815260200160002062000b6260201b620013f11785620004ea60201b60201c565b915091508473ffffffffffffffffffffffffffffffffffffffff167fdec2bacdd2f05b59de34da9b523dff8be42e5e38e818c82fdb0bae774387a724838360405162000a6492919062001273565b60405180910390a250505b600073ffffffffffffffffffffffffffffffffffffffff168273ffffffffffffffffffffffffffffffffffffffff161462000b5c5760008062000b03600760008673ffffffffffffffffffffffffffffffffffffffff1673ffffffffffffffffffffffffffffffffffffffff168152602001908152602001600020620004d260201b620012ed1785620004ea60201b60201c565b915091508373ffffffffffffffffffffffffffffffffffffffff167fdec2bacdd2f05b59de34da9b523dff8be42e5e38e818c82fdb0bae774387a724838360405162000b5192919062001273565b60405180910390a250505b5b505050565b6000818362000b729190620010d9565b905092915050565b82805462000b8890620012cf565b90600052602060002090601f01602090048101928262000bac576000855562000bf8565b82601f1062000bc757805160ff191683800117855562000bf8565b8280016001018555821562000bf8579182015b8281111562000bf757825182559160200191906001019062000bda565b5b50905062000c07919062000c0b565b5090565b5b8082111562000c2657600081600090555060010162000c0c565b5090565b7f4e487b7100000000000000000000000000000000000000000000000000000000600052601160045260246000fd5b60008160011c9050919050565b6000808291508390505b600185111562000cb85780860481111562000c905762000c8f62000c2a565b5b600185161562000ca05780820291505b808102905062000cb08562000c59565b945062000c70565b94509492505050565b60008262000cd3576001905062000da6565b8162000ce3576000905062000da6565b816001811462000cfc576002811462000d075762000d3d565b600191505062000da6565b60ff84111562000d1c5762000d1b62000c2a565b5b8360020a91508482111562000d365762000d3562000c2a565b5b5062000da6565b5060208310610133831016604e8410600b841016171562000d775782820a90508381111562000d715762000d7062000c2a565b5b62000da6565b62000d86848484600162000c66565b9250905081840481111562000da05762000d9f62000c2a565b5b81810290505b9392505050565b6000819050919050565b600060ff82169050919050565b600062000dd18262000dad565b915062000dde8362000db7565b925062000e0d7fffffffffffffffffffffffffffffffffffffffffffffffffffffffffffffffff848462000cc1565b905092915050565b600062000e228262000dad565b915062000e2f8362000dad565b9250817fffffffffffffffffffffffffffffffffffffffffffffffffffffffffffffffff048311821515161562000e6b5762000e6a62000c2a565b5b828202905092915050565b6000819050919050565b62000e8b8162000e76565b82525050565b62000e9c8162000dad565b82525050565b600073ffffffffffffffffffffffffffffffffffffffff82169050919050565b600062000ecf8262000ea2565b9050919050565b62000ee18162000ec2565b82525050565b600060a08201905062000efe600083018862000e80565b62000f0d602083018762000e80565b62000f1c604083018662000e80565b62000f2b606083018562000e91565b62000f3a608083018462000ed6565b9695505050505050565b600082825260208201905092915050565b7f4552433230566f7465733a20746f74616c20737570706c79207269736b73206f60008201527f766572666c6f77696e6720766f74657300000000000000000000000000000000602082015250565b600062000fb360308362000f44565b915062000fc08262000f55565b604082019050919050565b6000602082019050818103600083015262000fe68162000fa4565b9050919050565b7f45524332303a206d696e7420746f20746865207a65726f206164647265737300600082015250565b600062001025601f8362000f44565b9150620010328262000fed565b602082019050919050565b60006020820190508181036000830152620010588162001016565b9050919050565b60006200106c8262000dad565b9150620010798362000dad565b9250827fffffffffffffffffffffffffffffffffffffffffffffffffffffffffffffffff03821115620010b157620010b062000c2a565b5b828201905092915050565b6000602082019050620010d3600083018462000e91565b92915050565b6000620010e68262000dad565b9150620010f38362000dad565b92508282101562001109576200110862000c2a565b5b828203905092915050565b7f4e487b7100000000000000000000000000000000000000000000000000000000600052603260045260246000fd5b7f53616665436173743a2076616c756520646f65736e27742066697420696e203260008201527f3234206269747300000000000000000000000000000000000000000000000000602082015250565b6000620011a160278362000f44565b9150620011ae8262001143565b604082019050919050565b60006020820190508181036000830152620011d48162001192565b9050919050565b7f53616665436173743a2076616c756520646f65736e27742066697420696e203360008201527f3220626974730000000000000000000000000000000000000000000000000000602082015250565b60006200123960268362000f44565b91506200124682620011db565b604082019050919050565b600060208201905081810360008301526200126c816200122a565b9050919050565b60006040820190506200128a600083018562000e91565b62001299602083018462000e91565b9392505050565b7f4e487b7100000000000000000000000000000000000000000000000000000000600052602260045260246000fd5b60006002820490506001821680620012e857607f821691505b60208210811415620012ff57620012fe620012a0565b5b50919050565b60805160a05160c05160e0516101005161012051613cb0620013556000396000610e6e015260006118b2015260006118f4015260006118d30152600061185f015260006118870152613cb06000f3fe608060405234801561001057600080fd5b50600436106101585760003560e01c806370a08231116100c3578063a457c2d71161007c578063a457c2d714610427578063a9059cbb14610457578063c3cda52014610487578063d505accf146104a3578063dd62ed3e146104bf578063f1127ed8146104ef57610158565b806370a082311461032d57806379cc67901461035d5780637ecebe00146103795780638e539e8c146103a957806395d89b41146103d95780639ab24eb0146103f757610158565b8063395093511161011557806339509351146102355780633a46b1a81461026557806342966c6814610295578063587cde1e146102b15780635c19a95c146102e15780636fcfff45146102fd57610158565b806306fdde031461015d578063095ea7b31461017b57806318160ddd146101ab57806323b872dd146101c9578063313ce567146101f95780633644e51514610217575b600080fd5b61016561051f565b6040516101729190612704565b60405180910390f35b610195600480360381019061019091906127bf565b6105b1565b6040516101a2919061281a565b60405180910390f35b6101b36105cf565b6040516101c09190612844565b60405180910390f35b6101e360048036038101906101de919061285f565b6105d9565b6040516101f0919061281a565b60405180910390f35b6102016106d1565b60405161020e91906128ce565b60405180910390f35b61021f6106da565b60405161022c9190612902565b60405180910390f35b61024f600480360381019061024a91906127bf565b6106e9565b60405161025c919061281a565b60405180910390f35b61027f600480360381019061027a91906127bf565b610795565b60405161028c9190612844565b60405180910390f35b6102af60048036038101906102aa919061291d565b610829565b005b6102cb60048036038101906102c6919061294a565b61083d565b6040516102d89190612986565b60405180910390f35b6102fb60048036038101906102f6919061294a565b6108a6565b005b6103176004803603810190610312919061294a565b6108ba565b60405161032491906129c0565b60405180910390f35b6103476004803603810190610342919061294a565b61090e565b6040516103549190612844565b60405180910390f35b610377600480360381019061037291906127bf565b610956565b005b610393600480360381019061038e919061294a565b6109d1565b6040516103a09190612844565b60405180910390f35b6103c360048036038101906103be919061291d565b610a21565b6040516103d09190612844565b60405180910390f35b6103e1610a77565b6040516103ee9190612704565b60405180910390f35b610411600480360381019061040c919061294a565b610b09565b60405161041e9190612844565b60405180910390f35b610441600480360381019061043c91906127bf565b610c1a565b60405161044e919061281a565b60405180910390f35b610471600480360381019061046c91906127bf565b610d05565b60405161047e919061281a565b60405180910390f35b6104a1600480360381019061049c9190612a33565b610d23565b005b6104bd60048036038101906104b89190612ac0565b610e27565b005b6104d960048036038101906104d49190612b62565b610f69565b6040516104e69190612844565b60405180910390f35b61050960048036038101906105049190612bce565b610ff0565b6040516105169190612c83565b60405180910390f35b60606003805461052e90612ccd565b80601f016020809104026020016040519081016040528092919081815260200182805461055a90612ccd565b80156105a75780601f1061057c576101008083540402835291602001916105a7565b820191906000526020600020905b81548152906001019060200180831161058a57829003601f168201915b5050505050905090565b60006105c56105be611407565b848461140f565b6001905092915050565b6000600254905090565b60006105e68484846115da565b6000600160008673ffffffffffffffffffffffffffffffffffffffff1673ffffffffffffffffffffffffffffffffffffffff1681526020019081526020016000206000610631611407565b73ffffffffffffffffffffffffffffffffffffffff1673ffffffffffffffffffffffffffffffffffffffff168152602001908152602001600020549050828110156106b1576040517f08c379a00000000000000000000000000000000000000000000000000000000081526004016106a890612d71565b60405180910390fd5b6106c5856106bd611407565b85840361140f565b60019150509392505050565b60006012905090565b60006106e461185b565b905090565b600061078b6106f6611407565b848460016000610704611407565b73ffffffffffffffffffffffffffffffffffffffff1673ffffffffffffffffffffffffffffffffffffffff16815260200190815260200160002060008873ffffffffffffffffffffffffffffffffffffffff1673ffffffffffffffffffffffffffffffffffffffff168152602001908152602001600020546107869190612dc0565b61140f565b6001905092915050565b60004382106107d9576040517f08c379a00000000000000000000000000000000000000000000000000000000081526004016107d090612e62565b60405180910390fd5b610821600760008573ffffffffffffffffffffffffffffffffffffffff1673ffffffffffffffffffffffffffffffffffffffff1681526020019081526020016000208361191e565b905092915050565b61083a610834611407565b82611a2a565b50565b6000600660008373ffffffffffffffffffffffffffffffffffffffff1673ffffffffffffffffffffffffffffffffffffffff16815260200190815260200160002060009054906101000a900473ffffffffffffffffffffffffffffffffffffffff169050919050565b6108b76108b1611407565b82611a38565b50565b6000610907600760008473ffffffffffffffffffffffffffffffffffffffff1673ffffffffffffffffffffffffffffffffffffffff1681526020019081526020016000208054905061136e565b9050919050565b60008060008373ffffffffffffffffffffffffffffffffffffffff1673ffffffffffffffffffffffffffffffffffffffff168152602001908152602001600020549050919050565b600061096983610964611407565b610f69565b9050818110156109ae576040517f08c379a00000000000000000000000000000000000000000000000000000000081526004016109a590612ef4565b60405180910390fd5b6109c2836109ba611407565b84840361140f565b6109cc8383611a2a565b505050565b6000610a1a600560008473ffffffffffffffffffffffffffffffffffffffff1673ffffffffffffffffffffffffffffffffffffffff168152602001908152602001600020611b52565b9050919050565b6000438210610a65576040517f08c379a0000000000000000000000000000000000000000000000000000000008152600401610a5c90612e62565b60405180910390fd5b610a7060088361191e565b9050919050565b606060048054610a8690612ccd565b80601f0160208091040260200160405190810160405280929190818152602001828054610ab290612ccd565b8015610aff5780601f10610ad457610100808354040283529160200191610aff565b820191906000526020600020905b815481529060010190602001808311610ae257829003601f168201915b5050505050905090565b600080600760008473ffffffffffffffffffffffffffffffffffffffff1673ffffffffffffffffffffffffffffffffffffffff16815260200190815260200160002080549050905060008114610bf157600760008473ffffffffffffffffffffffffffffffffffffffff1673ffffffffffffffffffffffffffffffffffffffff168152602001908152602001600020600182610ba59190612f14565b81548110610bb657610bb5612f48565b5b9060005260206000200160000160049054906101000a90047bffffffffffffffffffffffffffffffffffffffffffffffffffffffff16610bf4565b60005b7bffffffffffffffffffffffffffffffffffffffffffffffffffffffff16915050919050565b60008060016000610c29611407565b73ffffffffffffffffffffffffffffffffffffffff1673ffffffffffffffffffffffffffffffffffffffff16815260200190815260200160002060008573ffffffffffffffffffffffffffffffffffffffff1673ffffffffffffffffffffffffffffffffffffffff16815260200190815260200160002054905082811015610ce6576040517f08c379a0000000000000000000000000000000000000000000000000000000008152600401610cdd90612fe9565b60405180910390fd5b610cfa610cf1611407565b8585840361140f565b600191505092915050565b6000610d19610d12611407565b84846115da565b6001905092915050565b83421115610d66576040517f08c379a0000000000000000000000000000000000000000000000000000000008152600401610d5d90613055565b60405180910390fd5b6000610dc8610dc07fe48329057bfd03d55e49b547132e39cffd9c1820ad7b9d4c5307691425d15adf898989604051602001610da59493929190613075565b60405160208183030381529060405280519060200120611b60565b858585611b7a565b9050610dd381611ba5565b8614610e14576040517f08c379a0000000000000000000000000000000000000000000000000000000008152600401610e0b90613106565b60405180910390fd5b610e1e8188611a38565b50505050505050565b83421115610e6a576040517f08c379a0000000000000000000000000000000000000000000000000000000008152600401610e6190613172565b60405180910390fd5b60007f0000000000000000000000000000000000000000000000000000000000000000888888610e998c611ba5565b89604051602001610eaf96959493929190613192565b6040516020818303038152906040528051906020012090506000610ed282611b60565b90506000610ee282878787611b7a565b90508973ffffffffffffffffffffffffffffffffffffffff168173ffffffffffffffffffffffffffffffffffffffff1614610f52576040517f08c379a0000000000000000000000000000000000000000000000000000000008152600401610f499061323f565b60405180910390fd5b610f5d8a8a8a61140f565b50505050505050505050565b6000600160008473ffffffffffffffffffffffffffffffffffffffff1673ffffffffffffffffffffffffffffffffffffffff16815260200190815260200160002060008373ffffffffffffffffffffffffffffffffffffffff1673ffffffffffffffffffffffffffffffffffffffff16815260200190815260200160002054905092915050565b610ff861262d565b600760008473ffffffffffffffffffffffffffffffffffffffff1673ffffffffffffffffffffffffffffffffffffffff1681526020019081526020016000208263ffffffff168154811061104f5761104e612f48565b5b906000526020600020016040518060400160405290816000820160009054906101000a900463ffffffff1663ffffffff1663ffffffff1681526020016000820160049054906101000a90047bffffffffffffffffffffffffffffffffffffffffffffffffffffffff167bffffffffffffffffffffffffffffffffffffffffffffffffffffffff167bffffffffffffffffffffffffffffffffffffffffffffffffffffffff1681525050905092915050565b61110a828261118d565b611112611c03565b7bffffffffffffffffffffffffffffffffffffffffffffffffffffffff166111386105cf565b1115611179576040517f08c379a0000000000000000000000000000000000000000000000000000000008152600401611170906132d1565b60405180910390fd5b61118760086112ed83611c27565b50505050565b600073ffffffffffffffffffffffffffffffffffffffff168273ffffffffffffffffffffffffffffffffffffffff1614156111fd576040517f08c379a00000000000000000000000000000000000000000000000000000000081526004016111f49061333d565b60405180910390fd5b61120960008383611e9f565b806002600082825461121b9190612dc0565b92505081905550806000808473ffffffffffffffffffffffffffffffffffffffff1673ffffffffffffffffffffffffffffffffffffffff16815260200190815260200160002060008282546112709190612dc0565b925050819055508173ffffffffffffffffffffffffffffffffffffffff16600073ffffffffffffffffffffffffffffffffffffffff167fddf252ad1be2c89b69c2b068fc378daa952ba7f163c4a11628f55a4df523b3ef836040516112d59190612844565b60405180910390a36112e960008383611ea4565b5050565b600081836112fb9190612dc0565b905092915050565b60007bffffffffffffffffffffffffffffffffffffffffffffffffffffffff8016821115611366576040517f08c379a000000000000000000000000000000000000000000000000000000000815260040161135d906133cf565b60405180910390fd5b819050919050565b600063ffffffff80168211156113b9576040517f08c379a00000000000000000000000000000000000000000000000000000000081526004016113b090613461565b60405180910390fd5b819050919050565b6113cc8383836113ec565b6113e76113d88461083d565b6113e18461083d565b83611eb4565b505050565b505050565b600081836113ff9190612f14565b905092915050565b600033905090565b600073ffffffffffffffffffffffffffffffffffffffff168373ffffffffffffffffffffffffffffffffffffffff16141561147f576040517f08c379a0000000000000000000000000000000000000000000000000000000008152600401611476906134f3565b60405180910390fd5b600073ffffffffffffffffffffffffffffffffffffffff168273ffffffffffffffffffffffffffffffffffffffff1614156114ef576040517f08c379a00000000000000000000000000000000000000000000000000000000081526004016114e690613585565b60405180910390fd5b80600160008573ffffffffffffffffffffffffffffffffffffffff1673ffffffffffffffffffffffffffffffffffffffff16815260200190815260200160002060008473ffffffffffffffffffffffffffffffffffffffff1673ffffffffffffffffffffffffffffffffffffffff168152602001908152602001600020819055508173ffffffffffffffffffffffffffffffffffffffff168373ffffffffffffffffffffffffffffffffffffffff167f8c5be1e5ebec7d5bd14f71427d1e84f3dd0314c0f7b2291e5b200ac8c7c3b925836040516115cd9190612844565b60405180910390a3505050565b600073ffffffffffffffffffffffffffffffffffffffff168373ffffffffffffffffffffffffffffffffffffffff16141561164a576040517f08c379a000000000000000000000000000000000000000000000000000000000815260040161164190613617565b60405180910390fd5b600073ffffffffffffffffffffffffffffffffffffffff168273ffffffffffffffffffffffffffffffffffffffff1614156116ba576040517f08c379a00000000000000000000000000000000000000000000000000000000081526004016116b1906136a9565b60405180910390fd5b6116c5838383611e9f565b60008060008573ffffffffffffffffffffffffffffffffffffffff1673ffffffffffffffffffffffffffffffffffffffff1681526020019081526020016000205490508181101561174b576040517f08c379a00000000000000000000000000000000000000000000000000000000081526004016117429061373b565b60405180910390fd5b8181036000808673ffffffffffffffffffffffffffffffffffffffff1673ffffffffffffffffffffffffffffffffffffffff16815260200190815260200160002081905550816000808573ffffffffffffffffffffffffffffffffffffffff1673ffffffffffffffffffffffffffffffffffffffff16815260200190815260200160002060008282546117de9190612dc0565b925050819055508273ffffffffffffffffffffffffffffffffffffffff168473ffffffffffffffffffffffffffffffffffffffff167fddf252ad1be2c89b69c2b068fc378daa952ba7f163c4a11628f55a4df523b3ef846040516118429190612844565b60405180910390a3611855848484611ea4565b50505050565b60007f00000000000000000000000000000000000000000000000000000000000000004614156118ad577f0000000000000000000000000000000000000000000000000000000000000000905061191b565b6119187f00000000000000000000000000000000000000000000000000000000000000007f00000000000000000000000000000000000000000000000000000000000000007f00000000000000000000000000000000000000000000000000000000000000006120ad565b90505b90565b6000808380549050905060005b8181101561199d57600061193f82846120e7565b90508486828154811061195557611954612f48565b5b9060005260206000200160000160009054906101000a900463ffffffff1663ffffffff16111561198757809250611997565b6001816119949190612dc0565b91505b5061192b565b600082146119ff57846001836119b39190612f14565b815481106119c4576119c3612f48565b5b9060005260206000200160000160049054906101000a90047bffffffffffffffffffffffffffffffffffffffffffffffffffffffff16611a02565b60005b7bffffffffffffffffffffffffffffffffffffffffffffffffffffffff169250505092915050565b611a34828261210d565b5050565b6000611a438361083d565b90506000611a508461090e565b905082600660008673ffffffffffffffffffffffffffffffffffffffff1673ffffffffffffffffffffffffffffffffffffffff16815260200190815260200160002060006101000a81548173ffffffffffffffffffffffffffffffffffffffff021916908373ffffffffffffffffffffffffffffffffffffffff1602179055508273ffffffffffffffffffffffffffffffffffffffff168273ffffffffffffffffffffffffffffffffffffffff168573ffffffffffffffffffffffffffffffffffffffff167f3134e8a2e6d97e929a7e54011ea5485d7d196dd5f0ba4d4ef95803e8e3fc257f60405160405180910390a4611b4c828483611eb4565b50505050565b600081600001549050919050565b6000611b73611b6d61185b565b8361212b565b9050919050565b6000806000611b8b8787878761215e565b91509150611b988161226b565b8192505050949350505050565b600080600560008473ffffffffffffffffffffffffffffffffffffffff1673ffffffffffffffffffffffffffffffffffffffff1681526020019081526020016000209050611bf281611b52565b9150611bfd81612440565b50919050565b60007bffffffffffffffffffffffffffffffffffffffffffffffffffffffff905090565b60008060008580549050905060008114611c955785600182611c499190612f14565b81548110611c5a57611c59612f48565b5b9060005260206000200160000160049054906101000a90047bffffffffffffffffffffffffffffffffffffffffffffffffffffffff16611c98565b60005b7bffffffffffffffffffffffffffffffffffffffffffffffffffffffff169250611cc683858763ffffffff16565b9150600081118015611d1957504386600183611ce29190612f14565b81548110611cf357611cf2612f48565b5b9060005260206000200160000160009054906101000a900463ffffffff1663ffffffff16145b15611da657611d2782611303565b86600183611d359190612f14565b81548110611d4657611d45612f48565b5b9060005260206000200160000160046101000a8154817bffffffffffffffffffffffffffffffffffffffffffffffffffffffff02191690837bffffffffffffffffffffffffffffffffffffffffffffffffffffffff160217905550611e96565b856040518060400160405280611dbb4361136e565b63ffffffff168152602001611dcf85611303565b7bffffffffffffffffffffffffffffffffffffffffffffffffffffffff168152509080600181540180825580915050600190039060005260206000200160009091909190915060008201518160000160006101000a81548163ffffffff021916908363ffffffff16021790555060208201518160000160046101000a8154817bffffffffffffffffffffffffffffffffffffffffffffffffffffffff02191690837bffffffffffffffffffffffffffffffffffffffffffffffffffffffff16021790555050505b50935093915050565b505050565b611eaf8383836113c1565b505050565b8173ffffffffffffffffffffffffffffffffffffffff168373ffffffffffffffffffffffffffffffffffffffff1614158015611ef05750600081115b156120a857600073ffffffffffffffffffffffffffffffffffffffff168373ffffffffffffffffffffffffffffffffffffffff1614611fce57600080611f77600760008773ffffffffffffffffffffffffffffffffffffffff1673ffffffffffffffffffffffffffffffffffffffff1681526020019081526020016000206113f185611c27565b915091508473ffffffffffffffffffffffffffffffffffffffff167fdec2bacdd2f05b59de34da9b523dff8be42e5e38e818c82fdb0bae774387a7248383604051611fc392919061375b565b60405180910390a250505b600073ffffffffffffffffffffffffffffffffffffffff168273ffffffffffffffffffffffffffffffffffffffff16146120a757600080612050600760008673ffffffffffffffffffffffffffffffffffffffff1673ffffffffffffffffffffffffffffffffffffffff1681526020019081526020016000206112ed85611c27565b915091508373ffffffffffffffffffffffffffffffffffffffff167fdec2bacdd2f05b59de34da9b523dff8be42e5e38e818c82fdb0bae774387a724838360405161209c92919061375b565b60405180910390a250505b5b505050565b600083838346306040516020016120c8959493929190613784565b6040516020818303038152906040528051906020012090509392505050565b600060028284186120f89190613806565b8284166121059190612dc0565b905092915050565b6121178282612456565b61212560086113f183611c27565b50505050565b600082826040516020016121409291906138af565b60405160208183030381529060405280519060200120905092915050565b6000807f7fffffffffffffffffffffffffffffff5d576e7357a4501ddfe92f46681b20a08360001c1115612199576000600391509150612262565b601b8560ff16141580156121b15750601c8560ff1614155b156121c3576000600491509150612262565b6000600187878787604051600081526020016040526040516121e894939291906138e6565b6020604051602081039080840390855afa15801561220a573d6000803e3d6000fd5b505050602060405103519050600073ffffffffffffffffffffffffffffffffffffffff168173ffffffffffffffffffffffffffffffffffffffff16141561225957600060019250925050612262565b80600092509250505b94509492505050565b6000600481111561227f5761227e61392b565b5b8160048111156122925761229161392b565b5b141561229d5761243d565b600160048111156122b1576122b061392b565b5b8160048111156122c4576122c361392b565b5b1415612305576040517f08c379a00000000000000000000000000000000000000000000000000000000081526004016122fc906139a6565b60405180910390fd5b600260048111156123195761231861392b565b5b81600481111561232c5761232b61392b565b5b141561236d576040517f08c379a000000000000000000000000000000000000000000000000000000000815260040161236490613a12565b60405180910390fd5b600360048111156123815761238061392b565b5b8160048111156123945761239361392b565b5b14156123d5576040517f08c379a00000000000000000000000000000000000000000000000000000000081526004016123cc90613aa4565b60405180910390fd5b6004808111156123e8576123e761392b565b5b8160048111156123fb576123fa61392b565b5b141561243c576040517f08c379a000000000000000000000000000000000000000000000000000000000815260040161243390613b36565b60405180910390fd5b5b50565b6001816000016000828254019250508190555050565b600073ffffffffffffffffffffffffffffffffffffffff168273ffffffffffffffffffffffffffffffffffffffff1614156124c6576040517f08c379a00000000000000000000000000000000000000000000000000000000081526004016124bd90613bc8565b60405180910390fd5b6124d282600083611e9f565b60008060008473ffffffffffffffffffffffffffffffffffffffff1673ffffffffffffffffffffffffffffffffffffffff16815260200190815260200160002054905081811015612558576040517f08c379a000000000000000000000000000000000000000000000000000000000815260040161254f90613c5a565b60405180910390fd5b8181036000808573ffffffffffffffffffffffffffffffffffffffff1673ffffffffffffffffffffffffffffffffffffffff1681526020019081526020016000208190555081600260008282546125af9190612f14565b92505081905550600073ffffffffffffffffffffffffffffffffffffffff168373ffffffffffffffffffffffffffffffffffffffff167fddf252ad1be2c89b69c2b068fc378daa952ba7f163c4a11628f55a4df523b3ef846040516126149190612844565b60405180910390a361262883600084611ea4565b505050565b6040518060400160405280600063ffffffff16815260200160007bffffffffffffffffffffffffffffffffffffffffffffffffffffffff1681525090565b600081519050919050565b600082825260208201905092915050565b60005b838110156126a557808201518184015260208101905061268a565b838111156126b4576000848401525b50505050565b6000601f19601f8301169050919050565b60006126d68261266b565b6126e08185612676565b93506126f0818560208601612687565b6126f9816126ba565b840191505092915050565b6000602082019050818103600083015261271e81846126cb565b905092915050565b600080fd5b600073ffffffffffffffffffffffffffffffffffffffff82169050919050565b60006127568261272b565b9050919050565b6127668161274b565b811461277157600080fd5b50565b6000813590506127838161275d565b92915050565b6000819050919050565b61279c81612789565b81146127a757600080fd5b50565b6000813590506127b981612793565b92915050565b600080604083850312156127d6576127d5612726565b5b60006127e485828601612774565b92505060206127f5858286016127aa565b9150509250929050565b60008115159050919050565b612814816127ff565b82525050565b600060208201905061282f600083018461280b565b92915050565b61283e81612789565b82525050565b60006020820190506128596000830184612835565b92915050565b60008060006060848603121561287857612877612726565b5b600061288686828701612774565b935050602061289786828701612774565b92505060406128a8868287016127aa565b9150509250925092565b600060ff82169050919050565b6128c8816128b2565b82525050565b60006020820190506128e360008301846128bf565b92915050565b6000819050919050565b6128fc816128e9565b82525050565b600060208201905061291760008301846128f3565b92915050565b60006020828403121561293357612932612726565b5b6000612941848285016127aa565b91505092915050565b6000602082840312156129605761295f612726565b5b600061296e84828501612774565b91505092915050565b6129808161274b565b82525050565b600060208201905061299b6000830184612977565b92915050565b600063ffffffff82169050919050565b6129ba816129a1565b82525050565b60006020820190506129d560008301846129b1565b92915050565b6129e4816128b2565b81146129ef57600080fd5b50565b600081359050612a01816129db565b92915050565b612a10816128e9565b8114612a1b57600080fd5b50565b600081359050612a2d81612a07565b92915050565b60008060008060008060c08789031215612a5057612a4f612726565b5b6000612a5e89828a01612774565b9650506020612a6f89828a016127aa565b9550506040612a8089828a016127aa565b9450506060612a9189828a016129f2565b9350506080612aa289828a01612a1e565b92505060a0612ab389828a01612a1e565b9150509295509295509295565b600080600080600080600060e0888a031215612adf57612ade612726565b5b6000612aed8a828b01612774565b9750506020612afe8a828b01612774565b9650506040612b0f8a828b016127aa565b9550506060612b208a828b016127aa565b9450506080612b318a828b016129f2565b93505060a0612b428a828b01612a1e565b92505060c0612b538a828b01612a1e565b91505092959891949750929550565b60008060408385031215612b7957612b78612726565b5b6000612b8785828601612774565b9250506020612b9885828601612774565b9150509250929050565b612bab816129a1565b8114612bb657600080fd5b50565b600081359050612bc881612ba2565b92915050565b60008060408385031215612be557612be4612726565b5b6000612bf385828601612774565b9250506020612c0485828601612bb9565b9150509250929050565b612c17816129a1565b82525050565b60007bffffffffffffffffffffffffffffffffffffffffffffffffffffffff82169050919050565b612c4e81612c1d565b82525050565b604082016000820151612c6a6000850182612c0e565b506020820151612c7d6020850182612c45565b50505050565b6000604082019050612c986000830184612c54565b92915050565b7f4e487b7100000000000000000000000000000000000000000000000000000000600052602260045260246000fd5b60006002820490506001821680612ce557607f821691505b60208210811415612cf957612cf8612c9e565b5b50919050565b7f45524332303a207472616e7366657220616d6f756e742065786365656473206160008201527f6c6c6f77616e6365000000000000000000000000000000000000000000000000602082015250565b6000612d5b602883612676565b9150612d6682612cff565b604082019050919050565b60006020820190508181036000830152612d8a81612d4e565b9050919050565b7f4e487b7100000000000000000000000000000000000000000000000000000000600052601160045260246000fd5b6000612dcb82612789565b9150612dd683612789565b9250827fffffffffffffffffffffffffffffffffffffffffffffffffffffffffffffffff03821115612e0b57612e0a612d91565b5b828201905092915050565b7f4552433230566f7465733a20626c6f636b206e6f7420796574206d696e656400600082015250565b6000612e4c601f83612676565b9150612e5782612e16565b602082019050919050565b60006020820190508181036000830152612e7b81612e3f565b9050919050565b7f45524332303a206275726e20616d6f756e74206578636565647320616c6c6f7760008201527f616e636500000000000000000000000000000000000000000000000000000000602082015250565b6000612ede602483612676565b9150612ee982612e82565b604082019050919050565b60006020820190508181036000830152612f0d81612ed1565b9050919050565b6000612f1f82612789565b9150612f2a83612789565b925082821015612f3d57612f3c612d91565b5b828203905092915050565b7f4e487b7100000000000000000000000000000000000000000000000000000000600052603260045260246000fd5b7f45524332303a2064656372656173656420616c6c6f77616e63652062656c6f7760008201527f207a65726f000000000000000000000000000000000000000000000000000000602082015250565b6000612fd3602583612676565b9150612fde82612f77565b604082019050919050565b6000602082019050818103600083015261300281612fc6565b9050919050565b7f4552433230566f7465733a207369676e61747572652065787069726564000000600082015250565b600061303f601d83612676565b915061304a82613009565b602082019050919050565b6000602082019050818103600083015261306e81613032565b9050919050565b600060808201905061308a60008301876128f3565b6130976020830186612977565b6130a46040830185612835565b6130b16060830184612835565b95945050505050565b7f4552433230566f7465733a20696e76616c6964206e6f6e636500000000000000600082015250565b60006130f0601983612676565b91506130fb826130ba565b602082019050919050565b6000602082019050818103600083015261311f816130e3565b9050919050565b7f45524332305065726d69743a206578706972656420646561646c696e65000000600082015250565b600061315c601d83612676565b915061316782613126565b602082019050919050565b6000602082019050818103600083015261318b8161314f565b9050919050565b600060c0820190506131a760008301896128f3565b6131b46020830188612977565b6131c16040830187612977565b6131ce6060830186612835565b6131db6080830185612835565b6131e860a0830184612835565b979650505050505050565b7f45524332305065726d69743a20696e76616c6964207369676e61747572650000600082015250565b6000613229601e83612676565b9150613234826131f3565b602082019050919050565b600060208201905081810360008301526132588161321c565b9050919050565b7f4552433230566f7465733a20746f74616c20737570706c79207269736b73206f60008201527f766572666c6f77696e6720766f74657300000000000000000000000000000000602082015250565b60006132bb603083612676565b91506132c68261325f565b604082019050919050565b600060208201905081810360008301526132ea816132ae565b9050919050565b7f45524332303a206d696e7420746f20746865207a65726f206164647265737300600082015250565b6000613327601f83612676565b9150613332826132f1565b602082019050919050565b600060208201905081810360008301526133568161331a565b9050919050565b7f53616665436173743a2076616c756520646f65736e27742066697420696e203260008201527f3234206269747300000000000000000000000000000000000000000000000000602082015250565b60006133b9602783612676565b91506133c48261335d565b604082019050919050565b600060208201905081810360008301526133e8816133ac565b9050919050565b7f53616665436173743a2076616c756520646f65736e27742066697420696e203360008201527f3220626974730000000000000000000000000000000000000000000000000000602082015250565b600061344b602683612676565b9150613456826133ef565b604082019050919050565b6000602082019050818103600083015261347a8161343e565b9050919050565b7f45524332303a20617070726f76652066726f6d20746865207a65726f2061646460008201527f7265737300000000000000000000000000000000000000000000000000000000602082015250565b60006134dd602483612676565b91506134e882613481565b604082019050919050565b6000602082019050818103600083015261350c816134d0565b9050919050565b7f45524332303a20617070726f766520746f20746865207a65726f20616464726560008201527f7373000000000000000000000000000000000000000000000000000000000000602082015250565b600061356f602283612676565b915061357a82613513565b604082019050919050565b6000602082019050818103600083015261359e81613562565b9050919050565b7f45524332303a207472616e736665722066726f6d20746865207a65726f20616460008201527f6472657373000000000000000000000000000000000000000000000000000000602082015250565b6000613601602583612676565b915061360c826135a5565b604082019050919050565b60006020820190508181036000830152613630816135f4565b9050919050565b7f45524332303a207472616e7366657220746f20746865207a65726f206164647260008201527f6573730000000000000000000000000000000000000000000000000000000000602082015250565b6000613693602383612676565b915061369e82613637565b604082019050919050565b600060208201905081810360008301526136c281613686565b9050919050565b7f45524332303a207472616e7366657220616d6f756e742065786365656473206260008201527f616c616e63650000000000000000000000000000000000000000000000000000602082015250565b6000613725602683612676565b9150613730826136c9565b604082019050919050565b6000602082019050818103600083015261375481613718565b9050919050565b60006040820190506137706000830185612835565b61377d6020830184612835565b9392505050565b600060a08201905061379960008301886128f3565b6137a660208301876128f3565b6137b360408301866128f3565b6137c06060830185612835565b6137cd6080830184612977565b9695505050505050565b7f4e487b7100000000000000000000000000000000000000000000000000000000600052601260045260246000fd5b600061381182612789565b915061381c83612789565b92508261382c5761382b6137d7565b5b828204905092915050565b600081905092915050565b7f1901000000000000000000000000000000000000000000000000000000000000600082015250565b6000613878600283613837565b915061388382613842565b600282019050919050565b6000819050919050565b6138a96138a4826128e9565b61388e565b82525050565b60006138ba8261386b565b91506138c68285613898565b6020820191506138d68284613898565b6020820191508190509392505050565b60006080820190506138fb60008301876128f3565b61390860208301866128bf565b61391560408301856128f3565b61392260608301846128f3565b95945050505050565b7f4e487b7100000000000000000000000000000000000000000000000000000000600052602160045260246000fd5b7f45434453413a20696e76616c6964207369676e61747572650000000000000000600082015250565b6000613990601883612676565b915061399b8261395a565b602082019050919050565b600060208201905081810360008301526139bf81613983565b9050919050565b7f45434453413a20696e76616c6964207369676e6174757265206c656e67746800600082015250565b60006139fc601f83612676565b9150613a07826139c6565b602082019050919050565b60006020820190508181036000830152613a2b816139ef565b9050919050565b7f45434453413a20696e76616c6964207369676e6174757265202773272076616c60008201527f7565000000000000000000000000000000000000000000000000000000000000602082015250565b6000613a8e602283612676565b9150613a9982613a32565b604082019050919050565b60006020820190508181036000830152613abd81613a81565b9050919050565b7f45434453413a20696e76616c6964207369676e6174757265202776272076616c60008201527f7565000000000000000000000000000000000000000000000000000000000000602082015250565b6000613b20602283612676565b9150613b2b82613ac4565b604082019050919050565b60006020820190508181036000830152613b4f81613b13565b9050919050565b7f45524332303a206275726e2066726f6d20746865207a65726f2061646472657360008201527f7300000000000000000000000000000000000000000000000000000000000000602082015250565b6000613bb2602183612676565b9150613bbd82613b56565b604082019050919050565b60006020820190508181036000830152613be181613ba5565b9050919050565b7f45524332303a206275726e20616d6f756e7420657863656564732062616c616e60008201527f6365000000000000000000000000000000000000000000000000000000000000602082015250565b6000613c44602283612676565b9150613c4f82613be8565b604082019050919050565b60006020820190508181036000830152613c7381613c37565b905091905056fea2646970667358221220efa1a9bde3e75d9cf71430c2252a40356284be0d4e08008fe71fa54bceb5e07b64736f6c63430008090033",
  "immutableReferences": {
    "2872": [
      {
        "length": 32,
        "start": 3694
      }
    ],
    "4029": [
      {
        "length": 32,
        "start": 6279
      }
    ],
    "4031": [
      {
        "length": 32,
        "start": 6239
      }
    ],
    "4033": [
      {
        "length": 32,
        "start": 6355
      }
    ],
    "4035": [
      {
        "length": 32,
        "start": 6388
      }
    ],
    "4037": [
      {
        "length": 32,
        "start": 6322
      }
    ]
  },
  "source": "// SPDX-License-Identifier: MIT\npragma solidity >=0.4.22 <0.9.0;\n\nimport \"@openzeppelin/contracts/token/ERC20/ERC20.sol\";\nimport \"@openzeppelin/contracts/token/ERC20/extensions/ERC20Burnable.sol\";\nimport \"@openzeppelin/contracts/token/ERC20/extensions/draft-ERC20Permit.sol\";\nimport \"@openzeppelin/contracts/token/ERC20/extensions/ERC20Votes.sol\";\n\ncontract Chichi is ERC20, ERC20Burnable, ERC20Permit, ERC20Votes {\n  constructor() ERC20(\"CHICHI Inu\", \"CHICHI\") ERC20Permit(\"Chichi Inu\") {\n    _mint(msg.sender, 1000000000000 * 10 ** decimals());\n  }\n\n  // Solidity required overrides\n\n  function _afterTokenTransfer(address from, address to, uint256 amount)\n    internal\n    override(ERC20, ERC20Votes)\n  {\n    super._afterTokenTransfer(from, to, amount);\n  }\n\n  function _mint(address to, uint256 amount)\n    internal\n    override(ERC20, ERC20Votes)\n  {\n    super._mint(to, amount);\n  }\n\n  function _burn(address account, uint256 amount)\n    internal\n    override(ERC20, ERC20Votes)\n  {\n    super._burn(account, amount);\n  }\n}",
  "sourcePath": "/Volumes/Storage/Workspace/Projects/Inu/contracts/contracts/CHICHI.sol",
  "compiler": {
    "name": "solc",
    "version": "0.8.9+commit.e5eed63a.Emscripten.clang"
  },
  "schemaVersion": "3.4.3",
  "updatedAt": "2021-11-06T19:52:18.089Z",
  "networkType": "ethereum",
  "devdoc": {
    "kind": "dev",
    "methods": {
      "DOMAIN_SEPARATOR()": {
        "details": "See {IERC20Permit-DOMAIN_SEPARATOR}."
      },
      "allowance(address,address)": {
        "details": "See {IERC20-allowance}."
      },
      "approve(address,uint256)": {
        "details": "See {IERC20-approve}. Requirements: - `spender` cannot be the zero address."
      },
      "balanceOf(address)": {
        "details": "See {IERC20-balanceOf}."
      },
      "burn(uint256)": {
        "details": "Destroys `amount` tokens from the caller. See {ERC20-_burn}."
      },
      "burnFrom(address,uint256)": {
        "details": "Destroys `amount` tokens from `account`, deducting from the caller's allowance. See {ERC20-_burn} and {ERC20-allowance}. Requirements: - the caller must have allowance for ``accounts``'s tokens of at least `amount`."
      },
      "checkpoints(address,uint32)": {
        "details": "Get the `pos`-th checkpoint for `account`."
      },
      "decimals()": {
        "details": "Returns the number of decimals used to get its user representation. For example, if `decimals` equals `2`, a balance of `505` tokens should be displayed to a user as `5.05` (`505 / 10 ** 2`). Tokens usually opt for a value of 18, imitating the relationship between Ether and Wei. This is the value {ERC20} uses, unless this function is overridden; NOTE: This information is only used for _display_ purposes: it in no way affects any of the arithmetic of the contract, including {IERC20-balanceOf} and {IERC20-transfer}."
      },
      "decreaseAllowance(address,uint256)": {
        "details": "Atomically decreases the allowance granted to `spender` by the caller. This is an alternative to {approve} that can be used as a mitigation for problems described in {IERC20-approve}. Emits an {Approval} event indicating the updated allowance. Requirements: - `spender` cannot be the zero address. - `spender` must have allowance for the caller of at least `subtractedValue`."
      },
      "delegate(address)": {
        "details": "Delegate votes from the sender to `delegatee`."
      },
      "delegateBySig(address,uint256,uint256,uint8,bytes32,bytes32)": {
        "details": "Delegates votes from signer to `delegatee`"
      },
      "delegates(address)": {
        "details": "Get the address `account` is currently delegating to."
      },
      "getPastTotalSupply(uint256)": {
        "details": "Retrieve the `totalSupply` at the end of `blockNumber`. Note, this value is the sum of all balances. It is but NOT the sum of all the delegated votes! Requirements: - `blockNumber` must have been already mined"
      },
      "getPastVotes(address,uint256)": {
        "details": "Retrieve the number of votes for `account` at the end of `blockNumber`. Requirements: - `blockNumber` must have been already mined"
      },
      "getVotes(address)": {
        "details": "Gets the current votes balance for `account`"
      },
      "increaseAllowance(address,uint256)": {
        "details": "Atomically increases the allowance granted to `spender` by the caller. This is an alternative to {approve} that can be used as a mitigation for problems described in {IERC20-approve}. Emits an {Approval} event indicating the updated allowance. Requirements: - `spender` cannot be the zero address."
      },
      "name()": {
        "details": "Returns the name of the token."
      },
      "nonces(address)": {
        "details": "See {IERC20Permit-nonces}."
      },
      "numCheckpoints(address)": {
        "details": "Get number of checkpoints for `account`."
      },
      "permit(address,address,uint256,uint256,uint8,bytes32,bytes32)": {
        "details": "See {IERC20Permit-permit}."
      },
      "symbol()": {
        "details": "Returns the symbol of the token, usually a shorter version of the name."
      },
      "totalSupply()": {
        "details": "See {IERC20-totalSupply}."
      },
      "transfer(address,uint256)": {
        "details": "See {IERC20-transfer}. Requirements: - `recipient` cannot be the zero address. - the caller must have a balance of at least `amount`."
      },
      "transferFrom(address,address,uint256)": {
        "details": "See {IERC20-transferFrom}. Emits an {Approval} event indicating the updated allowance. This is not required by the EIP. See the note at the beginning of {ERC20}. Requirements: - `sender` and `recipient` cannot be the zero address. - `sender` must have a balance of at least `amount`. - the caller must have allowance for ``sender``'s tokens of at least `amount`."
      }
    },
    "version": 1
  },
  "userdoc": {
    "kind": "user",
    "methods": {},
    "version": 1
  }
}