{
  "contractName": "CHICHIAdoptionCenter",
  "abi": [
    {
      "inputs": [
        {
          "internalType": "contract ERC20",
          "name": "token",
          "type": "address"
        },
        {
          "internalType": "uint256",
          "name": "startingAt",
          "type": "uint256"
        },
        {
          "internalType": "uint256",
          "name": "activeDuration",
          "type": "uint256"
        },
        {
          "internalType": "address",
          "name": "treasuryAddress",
          "type": "address"
        }
      ],
      "stateMutability": "nonpayable",
      "type": "constructor"
    },
    {
      "anonymous": false,
      "inputs": [
        {
          "indexed": true,
          "internalType": "address",
          "name": "adopter",
          "type": "address"
        },
        {
          "indexed": false,
          "internalType": "uint256",
          "name": "numberOfChichis",
          "type": "uint256"
        }
      ],
      "name": "Adopted",
      "type": "event"
    },
    {
      "anonymous": false,
      "inputs": [
        {
          "indexed": true,
          "internalType": "address",
          "name": "previousOwner",
          "type": "address"
        },
        {
          "indexed": true,
          "internalType": "address",
          "name": "newOwner",
          "type": "address"
        }
      ],
      "name": "OwnershipTransferred",
      "type": "event"
    },
    {
      "anonymous": false,
      "inputs": [
        {
          "indexed": false,
          "internalType": "uint256",
          "name": "numberOfChichis",
          "type": "uint256"
        }
      ],
      "name": "TransferredToTreasury",
      "type": "event"
    },
    {
      "inputs": [],
      "name": "owner",
      "outputs": [
        {
          "internalType": "address",
          "name": "",
          "type": "address"
        }
      ],
      "stateMutability": "view",
      "type": "function",
      "constant": true
    },
    {
      "inputs": [],
      "name": "renounceOwnership",
      "outputs": [],
      "stateMutability": "nonpayable",
      "type": "function"
    },
    {
      "inputs": [
        {
          "internalType": "address",
          "name": "newOwner",
          "type": "address"
        }
      ],
      "name": "transferOwnership",
      "outputs": [],
      "stateMutability": "nonpayable",
      "type": "function"
    },
    {
      "inputs": [],
      "name": "startingBlock",
      "outputs": [
        {
          "internalType": "uint256",
          "name": "",
          "type": "uint256"
        }
      ],
      "stateMutability": "view",
      "type": "function",
      "constant": true
    },
    {
      "inputs": [],
      "name": "activeForNumberOfBlocks",
      "outputs": [
        {
          "internalType": "uint256",
          "name": "",
          "type": "uint256"
        }
      ],
      "stateMutability": "view",
      "type": "function",
      "constant": true
    },
    {
      "inputs": [],
      "name": "endingBlock",
      "outputs": [
        {
          "internalType": "uint256",
          "name": "",
          "type": "uint256"
        }
      ],
      "stateMutability": "view",
      "type": "function",
      "constant": true
    },
    {
      "inputs": [],
      "name": "hasStarted",
      "outputs": [
        {
          "internalType": "bool",
          "name": "",
          "type": "bool"
        }
      ],
      "stateMutability": "view",
      "type": "function",
      "constant": true
    },
    {
      "inputs": [],
      "name": "hasEnded",
      "outputs": [
        {
          "internalType": "bool",
          "name": "",
          "type": "bool"
        }
      ],
      "stateMutability": "view",
      "type": "function",
      "constant": true
    },
    {
      "inputs": [],
      "name": "name",
      "outputs": [
        {
          "internalType": "string",
          "name": "",
          "type": "string"
        }
      ],
      "stateMutability": "pure",
      "type": "function",
      "constant": true
    },
    {
      "inputs": [],
      "name": "treasury",
      "outputs": [
        {
          "internalType": "address",
          "name": "",
          "type": "address"
        }
      ],
      "stateMutability": "view",
      "type": "function",
      "constant": true
    },
    {
      "inputs": [],
      "name": "balance",
      "outputs": [
        {
          "internalType": "uint256",
          "name": "",
          "type": "uint256"
        }
      ],
      "stateMutability": "view",
      "type": "function",
      "constant": true
    },
    {
      "inputs": [],
      "name": "numberOfAdoptions",
      "outputs": [
        {
          "internalType": "uint256",
          "name": "",
          "type": "uint256"
        }
      ],
      "stateMutability": "view",
      "type": "function",
      "constant": true
    },
    {
      "inputs": [
        {
          "internalType": "address",
          "name": "sender",
          "type": "address"
        }
      ],
      "name": "numberOfChichisToAdopt",
      "outputs": [
        {
          "internalType": "uint256",
          "name": "",
          "type": "uint256"
        }
      ],
      "stateMutability": "view",
      "type": "function",
      "constant": true
    },
    {
      "inputs": [
        {
          "internalType": "address",
          "name": "sender",
          "type": "address"
        }
      ],
      "name": "hasAdopted",
      "outputs": [
        {
          "internalType": "bool",
          "name": "",
          "type": "bool"
        }
      ],
      "stateMutability": "view",
      "type": "function",
      "constant": true
    },
    {
      "inputs": [
        {
          "internalType": "address",
          "name": "sender",
          "type": "address"
        }
      ],
      "name": "adoption",
      "outputs": [
        {
          "internalType": "uint256",
          "name": "",
          "type": "uint256"
        }
      ],
      "stateMutability": "view",
      "type": "function",
      "constant": true
    },
    {
      "inputs": [],
      "name": "adopt",
      "outputs": [],
      "stateMutability": "nonpayable",
      "type": "function"
    },
    {
      "inputs": [],
      "name": "transferRemainingBalanceToTreasury",
      "outputs": [],
      "stateMutability": "nonpayable",
      "type": "function"
    }
  ],
  "bytecode": "0x60806040523480156200001157600080fd5b5060405162001ca038038062001ca083398181016040528101906200003791906200031a565b620000576200004b6200016460201b60201c565b6200016c60201b60201c565b600073ffffffffffffffffffffffffffffffffffffffff168173ffffffffffffffffffffffffffffffffffffffff161415620000ca576040517f08c379a0000000000000000000000000000000000000000000000000000000008152600401620000c19062000413565b60405180910390fd5b83600160006101000a81548173ffffffffffffffffffffffffffffffffffffffff021916908373ffffffffffffffffffffffffffffffffffffffff160217905550826002819055508160038190555080600460006101000a81548173ffffffffffffffffffffffffffffffffffffffff021916908373ffffffffffffffffffffffffffffffffffffffff1602179055505050505062000435565b600033905090565b60008060009054906101000a900473ffffffffffffffffffffffffffffffffffffffff169050816000806101000a81548173ffffffffffffffffffffffffffffffffffffffff021916908373ffffffffffffffffffffffffffffffffffffffff1602179055508173ffffffffffffffffffffffffffffffffffffffff168173ffffffffffffffffffffffffffffffffffffffff167f8be0079c531659141344cd1fd0a4f28419497f9722a3daafe3b4186f6b6457e060405160405180910390a35050565b600080fd5b600073ffffffffffffffffffffffffffffffffffffffff82169050919050565b6000620002628262000235565b9050919050565b6000620002768262000255565b9050919050565b620002888162000269565b81146200029457600080fd5b50565b600081519050620002a8816200027d565b92915050565b6000819050919050565b620002c381620002ae565b8114620002cf57600080fd5b50565b600081519050620002e381620002b8565b92915050565b620002f48162000255565b81146200030057600080fd5b50565b6000815190506200031481620002e9565b92915050565b6000806000806080858703121562000337576200033662000230565b5b6000620003478782880162000297565b94505060206200035a87828801620002d2565b93505060406200036d87828801620002d2565b9250506060620003808782880162000303565b91505092959194509250565b600082825260208201905092915050565b7f547265617375727920616464726573732063616e6e6f7420626520746865207a60008201527f65726f2061646472657373000000000000000000000000000000000000000000602082015250565b6000620003fb602b836200038c565b915062000408826200039d565b604082019050919050565b600060208201905081810360008301526200042e81620003ec565b9050919050565b61185b80620004456000396000f3fe608060405234801561001057600080fd5b506004361061010b5760003560e01c80637b1f337d116100a2578063b69ef8a811610071578063b69ef8a814610260578063caa510cb1461027e578063d91c98d3146102ae578063ecb70fb7146102cc578063f2fde38b146102ea5761010b565b80637b1f337d146102105780638da5cb5b1461022e578063b0f5d8a41461024c578063b29e259c146102565761010b565b806344691f7e116100de57806344691f7e1461019a57806361d027b3146101b857806364a03748146101d6578063715018a6146102065761010b565b806306fdde03146101105780630ff6cfba1461012e5780632d0a35aa1461014c578063335743681461017c575b600080fd5b610118610306565b6040516101259190610e71565b60405180910390f35b610136610343565b6040516101439190610eac565b60405180910390f35b61016660048036038101906101619190610f2a565b610354565b6040516101739190610eac565b60405180910390f35b61018461039d565b6040516101919190610eac565b60405180910390f35b6101a26103a7565b6040516101af9190610f72565b60405180910390f35b6101c06103b4565b6040516101cd9190610f9c565b60405180910390f35b6101f060048036038101906101eb9190610f2a565b6103de565b6040516101fd9190610f72565b60405180910390f35b61020e610429565b005b6102186104b1565b6040516102259190610eac565b60405180910390f35b6102366104c8565b6040516102439190610f9c565b60405180910390f35b6102546104f1565b005b61025e610805565b005b610268610a14565b6040516102759190610eac565b60405180910390f35b61029860048036038101906102939190610f2a565b610ab7565b6040516102a59190610eac565b60405180910390f35b6102b6610bd5565b6040516102c39190610eac565b60405180910390f35b6102d4610bdf565b6040516102e19190610f72565b60405180910390f35b61030460048036038101906102ff9190610f2a565b610bf0565b005b60606040518060400160405280601681526020017f4348494348492041646f7074696f6e2043656e74657200000000000000000000815250905090565b600061034f6005610ce8565b905090565b6000600660008373ffffffffffffffffffffffffffffffffffffffff1673ffffffffffffffffffffffffffffffffffffffff168152602001908152602001600020549050919050565b6000600354905090565b6000600254431015905090565b6000600460009054906101000a900473ffffffffffffffffffffffffffffffffffffffff16905090565b600080600660008473ffffffffffffffffffffffffffffffffffffffff1673ffffffffffffffffffffffffffffffffffffffff16815260200190815260200160002054119050919050565b610431610cf6565b73ffffffffffffffffffffffffffffffffffffffff1661044f6104c8565b73ffffffffffffffffffffffffffffffffffffffff16146104a5576040517f08c379a000000000000000000000000000000000000000000000000000000000815260040161049c90611003565b60405180910390fd5b6104af6000610cfe565b565b60006003546002546104c39190611052565b905090565b60008060009054906101000a900473ffffffffffffffffffffffffffffffffffffffff16905090565b60006104fb610cf6565b90506000151561050a826103de565b15151461054c576040517f08c379a0000000000000000000000000000000000000000000000000000000008152600401610543906110f4565b60405180910390fd5b60001515610558610bdf565b15151461059a576040517f08c379a000000000000000000000000000000000000000000000000000000000815260040161059190611160565b60405180910390fd5b6105a26103a7565b6105e1576040517f08c379a00000000000000000000000000000000000000000000000000000000081526004016105d8906111cc565b60405180910390fd5b60006105eb610a14565b905060008111610630576040517f08c379a00000000000000000000000000000000000000000000000000000000081526004016106279061125e565b60405180910390fd5b600061063b83610ab7565b905060008111610680576040517f08c379a0000000000000000000000000000000000000000000000000000000008152600401610677906112f0565b60405180910390fd5b808210156106c3576040517f08c379a00000000000000000000000000000000000000000000000000000000081526004016106ba90611382565b60405180910390fd5b600160009054906101000a900473ffffffffffffffffffffffffffffffffffffffff1673ffffffffffffffffffffffffffffffffffffffff1663a9059cbb84836040518363ffffffff1660e01b81526004016107209291906113a2565b6020604051808303816000875af115801561073f573d6000803e3d6000fd5b505050506040513d601f19601f8201168201806040525081019061076391906113f7565b5080600660008573ffffffffffffffffffffffffffffffffffffffff1673ffffffffffffffffffffffffffffffffffffffff168152602001908152602001600020819055506107b26005610dc2565b8273ffffffffffffffffffffffffffffffffffffffff167f6aece32ac472e8b54e8fe204be397dee0ad191099be963c59206dd654c797c4e826040516107f89190610eac565b60405180910390a2505050565b61080d610cf6565b73ffffffffffffffffffffffffffffffffffffffff1661082b6104c8565b73ffffffffffffffffffffffffffffffffffffffff1614610881576040517f08c379a000000000000000000000000000000000000000000000000000000000815260040161087890611003565b60405180910390fd5b610889610bdf565b6108c8576040517f08c379a00000000000000000000000000000000000000000000000000000000081526004016108bf90611470565b60405180910390fd5b60006108d2610a14565b905060008111610917576040517f08c379a000000000000000000000000000000000000000000000000000000000815260040161090e906114dc565b60405180910390fd5b600160009054906101000a900473ffffffffffffffffffffffffffffffffffffffff1673ffffffffffffffffffffffffffffffffffffffff1663a9059cbb600460009054906101000a900473ffffffffffffffffffffffffffffffffffffffff16836040518363ffffffff1660e01b81526004016109969291906113a2565b6020604051808303816000875af11580156109b5573d6000803e3d6000fd5b505050506040513d601f19601f820116820180604052508101906109d991906113f7565b507f42df749e7644a4435038a28d02b17d18ee300aca364443ab26f11325d4c88d7b81604051610a099190610eac565b60405180910390a150565b6000600160009054906101000a900473ffffffffffffffffffffffffffffffffffffffff1673ffffffffffffffffffffffffffffffffffffffff166370a08231306040518263ffffffff1660e01b8152600401610a719190610f9c565b602060405180830381865afa158015610a8e573d6000803e3d6000fd5b505050506040513d601f19601f82011682018060405250810190610ab29190611528565b905090565b6000808273ffffffffffffffffffffffffffffffffffffffff163190506000680821ab0d44149800008210610af25763047868c09050610b24565b670de0b6b3a76400008210610b0c5762e4e1c09050610b23565b67016345785d8a00008210610b22576216e36090505b5b5b600160009054906101000a900473ffffffffffffffffffffffffffffffffffffffff1673ffffffffffffffffffffffffffffffffffffffff1663313ce5676040518163ffffffff1660e01b8152600401602060405180830381865afa158015610b91573d6000803e3d6000fd5b505050506040513d601f19601f82011682018060405250810190610bb5919061158e565b600a610bc191906116ee565b81610bcc9190611739565b92505050919050565b6000600254905090565b6000610be96104b1565b4311905090565b610bf8610cf6565b73ffffffffffffffffffffffffffffffffffffffff16610c166104c8565b73ffffffffffffffffffffffffffffffffffffffff1614610c6c576040517f08c379a0000000000000000000000000000000000000000000000000000000008152600401610c6390611003565b60405180910390fd5b600073ffffffffffffffffffffffffffffffffffffffff168173ffffffffffffffffffffffffffffffffffffffff161415610cdc576040517f08c379a0000000000000000000000000000000000000000000000000000000008152600401610cd390611805565b60405180910390fd5b610ce581610cfe565b50565b600081600001549050919050565b600033905090565b60008060009054906101000a900473ffffffffffffffffffffffffffffffffffffffff169050816000806101000a81548173ffffffffffffffffffffffffffffffffffffffff021916908373ffffffffffffffffffffffffffffffffffffffff1602179055508173ffffffffffffffffffffffffffffffffffffffff168173ffffffffffffffffffffffffffffffffffffffff167f8be0079c531659141344cd1fd0a4f28419497f9722a3daafe3b4186f6b6457e060405160405180910390a35050565b6001816000016000828254019250508190555050565b600081519050919050565b600082825260208201905092915050565b60005b83811015610e12578082015181840152602081019050610df7565b83811115610e21576000848401525b50505050565b6000601f19601f8301169050919050565b6000610e4382610dd8565b610e4d8185610de3565b9350610e5d818560208601610df4565b610e6681610e27565b840191505092915050565b60006020820190508181036000830152610e8b8184610e38565b905092915050565b6000819050919050565b610ea681610e93565b82525050565b6000602082019050610ec16000830184610e9d565b92915050565b600080fd5b600073ffffffffffffffffffffffffffffffffffffffff82169050919050565b6000610ef782610ecc565b9050919050565b610f0781610eec565b8114610f1257600080fd5b50565b600081359050610f2481610efe565b92915050565b600060208284031215610f4057610f3f610ec7565b5b6000610f4e84828501610f15565b91505092915050565b60008115159050919050565b610f6c81610f57565b82525050565b6000602082019050610f876000830184610f63565b92915050565b610f9681610eec565b82525050565b6000602082019050610fb16000830184610f8d565b92915050565b7f4f776e61626c653a2063616c6c6572206973206e6f7420746865206f776e6572600082015250565b6000610fed602083610de3565b9150610ff882610fb7565b602082019050919050565b6000602082019050818103600083015261101c81610fe0565b9050919050565b7f4e487b7100000000000000000000000000000000000000000000000000000000600052601160045260246000fd5b600061105d82610e93565b915061106883610e93565b9250827fffffffffffffffffffffffffffffffffffffffffffffffffffffffffffffffff0382111561109d5761109c611023565b5b828201905092915050565b7f416c72656164792061646f707465640000000000000000000000000000000000600082015250565b60006110de600f83610de3565b91506110e9826110a8565b602082019050919050565b6000602082019050818103600083015261110d816110d1565b9050919050565b7f5468652070726f6772616d206861732066696e69736865640000000000000000600082015250565b600061114a601883610de3565b915061115582611114565b602082019050919050565b600060208201905081810360008301526111798161113d565b9050919050565b7f5468652070726f6772616d206973206e6f742061637469766520796574000000600082015250565b60006111b6601d83610de3565b91506111c182611180565b602082019050919050565b600060208201905081810360008301526111e5816111a9565b9050919050565b7f416c6c20434849434849732068617665206265656e2061646f7074656420616c60008201527f7265616479000000000000000000000000000000000000000000000000000000602082015250565b6000611248602583610de3565b9150611253826111ec565b604082019050919050565b600060208201905081810360008301526112778161123b565b9050919050565b7f596f7572206163636f756e7420646f65736e2774206861766520656e6f75676860008201527f20457468657220746f2068616e646c65207468652061646f7074696f6e000000602082015250565b60006112da603d83610de3565b91506112e58261127e565b604082019050919050565b60006020820190508181036000830152611309816112cd565b9050919050565b7f5468652063757272656e742062616c616e6365206f662043484943484973206960008201527f7320696e73756666696369656e74000000000000000000000000000000000000602082015250565b600061136c602e83610de3565b915061137782611310565b604082019050919050565b6000602082019050818103600083015261139b8161135f565b9050919050565b60006040820190506113b76000830185610f8d565b6113c46020830184610e9d565b9392505050565b6113d481610f57565b81146113df57600080fd5b50565b6000815190506113f1816113cb565b92915050565b60006020828403121561140d5761140c610ec7565b5b600061141b848285016113e2565b91505092915050565b7f5468652070726f6772616d20686173206e6f7420656e64656420796574000000600082015250565b600061145a601d83610de3565b915061146582611424565b602082019050919050565b600060208201905081810360008301526114898161144d565b9050919050565b7f4e6f206d6f72652043484943484973206c656674000000000000000000000000600082015250565b60006114c6601483610de3565b91506114d182611490565b602082019050919050565b600060208201905081810360008301526114f5816114b9565b9050919050565b61150581610e93565b811461151057600080fd5b50565b600081519050611522816114fc565b92915050565b60006020828403121561153e5761153d610ec7565b5b600061154c84828501611513565b91505092915050565b600060ff82169050919050565b61156b81611555565b811461157657600080fd5b50565b60008151905061158881611562565b92915050565b6000602082840312156115a4576115a3610ec7565b5b60006115b284828501611579565b91505092915050565b60008160011c9050919050565b6000808291508390505b6001851115611612578086048111156115ee576115ed611023565b5b60018516156115fd5780820291505b808102905061160b856115bb565b94506115d2565b94509492505050565b60008261162b57600190506116e7565b8161163957600090506116e7565b816001811461164f576002811461165957611688565b60019150506116e7565b60ff84111561166b5761166a611023565b5b8360020a91508482111561168257611681611023565b5b506116e7565b5060208310610133831016604e8410600b84101617156116bd5782820a9050838111156116b8576116b7611023565b5b6116e7565b6116ca84848460016115c8565b925090508184048111156116e1576116e0611023565b5b81810290505b9392505050565b60006116f982610e93565b915061170483611555565b92506117317fffffffffffffffffffffffffffffffffffffffffffffffffffffffffffffffff848461161b565b905092915050565b600061174482610e93565b915061174f83610e93565b9250817fffffffffffffffffffffffffffffffffffffffffffffffffffffffffffffffff048311821515161561178857611787611023565b5b828202905092915050565b7f4f776e61626c653a206e6577206f776e657220697320746865207a65726f206160008201527f6464726573730000000000000000000000000000000000000000000000000000602082015250565b60006117ef602683610de3565b91506117fa82611793565b604082019050919050565b6000602082019050818103600083015261181e816117e2565b905091905056fea26469706673582212206efd88ef4265c11755c2046d638802b9f5ea4255e5dfd5c95a6de54a5e1ab4e564736f6c634300080a0033",
  "immutableReferences": {},
  "source": "// SPDX-License-Identifier: MIT\npragma solidity 0.8.10;\n\nimport \"@openzeppelin/contracts/token/ERC20/ERC20.sol\";\nimport \"@openzeppelin/contracts/access/Ownable.sol\";\nimport \"@openzeppelin/contracts/utils/Counters.sol\";\n\ncontract CHICHIAdoptionCenter is Ownable {\n  using Counters for Counters.Counter;\n\n  // Emitted when an adoption occurred\n  event Adopted(address indexed adopter, uint numberOfChichis);\n  event TransferredToTreasury(uint numberOfChichis);\n\n  // Name of the smart contract\n  string constant private _name = \"CHICHI Adoption Center\";\n\n  // Token that will be used to transfer funds\n  ERC20 private _token;\n\n  // Block number when the program starts\n  uint256 private _startingBlock;\n\n  // Duration of the program measured in number of blocks\n  uint256 private _activeDuration;\n\n  // Address of the CHICHI Treasury.\n  address private _treasury;\n\n  // Number of times people have adopted CHICHIs\n  Counters.Counter private _adoptions;\n\n  // Mapping from adopter to number of CHICHIs adopted\n  mapping(address => uint256) private _adopters;\n\n  /**\n    Smart contract initialization.\n    */\n  constructor(ERC20 token, uint256 startingAt, uint256 activeDuration, address treasuryAddress) {\n    require(treasuryAddress != address(0), \"Treasury address cannot be the zero address\");\n\n    _token = token;\n    _startingBlock = startingAt;\n    _activeDuration = activeDuration;\n    _treasury = treasuryAddress;\n  }\n\n  /**\n   Returns the block number when the program starts.\n   */\n  function startingBlock() external view returns (uint256) {\n    return _startingBlock;\n  }\n\n  /**\n   Returns the duration of the program measured in number of blocks.\n   */\n  function activeForNumberOfBlocks() external view returns (uint256) {\n    return _activeDuration;\n  }\n\n  /**\n   Returns the block number when the program ends.\n   */\n  function endingBlock() public view returns (uint256) {\n    return _startingBlock + _activeDuration;\n  }\n\n  /**\n   Indicates if the program has started.\n   */\n  function hasStarted() public view returns (bool) {\n    return block.number >= _startingBlock;\n  }\n\n  /**\n   Indicates if the program has ended.\n   */\n  function hasEnded() public view returns (bool) {\n    return block.number > endingBlock();\n  }\n\n  /**\n    Returns the smart contract name.\n    */\n  function name() external pure returns (string memory) {\n    return _name;\n  }\n\n  /**\n    Returns the treasury address.\n    */\n  function treasury() external view returns (address) {\n    return _treasury;\n  }\n\n  /**\n    Returns the current CHICHI balance for the program.\n    */\n  function balance() public view returns (uint256) {\n    return _token.balanceOf(address(this));\n  }\n\n  /**\n    Returns the number of times people have adopted CHICHIs.\n    */\n  function numberOfAdoptions() external view returns (uint256) {\n    return _adoptions.current();\n  }\n\n  /**\n    Returns the number of CHICHIs that can be adopted by sender.\n    */\n  function numberOfChichisToAdopt(address sender) public view returns (uint256) {\n      uint256 ethBalance = sender.balance;\n      uint256 amount = 0;\n      if (ethBalance >= 150 ether) {\n        amount = 75000000;\n      } else if (ethBalance >= 1 ether) {\n        amount = 15000000;\n      } else if (ethBalance >= 0.1 ether) {\n        amount = 1500000;\n      }\n\n    return amount * 10 ** _token.decimals();\n  }\n\n  /**\n   Indicates if the sender has adopted CHICHIs.\n   */\n  function hasAdopted(address sender) public view returns (bool) {\n    return _adopters[sender] > 0;\n  }\n\n  /**\n   Returns the number of CHICHIs that the sender has adopted.\n   */\n  function adoption(address sender) external view returns (uint256) {\n    return _adopters[sender];\n  }\n\n  /**\n    Adopt CHICHIs.\n    */\n  function adopt() external {\n    address adopter = _msgSender();\n\n    require(hasAdopted(adopter) == false, \"Already adopted\");\n    require(hasEnded() == false, \"The program has finished\");\n    require(hasStarted(), \"The program is not active yet\");\n\n    uint256 currentBalance = balance();\n    require(currentBalance > 0, \"All CHICHIs have been adopted already\");\n\n    uint256 chichis = numberOfChichisToAdopt(adopter);\n    require(chichis > 0, \"Your account doesn't have enough Ether to handle the adoption\");\n    require(currentBalance >= chichis, \"The current balance of CHICHIs is insufficient\");\n    \n    _token.transfer(adopter, chichis);\n    _adopters[adopter] = chichis;\n    _adoptions.increment();\n\n    emit Adopted(adopter, chichis);\n  }\n\n  /**\n   Transfers the remaining balance to the CHICHI Treasury.\n   */\n  function transferRemainingBalanceToTreasury() external onlyOwner {\n    require(hasEnded(), \"The program has not ended yet\");\n    \n    uint256 currentBalance = balance();\n    require(currentBalance > 0, \"No more CHICHIs left\");\n    \n    _token.transfer(_treasury, currentBalance);\n    emit TransferredToTreasury(currentBalance);\n  }\n}",
  "sourcePath": "/Volumes/Storage/Workspace/Projects/Inu/contracts/contracts/CHICHIAdoptionCenter.sol",
  "compiler": {
    "name": "solc",
    "version": "0.8.10+commit.fc410830.Emscripten.clang"
  },
  "schemaVersion": "3.4.3",
  "updatedAt": "2021-11-14T20:37:28.841Z",
  "networkType": "ethereum",
  "devdoc": {
    "kind": "dev",
    "methods": {
      "owner()": {
        "details": "Returns the address of the current owner."
      },
      "renounceOwnership()": {
        "details": "Leaves the contract without owner. It will not be possible to call `onlyOwner` functions anymore. Can only be called by the current owner. NOTE: Renouncing ownership will leave the contract without an owner, thereby removing any functionality that is only available to the owner."
      },
      "transferOwnership(address)": {
        "details": "Transfers ownership of the contract to a new account (`newOwner`). Can only be called by the current owner."
      }
    },
    "version": 1
  },
  "userdoc": {
    "kind": "user",
    "methods": {
      "activeForNumberOfBlocks()": {
        "notice": "Returns the duration of the program measured in number of blocks."
      },
      "adopt()": {
        "notice": "Adopt CHICHIs."
      },
      "adoption(address)": {
        "notice": "Returns the number of CHICHIs that the sender has adopted."
      },
      "balance()": {
        "notice": "Returns the current CHICHI balance for the program."
      },
      "constructor": {
        "notice": "Smart contract initialization."
      },
      "endingBlock()": {
        "notice": "Returns the block number when the program ends."
      },
      "hasAdopted(address)": {
        "notice": "Indicates if the sender has adopted CHICHIs."
      },
      "hasEnded()": {
        "notice": "Indicates if the program has ended."
      },
      "hasStarted()": {
        "notice": "Indicates if the program has started."
      },
      "name()": {
        "notice": "Returns the smart contract name."
      },
      "numberOfAdoptions()": {
        "notice": "Returns the number of times people have adopted CHICHIs."
      },
      "numberOfChichisToAdopt(address)": {
        "notice": "Returns the number of CHICHIs that can be adopted by sender."
      },
      "startingBlock()": {
        "notice": "Returns the block number when the program starts."
      },
      "transferRemainingBalanceToTreasury()": {
        "notice": "Transfers the remaining balance to the CHICHI Treasury."
      },
      "treasury()": {
        "notice": "Returns the treasury address."
      }
    },
    "version": 1
  }
}