{
  "contractName": "CHICHIGovernor",
  "abi": [
    {
      "inputs": [
        {
          "internalType": "contract ERC20Votes",
          "name": "_token",
          "type": "address"
        }
      ],
      "stateMutability": "nonpayable",
      "type": "constructor"
    },
    {
      "anonymous": false,
      "inputs": [
        {
          "indexed": false,
          "internalType": "uint256",
          "name": "proposalId",
          "type": "uint256"
        }
      ],
      "name": "ProposalCanceled",
      "type": "event"
    },
    {
      "anonymous": false,
      "inputs": [
        {
          "indexed": false,
          "internalType": "uint256",
          "name": "proposalId",
          "type": "uint256"
        },
        {
          "indexed": false,
          "internalType": "address",
          "name": "proposer",
          "type": "address"
        },
        {
          "indexed": false,
          "internalType": "address[]",
          "name": "targets",
          "type": "address[]"
        },
        {
          "indexed": false,
          "internalType": "uint256[]",
          "name": "values",
          "type": "uint256[]"
        },
        {
          "indexed": false,
          "internalType": "string[]",
          "name": "signatures",
          "type": "string[]"
        },
        {
          "indexed": false,
          "internalType": "bytes[]",
          "name": "calldatas",
          "type": "bytes[]"
        },
        {
          "indexed": false,
          "internalType": "uint256",
          "name": "startBlock",
          "type": "uint256"
        },
        {
          "indexed": false,
          "internalType": "uint256",
          "name": "endBlock",
          "type": "uint256"
        },
        {
          "indexed": false,
          "internalType": "string",
          "name": "description",
          "type": "string"
        }
      ],
      "name": "ProposalCreated",
      "type": "event"
    },
    {
      "anonymous": false,
      "inputs": [
        {
          "indexed": false,
          "internalType": "uint256",
          "name": "proposalId",
          "type": "uint256"
        }
      ],
      "name": "ProposalExecuted",
      "type": "event"
    },
    {
      "anonymous": false,
      "inputs": [
        {
          "indexed": false,
          "internalType": "uint256",
          "name": "oldQuorumNumerator",
          "type": "uint256"
        },
        {
          "indexed": false,
          "internalType": "uint256",
          "name": "newQuorumNumerator",
          "type": "uint256"
        }
      ],
      "name": "QuorumNumeratorUpdated",
      "type": "event"
    },
    {
      "anonymous": false,
      "inputs": [
        {
          "indexed": true,
          "internalType": "address",
          "name": "voter",
          "type": "address"
        },
        {
          "indexed": false,
          "internalType": "uint256",
          "name": "proposalId",
          "type": "uint256"
        },
        {
          "indexed": false,
          "internalType": "uint8",
          "name": "support",
          "type": "uint8"
        },
        {
          "indexed": false,
          "internalType": "uint256",
          "name": "weight",
          "type": "uint256"
        },
        {
          "indexed": false,
          "internalType": "string",
          "name": "reason",
          "type": "string"
        }
      ],
      "name": "VoteCast",
      "type": "event"
    },
    {
      "inputs": [],
      "name": "BALLOT_TYPEHASH",
      "outputs": [
        {
          "internalType": "bytes32",
          "name": "",
          "type": "bytes32"
        }
      ],
      "stateMutability": "view",
      "type": "function"
    },
    {
      "inputs": [],
      "name": "COUNTING_MODE",
      "outputs": [
        {
          "internalType": "string",
          "name": "",
          "type": "string"
        }
      ],
      "stateMutability": "pure",
      "type": "function"
    },
    {
      "inputs": [
        {
          "internalType": "uint256",
          "name": "proposalId",
          "type": "uint256"
        },
        {
          "internalType": "uint8",
          "name": "support",
          "type": "uint8"
        }
      ],
      "name": "castVote",
      "outputs": [
        {
          "internalType": "uint256",
          "name": "",
          "type": "uint256"
        }
      ],
      "stateMutability": "nonpayable",
      "type": "function"
    },
    {
      "inputs": [
        {
          "internalType": "uint256",
          "name": "proposalId",
          "type": "uint256"
        },
        {
          "internalType": "uint8",
          "name": "support",
          "type": "uint8"
        },
        {
          "internalType": "uint8",
          "name": "v",
          "type": "uint8"
        },
        {
          "internalType": "bytes32",
          "name": "r",
          "type": "bytes32"
        },
        {
          "internalType": "bytes32",
          "name": "s",
          "type": "bytes32"
        }
      ],
      "name": "castVoteBySig",
      "outputs": [
        {
          "internalType": "uint256",
          "name": "",
          "type": "uint256"
        }
      ],
      "stateMutability": "nonpayable",
      "type": "function"
    },
    {
      "inputs": [
        {
          "internalType": "uint256",
          "name": "proposalId",
          "type": "uint256"
        },
        {
          "internalType": "uint8",
          "name": "support",
          "type": "uint8"
        },
        {
          "internalType": "string",
          "name": "reason",
          "type": "string"
        }
      ],
      "name": "castVoteWithReason",
      "outputs": [
        {
          "internalType": "uint256",
          "name": "",
          "type": "uint256"
        }
      ],
      "stateMutability": "nonpayable",
      "type": "function"
    },
    {
      "inputs": [
        {
          "internalType": "address[]",
          "name": "targets",
          "type": "address[]"
        },
        {
          "internalType": "uint256[]",
          "name": "values",
          "type": "uint256[]"
        },
        {
          "internalType": "bytes[]",
          "name": "calldatas",
          "type": "bytes[]"
        },
        {
          "internalType": "bytes32",
          "name": "descriptionHash",
          "type": "bytes32"
        }
      ],
      "name": "execute",
      "outputs": [
        {
          "internalType": "uint256",
          "name": "",
          "type": "uint256"
        }
      ],
      "stateMutability": "payable",
      "type": "function"
    },
    {
      "inputs": [
        {
          "internalType": "uint256",
          "name": "proposalId",
          "type": "uint256"
        },
        {
          "internalType": "address",
          "name": "account",
          "type": "address"
        }
      ],
      "name": "hasVoted",
      "outputs": [
        {
          "internalType": "bool",
          "name": "",
          "type": "bool"
        }
      ],
      "stateMutability": "view",
      "type": "function"
    },
    {
      "inputs": [
        {
          "internalType": "address[]",
          "name": "targets",
          "type": "address[]"
        },
        {
          "internalType": "uint256[]",
          "name": "values",
          "type": "uint256[]"
        },
        {
          "internalType": "bytes[]",
          "name": "calldatas",
          "type": "bytes[]"
        },
        {
          "internalType": "bytes32",
          "name": "descriptionHash",
          "type": "bytes32"
        }
      ],
      "name": "hashProposal",
      "outputs": [
        {
          "internalType": "uint256",
          "name": "",
          "type": "uint256"
        }
      ],
      "stateMutability": "pure",
      "type": "function"
    },
    {
      "inputs": [],
      "name": "name",
      "outputs": [
        {
          "internalType": "string",
          "name": "",
          "type": "string"
        }
      ],
      "stateMutability": "view",
      "type": "function"
    },
    {
      "inputs": [
        {
          "internalType": "uint256",
          "name": "proposalId",
          "type": "uint256"
        }
      ],
      "name": "proposalDeadline",
      "outputs": [
        {
          "internalType": "uint256",
          "name": "",
          "type": "uint256"
        }
      ],
      "stateMutability": "view",
      "type": "function"
    },
    {
      "inputs": [
        {
          "internalType": "uint256",
          "name": "proposalId",
          "type": "uint256"
        }
      ],
      "name": "proposalSnapshot",
      "outputs": [
        {
          "internalType": "uint256",
          "name": "",
          "type": "uint256"
        }
      ],
      "stateMutability": "view",
      "type": "function"
    },
    {
      "inputs": [
        {
          "internalType": "uint256",
          "name": "proposalId",
          "type": "uint256"
        }
      ],
      "name": "proposalVotes",
      "outputs": [
        {
          "internalType": "uint256",
          "name": "againstVotes",
          "type": "uint256"
        },
        {
          "internalType": "uint256",
          "name": "forVotes",
          "type": "uint256"
        },
        {
          "internalType": "uint256",
          "name": "abstainVotes",
          "type": "uint256"
        }
      ],
      "stateMutability": "view",
      "type": "function"
    },
    {
      "inputs": [
        {
          "internalType": "address[]",
          "name": "targets",
          "type": "address[]"
        },
        {
          "internalType": "uint256[]",
          "name": "values",
          "type": "uint256[]"
        },
        {
          "internalType": "bytes[]",
          "name": "calldatas",
          "type": "bytes[]"
        },
        {
          "internalType": "string",
          "name": "description",
          "type": "string"
        }
      ],
      "name": "propose",
      "outputs": [
        {
          "internalType": "uint256",
          "name": "",
          "type": "uint256"
        }
      ],
      "stateMutability": "nonpayable",
      "type": "function"
    },
    {
      "inputs": [],
      "name": "quorumDenominator",
      "outputs": [
        {
          "internalType": "uint256",
          "name": "",
          "type": "uint256"
        }
      ],
      "stateMutability": "view",
      "type": "function"
    },
    {
      "inputs": [],
      "name": "quorumNumerator",
      "outputs": [
        {
          "internalType": "uint256",
          "name": "",
          "type": "uint256"
        }
      ],
      "stateMutability": "view",
      "type": "function"
    },
    {
      "inputs": [
        {
          "internalType": "uint256",
          "name": "proposalId",
          "type": "uint256"
        }
      ],
      "name": "state",
      "outputs": [
        {
          "internalType": "enum IGovernor.ProposalState",
          "name": "",
          "type": "uint8"
        }
      ],
      "stateMutability": "view",
      "type": "function"
    },
    {
      "inputs": [
        {
          "internalType": "bytes4",
          "name": "interfaceId",
          "type": "bytes4"
        }
      ],
      "name": "supportsInterface",
      "outputs": [
        {
          "internalType": "bool",
          "name": "",
          "type": "bool"
        }
      ],
      "stateMutability": "view",
      "type": "function"
    },
    {
      "inputs": [],
      "name": "token",
      "outputs": [
        {
          "internalType": "contract ERC20Votes",
          "name": "",
          "type": "address"
        }
      ],
      "stateMutability": "view",
      "type": "function"
    },
    {
      "inputs": [
        {
          "internalType": "uint256",
          "name": "newQuorumNumerator",
          "type": "uint256"
        }
      ],
      "name": "updateQuorumNumerator",
      "outputs": [],
      "stateMutability": "nonpayable",
      "type": "function"
    },
    {
      "inputs": [],
      "name": "version",
      "outputs": [
        {
          "internalType": "string",
          "name": "",
          "type": "string"
        }
      ],
      "stateMutability": "view",
      "type": "function"
    },
    {
      "inputs": [],
      "name": "votingDelay",
      "outputs": [
        {
          "internalType": "uint256",
          "name": "",
          "type": "uint256"
        }
      ],
      "stateMutability": "pure",
      "type": "function"
    },
    {
      "inputs": [],
      "name": "votingPeriod",
      "outputs": [
        {
          "internalType": "uint256",
          "name": "",
          "type": "uint256"
        }
      ],
      "stateMutability": "pure",
      "type": "function"
    },
    {
      "inputs": [
        {
          "internalType": "uint256",
          "name": "blockNumber",
          "type": "uint256"
        }
      ],
      "name": "quorum",
      "outputs": [
        {
          "internalType": "uint256",
          "name": "",
          "type": "uint256"
        }
      ],
      "stateMutability": "view",
      "type": "function"
    },
    {
      "inputs": [
        {
          "internalType": "address",
          "name": "account",
          "type": "address"
        },
        {
          "internalType": "uint256",
          "name": "blockNumber",
          "type": "uint256"
        }
      ],
      "name": "getVotes",
      "outputs": [
        {
          "internalType": "uint256",
          "name": "",
          "type": "uint256"
        }
      ],
      "stateMutability": "view",
      "type": "function"
    }
  ],
  "bytecode": "0x6101406040523480156200001257600080fd5b50604051620024bb380380620024bb8339810160408190526200003591620002bb565b600a816040518060400160405280600f81526020016e21a424a1a4249023b7bb32b93737b960891b81525080620000716200012d60201b60201c565b815160209283012081519183019190912060c082815260e08290524660a0818152604080517f8b73c3c69bb8fe3d512ecc4cf759cc79239f7b179b0ffacaa9a75d522b39400f8189018190528183019790975260608101959095526080808601939093523085830152805180860390920182529390920190925280519084012090526101005281516200010b916000919084019062000215565b50506001600160a01b031661012052620001258162000148565b50506200032a565b6040805180820190915260018152603160f81b602082015290565b6064811115620001d05760405162461bcd60e51b815260206004820152604360248201527f476f7665726e6f72566f74657351756f72756d4672616374696f6e3a2071756f60448201527f72756d4e756d657261746f72206f7665722071756f72756d44656e6f6d696e616064820152623a37b960e91b608482015260a40160405180910390fd5b600380549082905560408051828152602081018490527f0553476bf02ef2726e8ce5ced78d63e26e602e4a2257b1f559418e24b4633997910160405180910390a15050565b8280546200022390620002ed565b90600052602060002090601f01602090048101928262000247576000855562000292565b82601f106200026257805160ff191683800117855562000292565b8280016001018555821562000292579182015b828111156200029257825182559160200191906001019062000275565b50620002a0929150620002a4565b5090565b5b80821115620002a05760008155600101620002a5565b600060208284031215620002ce57600080fd5b81516001600160a01b0381168114620002e657600080fd5b9392505050565b600181811c908216806200030257607f821691505b602082108114156200032457634e487b7160e01b600052602260045260246000fd5b50919050565b60805160a05160c05160e051610100516101205161213362000388600039600081816104df015281816110f0015261117a01526000611290015260006112df015260006112ba0152600061123e0152600061126701526121336000f3fe60806040526004361061014b5760003560e01c806356781388116100b6578063c59057e41161006f578063c59057e4146103f3578063dd4e2ba514610413578063deaaa7cc14610459578063eb9019d41461048d578063f8ce560a146104ad578063fc0c546a146104cd57600080fd5b8063567813881461034a5780637b3c71d31461036a5780637d5e81e21461038a57806397c3d334146103aa578063a7713a70146103be578063c01f9e37146103d357600080fd5b80633932abb1116101085780633932abb11461021b5780633bccf4fd1461022f5780633e4f49e61461024f578063438596321461027c578063544ffc9c146102c657806354fd4d501461032057600080fd5b806301ffc9a71461015057806302a251a31461018557806306f3f9e6146101a457806306fdde03146101c65780632656227d146101e85780632d63f693146101fb575b600080fd5b34801561015c57600080fd5b5061017061016b36600461175b565b610519565b60405190151581526020015b60405180910390f35b34801561019157600080fd5b5061b2fa5b60405190815260200161017c565b3480156101b057600080fd5b506101c46101bf366004611785565b610550565b005b3480156101d257600080fd5b506101db6105b0565b60405161017c91906117fa565b6101966101f6366004611a4a565b610642565b34801561020757600080fd5b50610196610216366004611785565b61074f565b34801561022757600080fd5b506001610196565b34801561023b57600080fd5b5061019661024a366004611aea565b610786565b34801561025b57600080fd5b5061026f61026a366004611785565b61081a565b60405161017c9190611b4e565b34801561028857600080fd5b50610170610297366004611b76565b60008281526002602090815260408083206001600160a01b038516845260030190915290205460ff1692915050565b3480156102d257600080fd5b506103056102e1366004611785565b60008181526002602081905260409091208054600182015491909201549193909250565b6040805193845260208401929092529082015260600161017c565b34801561032c57600080fd5b506040805180820190915260018152603160f81b60208201526101db565b34801561035657600080fd5b50610196610365366004611ba2565b61097e565b34801561037657600080fd5b50610196610385366004611bc5565b6109a7565b34801561039657600080fd5b506101966103a5366004611c4b565b6109f9565b3480156103b657600080fd5b506064610196565b3480156103ca57600080fd5b50600354610196565b3480156103df57600080fd5b506101966103ee366004611785565b610c36565b3480156103ff57600080fd5b5061019661040e366004611a4a565b610c65565b34801561041f57600080fd5b506040805180820190915260208082527f737570706f72743d627261766f2671756f72756d3d666f722c6162737461696e908201526101db565b34801561046557600080fd5b506101967f150214d74d59b7d1e90c73fc22ef3d991dd0a76b046543d4d80ab92d2a50328f81565b34801561049957600080fd5b506101966104a8366004611d0b565b610c9f565b3480156104b957600080fd5b506101966104c8366004611785565b610cab565b3480156104d957600080fd5b506105017f000000000000000000000000000000000000000000000000000000000000000081565b6040516001600160a01b03909116815260200161017c565b60006001600160e01b0319821663bf26d89760e01b148061054a57506301ffc9a760e01b6001600160e01b03198316145b92915050565b3330146105a45760405162461bcd60e51b815260206004820152601860248201527f476f7665726e6f723a206f6e6c79476f7665726e616e6365000000000000000060448201526064015b60405180910390fd5b6105ad81610cb6565b50565b6060600080546105bf90611d35565b80601f01602080910402602001604051908101604052809291908181526020018280546105eb90611d35565b80156106385780601f1061060d57610100808354040283529160200191610638565b820191906000526020600020905b81548152906001019060200180831161061b57829003601f168201915b5050505050905090565b60008061065186868686610c65565b9050600061065e8261081a565b9050600481600781111561067457610674611b38565b14806106915750600581600781111561068f5761068f611b38565b145b6106e75760405162461bcd60e51b815260206004820152602160248201527f476f7665726e6f723a2070726f706f73616c206e6f74207375636365737366756044820152601b60fa1b606482015260840161059b565b600082815260016020818152604092839020600201805460ff191690921790915590518381527f712ae1383f79ac853f8d882153778e0260ef8f03b504e2866e0593e04d2b291f910160405180910390a16107458288888888610d7e565b5095945050505050565b60008181526001602090815260408083208151928301909152546001600160401b0316908190525b6001600160401b031692915050565b604080517f150214d74d59b7d1e90c73fc22ef3d991dd0a76b046543d4d80ab92d2a50328f602082015290810186905260ff8516606082015260009081906107f2906107ea9060800160405160208183030381529060405280519060200120610e7d565b868686610ecb565b905061080f87828860405180602001604052806000815250610ee9565b979650505050505050565b6000818152600160208181526040808420815160a08101835281546001600160401b0390811660808301908152825283518086018552958301541685529283019390935260029092015460ff8082161580159484019490945261010090910416151560608201529061088f5750600792915050565b8060600151156108a25750600292915050565b805151436001600160401b0390911611156108c05750600092915050565b602081015151436001600160401b0390911611156108e15750600192915050565b6108ee8160200151610ff4565b15610930576108fc83611023565b801561091b575060008381526002602052604090208054600190910154115b610926576003610929565b60045b9392505050565b60405162461bcd60e51b815260206004820152601d60248201527f476f7665726e6f723a20756e6b6e6f776e2070726f706f73616c206964000000604482015260640161059b565b50919050565b60008033905061099f84828560405180602001604052806000815250610ee9565b949350505050565b6000803390506109ef86828787878080601f016020809104026020016040519081016040528093929190818152602001838380828437600092019190915250610ee992505050565b9695505050505050565b600080610a0f8686868680519060200120610c65565b90508451865114610a325760405162461bcd60e51b815260040161059b90611d6a565b8351865114610a535760405162461bcd60e51b815260040161059b90611d6a565b6000865111610aa45760405162461bcd60e51b815260206004820152601860248201527f476f7665726e6f723a20656d7074792070726f706f73616c0000000000000000604482015260640161059b565b600081815260016020908152604091829020825191820190925281546001600160401b03169081905215610b245760405162461bcd60e51b815260206004820152602160248201527f476f7665726e6f723a2070726f706f73616c20616c72656164792065786973746044820152607360f81b606482015260840161059b565b6000610b30600161105b565b610b394361105b565b610b439190611dc1565b90506000610b5261b2fa61105b565b610b5c9083611dc1565b835467ffffffffffffffff19166001600160401b038416178455905060018301805467ffffffffffffffff19166001600160401b0383161790557f7d84a6263ae0d98d3329bd7b46bb4e8d6f98cd35a7adb45c274c8b7fd5ebd5e084338b8b8d516001600160401b03811115610bd457610bd461180d565b604051908082528060200260200182016040528015610c0757816020015b6060815260200190600190039081610bf25790505b508c88888e604051610c2199989796959493929190611eb5565b60405180910390a15091979650505050505050565b60008181526001602081815260408084208151928301909152909101546001600160401b031690819052610777565b600084848484604051602001610c7e9493929190611fa4565b60408051601f19818403018152919052805160209091012095945050505050565b600061092983836110c7565b600061054a8261115d565b6064811115610d395760405162461bcd60e51b815260206004820152604360248201527f476f7665726e6f72566f74657351756f72756d4672616374696f6e3a2071756f60448201527f72756d4e756d657261746f72206f7665722071756f72756d44656e6f6d696e616064820152623a37b960e91b608482015260a40161059b565b600380549082905560408051828152602081018490527f0553476bf02ef2726e8ce5ced78d63e26e602e4a2257b1f559418e24b4633997910160405180910390a15050565b60006040518060600160405280602781526020016120d760279139905060005b8551811015610e7457600080878381518110610dbc57610dbc611fef565b60200260200101516001600160a01b0316878481518110610ddf57610ddf611fef565b6020026020010151878581518110610df957610df9611fef565b6020026020010151604051610e0e9190612005565b60006040518083038185875af1925050503d8060008114610e4b576040519150601f19603f3d011682016040523d82523d6000602084013e610e50565b606091505b5091509150610e60828286611201565b50505080610e6d90612021565b9050610d9e565b50505050505050565b600061054a610e8a61123a565b8360405161190160f01b6020820152602281018390526042810182905260009060620160405160208183030381529060405280519060200120905092915050565b6000806000610edc8787878761132d565b915091506107458161141a565b6000848152600160208190526040822090610f038761081a565b6007811115610f1457610f14611b38565b14610f6d5760405162461bcd60e51b815260206004820152602360248201527f476f7665726e6f723a20766f7465206e6f742063757272656e746c792061637460448201526269766560e81b606482015260840161059b565b604080516020810190915281546001600160401b031690819052600090610f95908790610c9f565b9050610fa3878787846115d5565b856001600160a01b03167fb8e138887d0aa13bab447e82de9d5c1777041ecd21ca36ba824ff1e6c07ddda488878488604051610fe2949392919061203c565b60405180910390a29695505050505050565b600061100982516001600160401b0316151590565b801561054a57505051436001600160401b03909116111590565b600081815260026020819052604082209081015460018201546110469190612064565b6110526104c88561074f565b11159392505050565b60006001600160401b038211156110c35760405162461bcd60e51b815260206004820152602660248201527f53616665436173743a2076616c756520646f65736e27742066697420696e203660448201526534206269747360d01b606482015260840161059b565b5090565b604051630748d63560e31b81526001600160a01b038381166004830152602482018390526000917f000000000000000000000000000000000000000000000000000000000000000090911690633a46b1a890604401602060405180830381865afa158015611139573d6000803e3d6000fd5b505050506040513d601f19601f82011682018060405250810190610929919061207c565b60006064600354604051632394e7a360e21b8152600481018590527f00000000000000000000000000000000000000000000000000000000000000006001600160a01b031690638e539e8c90602401602060405180830381865afa1580156111c9573d6000803e3d6000fd5b505050506040513d601f19601f820116820180604052508101906111ed919061207c565b6111f79190612095565b61054a91906120b4565b60608315611210575081610929565b8251156112205782518084602001fd5b8160405162461bcd60e51b815260040161059b91906117fa565b60007f000000000000000000000000000000000000000000000000000000000000000046141561128957507f000000000000000000000000000000000000000000000000000000000000000090565b50604080517f00000000000000000000000000000000000000000000000000000000000000006020808301919091527f0000000000000000000000000000000000000000000000000000000000000000828401527f000000000000000000000000000000000000000000000000000000000000000060608301524660808301523060a0808401919091528351808403909101815260c0909201909252805191012090565b6000807f7fffffffffffffffffffffffffffffff5d576e7357a4501ddfe92f46681b20a08311156113645750600090506003611411565b8460ff16601b1415801561137c57508460ff16601c14155b1561138d5750600090506004611411565b6040805160008082526020820180845289905260ff881692820192909252606081018690526080810185905260019060a0016020604051602081039080840390855afa1580156113e1573d6000803e3d6000fd5b5050604051601f1901519150506001600160a01b03811661140a57600060019250925050611411565b9150600090505b94509492505050565b600081600481111561142e5761142e611b38565b14156114375750565b600181600481111561144b5761144b611b38565b14156114995760405162461bcd60e51b815260206004820152601860248201527f45434453413a20696e76616c6964207369676e61747572650000000000000000604482015260640161059b565b60028160048111156114ad576114ad611b38565b14156114fb5760405162461bcd60e51b815260206004820152601f60248201527f45434453413a20696e76616c6964207369676e6174757265206c656e67746800604482015260640161059b565b600381600481111561150f5761150f611b38565b14156115685760405162461bcd60e51b815260206004820152602260248201527f45434453413a20696e76616c6964207369676e6174757265202773272076616c604482015261756560f01b606482015260840161059b565b600481600481111561157c5761157c611b38565b14156105ad5760405162461bcd60e51b815260206004820152602260248201527f45434453413a20696e76616c6964207369676e6174757265202776272076616c604482015261756560f01b606482015260840161059b565b60008481526002602090815260408083206001600160a01b0387168452600381019092529091205460ff161561165d5760405162461bcd60e51b815260206004820152602760248201527f476f7665726e6f72566f74696e6753696d706c653a20766f746520616c726561604482015266191e4818d85cdd60ca1b606482015260840161059b565b6001600160a01b03841660009081526003820160205260408120805460ff1916600117905560ff168360ff1614156116ae57818160000160008282546116a39190612064565b909155506117549050565b60ff8316600114156116ce57818160010160008282546116a39190612064565b60ff8316600214156116ee57818160020160008282546116a39190612064565b60405162461bcd60e51b815260206004820152603560248201527f476f7665726e6f72566f74696e6753696d706c653a20696e76616c69642076616044820152746c756520666f7220656e756d20566f74655479706560581b606482015260840161059b565b5050505050565b60006020828403121561176d57600080fd5b81356001600160e01b03198116811461092957600080fd5b60006020828403121561179757600080fd5b5035919050565b60005b838110156117b95781810151838201526020016117a1565b838111156117c8576000848401525b50505050565b600081518084526117e681602086016020860161179e565b601f01601f19169290920160200192915050565b60208152600061092960208301846117ce565b634e487b7160e01b600052604160045260246000fd5b604051601f8201601f191681016001600160401b038111828210171561184b5761184b61180d565b604052919050565b60006001600160401b0382111561186c5761186c61180d565b5060051b60200190565b80356001600160a01b038116811461188d57600080fd5b919050565b600082601f8301126118a357600080fd5b813560206118b86118b383611853565b611823565b82815260059290921b840181019181810190868411156118d757600080fd5b8286015b848110156118f9576118ec81611876565b83529183019183016118db565b509695505050505050565b600082601f83011261191557600080fd5b813560206119256118b383611853565b82815260059290921b8401810191818101908684111561194457600080fd5b8286015b848110156118f95780358352918301918301611948565b60006001600160401b038311156119785761197861180d565b61198b601f8401601f1916602001611823565b905082815283838301111561199f57600080fd5b828260208301376000602084830101529392505050565b600082601f8301126119c757600080fd5b813560206119d76118b383611853565b82815260059290921b840181019181810190868411156119f657600080fd5b8286015b848110156118f95780356001600160401b03811115611a195760008081fd5b8701603f81018913611a2b5760008081fd5b611a3c89868301356040840161195f565b8452509183019183016119fa565b60008060008060808587031215611a6057600080fd5b84356001600160401b0380821115611a7757600080fd5b611a8388838901611892565b95506020870135915080821115611a9957600080fd5b611aa588838901611904565b94506040870135915080821115611abb57600080fd5b50611ac8878288016119b6565b949793965093946060013593505050565b803560ff8116811461188d57600080fd5b600080600080600060a08688031215611b0257600080fd5b85359450611b1260208701611ad9565b9350611b2060408701611ad9565b94979396509394606081013594506080013592915050565b634e487b7160e01b600052602160045260246000fd5b6020810160088310611b7057634e487b7160e01b600052602160045260246000fd5b91905290565b60008060408385031215611b8957600080fd5b82359150611b9960208401611876565b90509250929050565b60008060408385031215611bb557600080fd5b82359150611b9960208401611ad9565b60008060008060608587031215611bdb57600080fd5b84359350611beb60208601611ad9565b925060408501356001600160401b0380821115611c0757600080fd5b818701915087601f830112611c1b57600080fd5b813581811115611c2a57600080fd5b886020828501011115611c3c57600080fd5b95989497505060200194505050565b60008060008060808587031215611c6157600080fd5b84356001600160401b0380821115611c7857600080fd5b611c8488838901611892565b95506020870135915080821115611c9a57600080fd5b611ca688838901611904565b94506040870135915080821115611cbc57600080fd5b611cc8888389016119b6565b93506060870135915080821115611cde57600080fd5b508501601f81018713611cf057600080fd5b611cff8782356020840161195f565b91505092959194509250565b60008060408385031215611d1e57600080fd5b611d2783611876565b946020939093013593505050565b600181811c90821680611d4957607f821691505b6020821081141561097857634e487b7160e01b600052602260045260246000fd5b60208082526021908201527f476f7665726e6f723a20696e76616c69642070726f706f73616c206c656e67746040820152600d60fb1b606082015260800190565b634e487b7160e01b600052601160045260246000fd5b60006001600160401b03808316818516808303821115611de357611de3611dab565b01949350505050565b600081518084526020808501945080840160005b83811015611e255781516001600160a01b031687529582019590820190600101611e00565b509495945050505050565b600081518084526020808501945080840160005b83811015611e2557815187529582019590820190600101611e44565b600081518084526020808501808196508360051b8101915082860160005b85811015611ea8578284038952611e968483516117ce565b98850198935090840190600101611e7e565b5091979650505050505050565b60006101208b8352602060018060a01b038c1681850152816040850152611ede8285018c611dec565b91508382036060850152611ef2828b611e30565b915083820360808501528189518084528284019150828160051b850101838c0160005b83811015611f4357601f19878403018552611f318383516117ce565b94860194925090850190600101611f15565b505086810360a0880152611f57818c611e60565b945050505050611f7260c08401876001600160401b03169052565b6001600160401b03851660e0840152828103610100840152611f9481856117ce565b9c9b505050505050505050505050565b608081526000611fb76080830187611dec565b8281036020840152611fc98187611e30565b90508281036040840152611fdd8186611e60565b91505082606083015295945050505050565b634e487b7160e01b600052603260045260246000fd5b6000825161201781846020870161179e565b9190910192915050565b600060001982141561203557612035611dab565b5060010190565b84815260ff841660208201528260408201526080606082015260006109ef60808301846117ce565b6000821982111561207757612077611dab565b500190565b60006020828403121561208e57600080fd5b5051919050565b60008160001904831182151516156120af576120af611dab565b500290565b6000826120d157634e487b7160e01b600052601260045260246000fd5b50049056fe476f7665726e6f723a2063616c6c20726576657274656420776974686f7574206d657373616765a264697066735822122053cd4c96179c689f24116a08bdade382f823e669696a08562ea9601386d8438d64736f6c634300080a0033",
  "immutableReferences": {
    "1356": [
      {
        "length": 32,
        "start": 1247
      },
      {
        "length": 32,
        "start": 4336
      },
      {
        "length": 32,
        "start": 4474
      }
    ],
    "4029": [
      {
        "length": 32,
        "start": 4711
      }
    ],
    "4031": [
      {
        "length": 32,
        "start": 4670
      }
    ],
    "4033": [
      {
        "length": 32,
        "start": 4794
      }
    ],
    "4035": [
      {
        "length": 32,
        "start": 4831
      }
    ],
    "4037": [
      {
        "length": 32,
        "start": 4752
      }
    ]
  },
  "source": "// SPDX-License-Identifier: MIT\npragma solidity 0.8.10;\n\nimport \"@openzeppelin/contracts/governance/Governor.sol\";\nimport \"@openzeppelin/contracts/governance/extensions/GovernorCountingSimple.sol\";\nimport \"@openzeppelin/contracts/governance/extensions/GovernorVotes.sol\";\nimport \"@openzeppelin/contracts/governance/extensions/GovernorVotesQuorumFraction.sol\";\n\ncontract CHICHIGovernor is Governor, GovernorCountingSimple, GovernorVotes, GovernorVotesQuorumFraction {\n    constructor(ERC20Votes _token)\n        Governor(\"CHICHI Governor\")\n        GovernorVotes(_token)\n        GovernorVotesQuorumFraction(10)\n    {}\n\n    function votingDelay() public pure override returns (uint256) {\n        return 1; // 1 block\n    }\n\n    function votingPeriod() public pure override returns (uint256) {\n        return 45818; // 1 week\n    }\n\n    // The following functions are overrides required by Solidity.\n\n    function quorum(uint256 blockNumber)\n        public\n        view\n        override(IGovernor, GovernorVotesQuorumFraction)\n        returns (uint256)\n    {\n        return super.quorum(blockNumber);\n    }\n\n    function getVotes(address account, uint256 blockNumber)\n        public\n        view\n        override(IGovernor, GovernorVotes)\n        returns (uint256)\n    {\n        return super.getVotes(account, blockNumber);\n    }\n}",
  "sourcePath": "/Volumes/Storage/Workspace/Projects/Inu/contracts/contracts/CHICHIGovernor.sol",
  "compiler": {
    "name": "solc",
    "version": "0.8.10+commit.fc410830.Emscripten.clang"
  },
  "schemaVersion": "3.4.3",
  "updatedAt": "2021-11-16T07:36:42.650Z",
  "devdoc": {
    "kind": "dev",
    "methods": {
      "COUNTING_MODE()": {
        "details": "See {IGovernor-COUNTING_MODE}."
      },
      "castVote(uint256,uint8)": {
        "details": "See {IGovernor-castVote}."
      },
      "castVoteBySig(uint256,uint8,uint8,bytes32,bytes32)": {
        "details": "See {IGovernor-castVoteBySig}."
      },
      "castVoteWithReason(uint256,uint8,string)": {
        "details": "See {IGovernor-castVoteWithReason}."
      },
      "execute(address[],uint256[],bytes[],bytes32)": {
        "details": "See {IGovernor-execute}."
      },
      "hasVoted(uint256,address)": {
        "details": "See {IGovernor-hasVoted}."
      },
      "hashProposal(address[],uint256[],bytes[],bytes32)": {
        "details": "See {IGovernor-hashProposal}. The proposal id is produced by hashing the RLC encoded `targets` array, the `values` array, the `calldatas` array and the descriptionHash (bytes32 which itself is the keccak256 hash of the description string). This proposal id can be produced from the proposal data which is part of the {ProposalCreated} event. It can even be computed in advance, before the proposal is submitted. Note that the chainId and the governor address are not part of the proposal id computation. Consequently, the same proposal (with same operation and same description) will have the same id if submitted on multiple governors accross multiple networks. This also means that in order to execute the same operation twice (on the same governor) the proposer will have to change the description in order to avoid proposal id conflicts."
      },
      "name()": {
        "details": "See {IGovernor-name}."
      },
      "proposalDeadline(uint256)": {
        "details": "See {IGovernor-proposalDeadline}."
      },
      "proposalSnapshot(uint256)": {
        "details": "See {IGovernor-proposalSnapshot}."
      },
      "proposalVotes(uint256)": {
        "details": "Accessor to the internal vote counts."
      },
      "propose(address[],uint256[],bytes[],string)": {
        "details": "See {IGovernor-propose}."
      },
      "state(uint256)": {
        "details": "See {IGovernor-state}."
      },
      "supportsInterface(bytes4)": {
        "details": "See {IERC165-supportsInterface}."
      },
      "version()": {
        "details": "See {IGovernor-version}."
      },
      "votingDelay()": {
        "details": "delay, in number of block, between the proposal is created and the vote starts. This can be increassed to leave time for users to buy voting power, of delegate it, before the voting of a proposal starts."
      },
      "votingPeriod()": {
        "details": "delay, in number of blocks, between the vote start and vote ends. Note: the {votingDelay} can delay the start of the vote. This must be considered when setting the voting duration compared to the voting delay."
      }
    },
    "version": 1
  },
  "userdoc": {
    "kind": "user",
    "methods": {
      "votingDelay()": {
        "notice": "module:user-config"
      },
      "votingPeriod()": {
        "notice": "module:user-config"
      }
    },
    "version": 1
  }
}