{
  "contractName": "CHICHIAdoptionCenter",
  "abi": [
    {
      "inputs": [
        {
          "internalType": "contract ERC20",
          "name": "token",
          "type": "address"
        },
        {
          "internalType": "uint256",
          "name": "startingAt",
          "type": "uint256"
        },
        {
          "internalType": "uint256",
          "name": "activeDuration",
          "type": "uint256"
        },
        {
          "internalType": "address",
          "name": "treasury",
          "type": "address"
        }
      ],
      "stateMutability": "nonpayable",
      "type": "constructor"
    },
    {
      "anonymous": false,
      "inputs": [
        {
          "indexed": true,
          "internalType": "address",
          "name": "adopter",
          "type": "address"
        },
        {
          "indexed": false,
          "internalType": "uint256",
          "name": "numberOfChichis",
          "type": "uint256"
        }
      ],
      "name": "Adopted",
      "type": "event"
    },
    {
      "anonymous": false,
      "inputs": [
        {
          "indexed": true,
          "internalType": "address",
          "name": "previousOwner",
          "type": "address"
        },
        {
          "indexed": true,
          "internalType": "address",
          "name": "newOwner",
          "type": "address"
        }
      ],
      "name": "OwnershipTransferred",
      "type": "event"
    },
    {
      "anonymous": false,
      "inputs": [
        {
          "indexed": false,
          "internalType": "uint256",
          "name": "numberOfChichis",
          "type": "uint256"
        }
      ],
      "name": "TransferredToTreasury",
      "type": "event"
    },
    {
      "inputs": [],
      "name": "owner",
      "outputs": [
        {
          "internalType": "address",
          "name": "",
          "type": "address"
        }
      ],
      "stateMutability": "view",
      "type": "function",
      "constant": true
    },
    {
      "inputs": [],
      "name": "renounceOwnership",
      "outputs": [],
      "stateMutability": "nonpayable",
      "type": "function"
    },
    {
      "inputs": [
        {
          "internalType": "address",
          "name": "newOwner",
          "type": "address"
        }
      ],
      "name": "transferOwnership",
      "outputs": [],
      "stateMutability": "nonpayable",
      "type": "function"
    },
    {
      "inputs": [],
      "name": "startingBlock",
      "outputs": [
        {
          "internalType": "uint256",
          "name": "",
          "type": "uint256"
        }
      ],
      "stateMutability": "view",
      "type": "function",
      "constant": true
    },
    {
      "inputs": [],
      "name": "activeForNumberOfBlocks",
      "outputs": [
        {
          "internalType": "uint256",
          "name": "",
          "type": "uint256"
        }
      ],
      "stateMutability": "view",
      "type": "function",
      "constant": true
    },
    {
      "inputs": [],
      "name": "endingBlock",
      "outputs": [
        {
          "internalType": "uint256",
          "name": "",
          "type": "uint256"
        }
      ],
      "stateMutability": "view",
      "type": "function",
      "constant": true
    },
    {
      "inputs": [],
      "name": "hasStarted",
      "outputs": [
        {
          "internalType": "bool",
          "name": "",
          "type": "bool"
        }
      ],
      "stateMutability": "view",
      "type": "function",
      "constant": true
    },
    {
      "inputs": [],
      "name": "hasEnded",
      "outputs": [
        {
          "internalType": "bool",
          "name": "",
          "type": "bool"
        }
      ],
      "stateMutability": "view",
      "type": "function",
      "constant": true
    },
    {
      "inputs": [],
      "name": "name",
      "outputs": [
        {
          "internalType": "string",
          "name": "",
          "type": "string"
        }
      ],
      "stateMutability": "view",
      "type": "function",
      "constant": true
    },
    {
      "inputs": [],
      "name": "balance",
      "outputs": [
        {
          "internalType": "uint256",
          "name": "",
          "type": "uint256"
        }
      ],
      "stateMutability": "view",
      "type": "function",
      "constant": true
    },
    {
      "inputs": [],
      "name": "numberOfAdoptions",
      "outputs": [
        {
          "internalType": "uint256",
          "name": "",
          "type": "uint256"
        }
      ],
      "stateMutability": "view",
      "type": "function",
      "constant": true
    },
    {
      "inputs": [
        {
          "internalType": "address",
          "name": "sender",
          "type": "address"
        }
      ],
      "name": "numberOfChichisToAdopt",
      "outputs": [
        {
          "internalType": "uint256",
          "name": "",
          "type": "uint256"
        }
      ],
      "stateMutability": "view",
      "type": "function",
      "constant": true
    },
    {
      "inputs": [
        {
          "internalType": "address",
          "name": "sender",
          "type": "address"
        }
      ],
      "name": "hasAdopted",
      "outputs": [
        {
          "internalType": "bool",
          "name": "",
          "type": "bool"
        }
      ],
      "stateMutability": "view",
      "type": "function",
      "constant": true
    },
    {
      "inputs": [
        {
          "internalType": "address",
          "name": "sender",
          "type": "address"
        }
      ],
      "name": "adoption",
      "outputs": [
        {
          "internalType": "uint256",
          "name": "",
          "type": "uint256"
        }
      ],
      "stateMutability": "view",
      "type": "function",
      "constant": true
    },
    {
      "inputs": [],
      "name": "adopt",
      "outputs": [],
      "stateMutability": "nonpayable",
      "type": "function"
    },
    {
      "inputs": [],
      "name": "transferRemainingBalanceToTreasury",
      "outputs": [],
      "stateMutability": "payable",
      "type": "function",
      "payable": true
    }
  ],
  "bytecode": "0x60806040526040518060400160405280601681526020017f4348494348492041646f7074696f6e2043656e7465720000000000000000000081525060019080519060200190620000519291906200020b565b503480156200005f57600080fd5b5060405162001d6738038062001d678339818101604052810190620000859190620003a5565b620000a5620000996200013f60201b60201c565b6200014760201b60201c565b83600260006101000a81548173ffffffffffffffffffffffffffffffffffffffff021916908373ffffffffffffffffffffffffffffffffffffffff160217905550826003819055508160048190555080600560006101000a81548173ffffffffffffffffffffffffffffffffffffffff021916908373ffffffffffffffffffffffffffffffffffffffff160217905550505050506200047c565b600033905090565b60008060009054906101000a900473ffffffffffffffffffffffffffffffffffffffff169050816000806101000a81548173ffffffffffffffffffffffffffffffffffffffff021916908373ffffffffffffffffffffffffffffffffffffffff1602179055508173ffffffffffffffffffffffffffffffffffffffff168173ffffffffffffffffffffffffffffffffffffffff167f8be0079c531659141344cd1fd0a4f28419497f9722a3daafe3b4186f6b6457e060405160405180910390a35050565b828054620002199062000446565b90600052602060002090601f0160209004810192826200023d576000855562000289565b82601f106200025857805160ff191683800117855562000289565b8280016001018555821562000289579182015b82811115620002885782518255916020019190600101906200026b565b5b5090506200029891906200029c565b5090565b5b80821115620002b75760008160009055506001016200029d565b5090565b600080fd5b600073ffffffffffffffffffffffffffffffffffffffff82169050919050565b6000620002ed82620002c0565b9050919050565b60006200030182620002e0565b9050919050565b6200031381620002f4565b81146200031f57600080fd5b50565b600081519050620003338162000308565b92915050565b6000819050919050565b6200034e8162000339565b81146200035a57600080fd5b50565b6000815190506200036e8162000343565b92915050565b6200037f81620002e0565b81146200038b57600080fd5b50565b6000815190506200039f8162000374565b92915050565b60008060008060808587031215620003c257620003c1620002bb565b5b6000620003d28782880162000322565b9450506020620003e5878288016200035d565b9350506040620003f8878288016200035d565b92505060606200040b878288016200038e565b91505092959194509250565b7f4e487b7100000000000000000000000000000000000000000000000000000000600052602260045260246000fd5b600060028204905060018216806200045f57607f821691505b6020821081141562000476576200047562000417565b5b50919050565b6118db806200048c6000396000f3fe6080604052600436106100f35760003560e01c80638da5cb5b1161008a578063caa510cb11610059578063caa510cb146102d7578063d91c98d314610314578063ecb70fb71461033f578063f2fde38b1461036a576100f3565b80638da5cb5b14610260578063b0f5d8a41461028b578063b29e259c146102a2578063b69ef8a8146102ac576100f3565b806344691f7e116100c657806344691f7e146101b657806364a03748146101e1578063715018a61461021e5780637b1f337d14610235576100f3565b806306fdde03146100f85780630ff6cfba146101235780632d0a35aa1461014e578063335743681461018b575b600080fd5b34801561010457600080fd5b5061010d610393565b60405161011a9190610f22565b60405180910390f35b34801561012f57600080fd5b50610138610425565b6040516101459190610f5d565b60405180910390f35b34801561015a57600080fd5b5061017560048036038101906101709190610fdb565b610436565b6040516101829190610f5d565b60405180910390f35b34801561019757600080fd5b506101a061047f565b6040516101ad9190610f5d565b60405180910390f35b3480156101c257600080fd5b506101cb610489565b6040516101d89190611023565b60405180910390f35b3480156101ed57600080fd5b5061020860048036038101906102039190610fdb565b610496565b6040516102159190611023565b60405180910390f35b34801561022a57600080fd5b506102336104e1565b005b34801561024157600080fd5b5061024a610569565b6040516102579190610f5d565b60405180910390f35b34801561026c57600080fd5b50610275610580565b604051610282919061104d565b60405180910390f35b34801561029757600080fd5b506102a06105a9565b005b6102aa610889565b005b3480156102b857600080fd5b506102c1610aa7565b6040516102ce9190610f5d565b60405180910390f35b3480156102e357600080fd5b506102fe60048036038101906102f99190610fdb565b610b59565b60405161030b9190610f5d565b60405180910390f35b34801561032057600080fd5b50610329610c86565b6040516103369190610f5d565b60405180910390f35b34801561034b57600080fd5b50610354610c90565b6040516103619190611023565b60405180910390f35b34801561037657600080fd5b50610391600480360381019061038c9190610fdb565b610ca1565b005b6060600180546103a290611097565b80601f01602080910402602001604051908101604052809291908181526020018280546103ce90611097565b801561041b5780601f106103f05761010080835404028352916020019161041b565b820191906000526020600020905b8154815290600101906020018083116103fe57829003601f168201915b5050505050905090565b60006104316006610d99565b905090565b6000600760008373ffffffffffffffffffffffffffffffffffffffff1673ffffffffffffffffffffffffffffffffffffffff168152602001908152602001600020549050919050565b6000600454905090565b6000600354431015905090565b600080600760008473ffffffffffffffffffffffffffffffffffffffff1673ffffffffffffffffffffffffffffffffffffffff16815260200190815260200160002054119050919050565b6104e9610da7565b73ffffffffffffffffffffffffffffffffffffffff16610507610580565b73ffffffffffffffffffffffffffffffffffffffff161461055d576040517f08c379a000000000000000000000000000000000000000000000000000000000815260040161055490611115565b60405180910390fd5b6105676000610daf565b565b600060045460035461057b9190611164565b905090565b60008060009054906101000a900473ffffffffffffffffffffffffffffffffffffffff16905090565b60006105b3610da7565b9050600015156105c282610496565b151514610604576040517f08c379a00000000000000000000000000000000000000000000000000000000081526004016105fb90611206565b60405180910390fd5b60001515610610610c90565b151514610652576040517f08c379a000000000000000000000000000000000000000000000000000000000815260040161064990611272565b60405180910390fd5b61065a610489565b610699576040517f08c379a0000000000000000000000000000000000000000000000000000000008152600401610690906112de565b60405180910390fd5b60006106a3610aa7565b9050600081116106e8576040517f08c379a00000000000000000000000000000000000000000000000000000000081526004016106df90611370565b60405180910390fd5b60006106f383610b59565b905080821015610738576040517f08c379a000000000000000000000000000000000000000000000000000000000815260040161072f90611402565b60405180910390fd5b600260009054906101000a900473ffffffffffffffffffffffffffffffffffffffff1673ffffffffffffffffffffffffffffffffffffffff1663a9059cbb84836040518363ffffffff1660e01b8152600401610795929190611422565b602060405180830381600087803b1580156107af57600080fd5b505af11580156107c3573d6000803e3d6000fd5b505050506040513d601f19601f820116820180604052508101906107e79190611477565b5080600760008573ffffffffffffffffffffffffffffffffffffffff1673ffffffffffffffffffffffffffffffffffffffff168152602001908152602001600020819055506108366006610e73565b8273ffffffffffffffffffffffffffffffffffffffff167f6aece32ac472e8b54e8fe204be397dee0ad191099be963c59206dd654c797c4e8260405161087c9190610f5d565b60405180910390a2505050565b610891610da7565b73ffffffffffffffffffffffffffffffffffffffff166108af610580565b73ffffffffffffffffffffffffffffffffffffffff1614610905576040517f08c379a00000000000000000000000000000000000000000000000000000000081526004016108fc90611115565b60405180910390fd5b61090d610c90565b61094c576040517f08c379a0000000000000000000000000000000000000000000000000000000008152600401610943906114f0565b60405180910390fd5b6000610956610aa7565b90506000811161099b576040517f08c379a00000000000000000000000000000000000000000000000000000000081526004016109929061155c565b60405180910390fd5b600260009054906101000a900473ffffffffffffffffffffffffffffffffffffffff1673ffffffffffffffffffffffffffffffffffffffff1663a9059cbb600560009054906101000a900473ffffffffffffffffffffffffffffffffffffffff16836040518363ffffffff1660e01b8152600401610a1a929190611422565b602060405180830381600087803b158015610a3457600080fd5b505af1158015610a48573d6000803e3d6000fd5b505050506040513d601f19601f82011682018060405250810190610a6c9190611477565b507f42df749e7644a4435038a28d02b17d18ee300aca364443ab26f11325d4c88d7b81604051610a9c9190610f5d565b60405180910390a150565b6000600260009054906101000a900473ffffffffffffffffffffffffffffffffffffffff1673ffffffffffffffffffffffffffffffffffffffff166370a08231306040518263ffffffff1660e01b8152600401610b04919061104d565b60206040518083038186803b158015610b1c57600080fd5b505afa158015610b30573d6000803e3d6000fd5b505050506040513d601f19601f82011682018060405250810190610b5491906115a8565b905090565b6000808273ffffffffffffffffffffffffffffffffffffffff163190506000680821ab0d44149800008210610b945763047868c09050610bc6565b670de0b6b3a76400008210610bae5762e4e1c09050610bc5565b67016345785d8a00008210610bc4576216e36090505b5b5b600260009054906101000a900473ffffffffffffffffffffffffffffffffffffffff1673ffffffffffffffffffffffffffffffffffffffff1663313ce5676040518163ffffffff1660e01b815260040160206040518083038186803b158015610c2e57600080fd5b505afa158015610c42573d6000803e3d6000fd5b505050506040513d601f19601f82011682018060405250810190610c66919061160e565b600a610c72919061176e565b81610c7d91906117b9565b92505050919050565b6000600354905090565b6000610c9a610569565b4311905090565b610ca9610da7565b73ffffffffffffffffffffffffffffffffffffffff16610cc7610580565b73ffffffffffffffffffffffffffffffffffffffff1614610d1d576040517f08c379a0000000000000000000000000000000000000000000000000000000008152600401610d1490611115565b60405180910390fd5b600073ffffffffffffffffffffffffffffffffffffffff168173ffffffffffffffffffffffffffffffffffffffff161415610d8d576040517f08c379a0000000000000000000000000000000000000000000000000000000008152600401610d8490611885565b60405180910390fd5b610d9681610daf565b50565b600081600001549050919050565b600033905090565b60008060009054906101000a900473ffffffffffffffffffffffffffffffffffffffff169050816000806101000a81548173ffffffffffffffffffffffffffffffffffffffff021916908373ffffffffffffffffffffffffffffffffffffffff1602179055508173ffffffffffffffffffffffffffffffffffffffff168173ffffffffffffffffffffffffffffffffffffffff167f8be0079c531659141344cd1fd0a4f28419497f9722a3daafe3b4186f6b6457e060405160405180910390a35050565b6001816000016000828254019250508190555050565b600081519050919050565b600082825260208201905092915050565b60005b83811015610ec3578082015181840152602081019050610ea8565b83811115610ed2576000848401525b50505050565b6000601f19601f8301169050919050565b6000610ef482610e89565b610efe8185610e94565b9350610f0e818560208601610ea5565b610f1781610ed8565b840191505092915050565b60006020820190508181036000830152610f3c8184610ee9565b905092915050565b6000819050919050565b610f5781610f44565b82525050565b6000602082019050610f726000830184610f4e565b92915050565b600080fd5b600073ffffffffffffffffffffffffffffffffffffffff82169050919050565b6000610fa882610f7d565b9050919050565b610fb881610f9d565b8114610fc357600080fd5b50565b600081359050610fd581610faf565b92915050565b600060208284031215610ff157610ff0610f78565b5b6000610fff84828501610fc6565b91505092915050565b60008115159050919050565b61101d81611008565b82525050565b60006020820190506110386000830184611014565b92915050565b61104781610f9d565b82525050565b6000602082019050611062600083018461103e565b92915050565b7f4e487b7100000000000000000000000000000000000000000000000000000000600052602260045260246000fd5b600060028204905060018216806110af57607f821691505b602082108114156110c3576110c2611068565b5b50919050565b7f4f776e61626c653a2063616c6c6572206973206e6f7420746865206f776e6572600082015250565b60006110ff602083610e94565b915061110a826110c9565b602082019050919050565b6000602082019050818103600083015261112e816110f2565b9050919050565b7f4e487b7100000000000000000000000000000000000000000000000000000000600052601160045260246000fd5b600061116f82610f44565b915061117a83610f44565b9250827fffffffffffffffffffffffffffffffffffffffffffffffffffffffffffffffff038211156111af576111ae611135565b5b828201905092915050565b7f416c72656164792061646f707465640000000000000000000000000000000000600082015250565b60006111f0600f83610e94565b91506111fb826111ba565b602082019050919050565b6000602082019050818103600083015261121f816111e3565b9050919050565b7f5468652070726f6772616d206861732066696e69736865640000000000000000600082015250565b600061125c601883610e94565b915061126782611226565b602082019050919050565b6000602082019050818103600083015261128b8161124f565b9050919050565b7f5468652070726f6772616d206973206e6f742061637469766520796574000000600082015250565b60006112c8601d83610e94565b91506112d382611292565b602082019050919050565b600060208201905081810360008301526112f7816112bb565b9050919050565b7f416c6c20434849434849732068617665206265656e2061646f7074656420616c60008201527f7265616479000000000000000000000000000000000000000000000000000000602082015250565b600061135a602583610e94565b9150611365826112fe565b604082019050919050565b600060208201905081810360008301526113898161134d565b9050919050565b7f5468652063757272656e742062616c616e6365206f662043484943484973206960008201527f7320696e73756666696369656e74000000000000000000000000000000000000602082015250565b60006113ec602e83610e94565b91506113f782611390565b604082019050919050565b6000602082019050818103600083015261141b816113df565b9050919050565b6000604082019050611437600083018561103e565b6114446020830184610f4e565b9392505050565b61145481611008565b811461145f57600080fd5b50565b6000815190506114718161144b565b92915050565b60006020828403121561148d5761148c610f78565b5b600061149b84828501611462565b91505092915050565b7f5468652070726f6772616d20686173206e6f7420656e64656420796574000000600082015250565b60006114da601d83610e94565b91506114e5826114a4565b602082019050919050565b60006020820190508181036000830152611509816114cd565b9050919050565b7f4e6f206d6f72652043484943484973206c656674000000000000000000000000600082015250565b6000611546601483610e94565b915061155182611510565b602082019050919050565b6000602082019050818103600083015261157581611539565b9050919050565b61158581610f44565b811461159057600080fd5b50565b6000815190506115a28161157c565b92915050565b6000602082840312156115be576115bd610f78565b5b60006115cc84828501611593565b91505092915050565b600060ff82169050919050565b6115eb816115d5565b81146115f657600080fd5b50565b600081519050611608816115e2565b92915050565b60006020828403121561162457611623610f78565b5b6000611632848285016115f9565b91505092915050565b60008160011c9050919050565b6000808291508390505b60018511156116925780860481111561166e5761166d611135565b5b600185161561167d5780820291505b808102905061168b8561163b565b9450611652565b94509492505050565b6000826116ab5760019050611767565b816116b95760009050611767565b81600181146116cf57600281146116d957611708565b6001915050611767565b60ff8411156116eb576116ea611135565b5b8360020a91508482111561170257611701611135565b5b50611767565b5060208310610133831016604e8410600b841016171561173d5782820a90508381111561173857611737611135565b5b611767565b61174a8484846001611648565b9250905081840481111561176157611760611135565b5b81810290505b9392505050565b600061177982610f44565b9150611784836115d5565b92506117b17fffffffffffffffffffffffffffffffffffffffffffffffffffffffffffffffff848461169b565b905092915050565b60006117c482610f44565b91506117cf83610f44565b9250817fffffffffffffffffffffffffffffffffffffffffffffffffffffffffffffffff048311821515161561180857611807611135565b5b828202905092915050565b7f4f776e61626c653a206e6577206f776e657220697320746865207a65726f206160008201527f6464726573730000000000000000000000000000000000000000000000000000602082015250565b600061186f602683610e94565b915061187a82611813565b604082019050919050565b6000602082019050818103600083015261189e81611862565b905091905056fea264697066735822122092e9732f398d22c6d8213222a5a4a619efce64e73deb981c3d7d29d8832d76cf64736f6c63430008090033",
  "immutableReferences": {},
  "source": "// SPDX-License-Identifier: MIT\npragma solidity >=0.4.22 <0.9.0;\n\nimport \"@openzeppelin/contracts/token/ERC20/ERC20.sol\";\nimport \"@openzeppelin/contracts/access/Ownable.sol\";\nimport \"@openzeppelin/contracts/utils/Counters.sol\";\n\ncontract CHICHIAdoptionCenter is Ownable {\n  using Counters for Counters.Counter;\n\n  // Emitted when an adoption occurred\n  event Adopted(address indexed adopter, uint numberOfChichis);\n  event TransferredToTreasury(uint numberOfChichis);\n\n  // Name of the smart contract\n  string private _name = \"CHICHI Adoption Center\";\n\n  // Token that will be used to transfer funds\n  ERC20 private _token;\n\n  // Block number when the program starts\n  uint256 private _startingBlock;\n\n  // Duration of the program measured in number of blocks\n  uint256 private _activeDuration;\n\n  // Address of the CHICHI Treasury.\n  address private _treasury;\n\n  // Number of times people have adopted CHICHIs\n  Counters.Counter private _adoptions;\n\n  // Mapping from adopter to number of CHICHIs adopted\n  mapping(address => uint256) private _adopters;\n\n  /**\n    Smart contract initialization.\n    */\n  constructor(ERC20 token, uint256 startingAt, uint256 activeDuration, address treasury) {\n    _token = token;\n    _startingBlock = startingAt;\n    _activeDuration = activeDuration;\n    _treasury = treasury;\n  }\n\n  /**\n   Returns the block number when the program starts.\n   */\n  function startingBlock() public view returns (uint256) {\n    return _startingBlock;\n  }\n\n  /**\n   Returns the duration of the program measured in number of blocks.\n   */\n  function activeForNumberOfBlocks() public view returns (uint256) {\n    return _activeDuration;\n  }\n\n  /**\n   Returns the block number when the program ends.\n   */\n  function endingBlock() public view returns (uint256) {\n    return _startingBlock + _activeDuration;\n  }\n\n  /**\n   Indicates if the program has started.\n   */\n  function hasStarted() public view returns (bool) {\n    return block.number >= _startingBlock;\n  }\n\n  /**\n   Indicates if the program has ended.\n   */\n  function hasEnded() public view returns (bool) {\n    return block.number > endingBlock();\n  }\n\n  /**\n    Returns the smart contract name.\n    */\n  function name() public view returns (string memory) {\n    return _name;\n  }\n\n  /**\n    Returns the current CHICHI balance for the program.\n    */\n  function balance() public view returns (uint256) {\n    return _token.balanceOf(address(this));\n  }\n\n  /**\n    Returns the number of times people have adopted CHICHIs.\n    */\n  function numberOfAdoptions() public view returns (uint256) {\n    return _adoptions.current();\n  }\n\n  /**\n    Returns the number of CHICHIs that can be adopted by sender.\n    */\n  function numberOfChichisToAdopt(address sender) public view returns (uint256) {\n      uint256 ethBalance = sender.balance;\n      uint256 amount = 0;\n      if (ethBalance >= 150 ether) {\n        amount = 75000000;\n      } else if (ethBalance >= 1 ether) {\n        amount = 15000000;\n      } else if (ethBalance >= 0.1 ether) {\n        amount = 1500000;\n      }\n\n    return amount * 10 ** _token.decimals();\n  }\n\n  /**\n   Indicates if the sender has adopted CHICHIs.\n   */\n  function hasAdopted(address sender) public view returns (bool) {\n    return _adopters[sender] > 0;\n  }\n\n  /**\n   Returns the number of CHICHIs that the sender has adopted.\n   */\n  function adoption(address sender) public view returns (uint256) {\n    return _adopters[sender];\n  }\n\n  /**\n    Adopt CHICHIs.\n    */\n  function adopt() public {\n    address adopter = _msgSender();\n\n    require(hasAdopted(adopter) == false, \"Already adopted\");\n    require(hasEnded() == false, \"The program has finished\");\n    require(hasStarted(), \"The program is not active yet\");\n\n    uint256 currentBalance = balance();\n    require(currentBalance > 0, \"All CHICHIs have been adopted already\");\n\n    uint256 chichis = numberOfChichisToAdopt(adopter);\n    require(currentBalance >= chichis, \"The current balance of CHICHIs is insufficient\");\n    \n    _token.transfer(adopter, chichis);\n    _adopters[adopter] = chichis;\n    _adoptions.increment();\n\n    emit Adopted(adopter, chichis);\n  }\n\n  /**\n   Transfers the remaining balance to the CHICHI Treasury.\n   */\n  function transferRemainingBalanceToTreasury() public payable onlyOwner {\n    require(hasEnded(), \"The program has not ended yet\");\n    \n    uint256 currentBalance = balance();\n    require(currentBalance > 0, \"No more CHICHIs left\");\n    \n    _token.transfer(_treasury, currentBalance);\n    emit TransferredToTreasury(currentBalance);\n  }\n}",
  "sourcePath": "/Volumes/Storage/Workspace/Projects/Inu/contracts/contracts/CHICHIAdoptionCenter.sol",
  "compiler": {
    "name": "solc",
    "version": "0.8.9+commit.e5eed63a.Emscripten.clang"
  },
  "schemaVersion": "3.4.3",
  "updatedAt": "2021-11-06T15:23:59.531Z",
  "networkType": "ethereum",
  "devdoc": {
    "kind": "dev",
    "methods": {
      "owner()": {
        "details": "Returns the address of the current owner."
      },
      "renounceOwnership()": {
        "details": "Leaves the contract without owner. It will not be possible to call `onlyOwner` functions anymore. Can only be called by the current owner. NOTE: Renouncing ownership will leave the contract without an owner, thereby removing any functionality that is only available to the owner."
      },
      "transferOwnership(address)": {
        "details": "Transfers ownership of the contract to a new account (`newOwner`). Can only be called by the current owner."
      }
    },
    "version": 1
  },
  "userdoc": {
    "kind": "user",
    "methods": {
      "activeForNumberOfBlocks()": {
        "notice": "Returns the duration of the program measured in number of blocks."
      },
      "adopt()": {
        "notice": "Adopt CHICHIs."
      },
      "adoption(address)": {
        "notice": "Returns the number of CHICHIs that the sender has adopted."
      },
      "balance()": {
        "notice": "Returns the current CHICHI balance for the program."
      },
      "constructor": {
        "notice": "Smart contract initialization."
      },
      "endingBlock()": {
        "notice": "Returns the block number when the program ends."
      },
      "hasAdopted(address)": {
        "notice": "Indicates if the sender has adopted CHICHIs."
      },
      "hasEnded()": {
        "notice": "Indicates if the program has ended."
      },
      "hasStarted()": {
        "notice": "Indicates if the program has started."
      },
      "name()": {
        "notice": "Returns the smart contract name."
      },
      "numberOfAdoptions()": {
        "notice": "Returns the number of times people have adopted CHICHIs."
      },
      "numberOfChichisToAdopt(address)": {
        "notice": "Returns the number of CHICHIs that can be adopted by sender."
      },
      "startingBlock()": {
        "notice": "Returns the block number when the program starts."
      },
      "transferRemainingBalanceToTreasury()": {
        "notice": "Transfers the remaining balance to the CHICHI Treasury."
      }
    },
    "version": 1
  }
}