{
  "contractName": "CHICHIAdoptionCenter",
  "abi": [
    {
      "inputs": [
        {
          "internalType": "contract ERC20",
          "name": "token",
          "type": "address"
        },
        {
          "internalType": "uint256",
          "name": "startingAt",
          "type": "uint256"
        },
        {
          "internalType": "uint256",
          "name": "activeDuration",
          "type": "uint256"
        },
        {
          "internalType": "address",
          "name": "treasury",
          "type": "address"
        }
      ],
      "stateMutability": "nonpayable",
      "type": "constructor"
    },
    {
      "anonymous": false,
      "inputs": [
        {
          "indexed": true,
          "internalType": "address",
          "name": "adopter",
          "type": "address"
        },
        {
          "indexed": false,
          "internalType": "uint256",
          "name": "numberOfChichis",
          "type": "uint256"
        }
      ],
      "name": "Adopted",
      "type": "event"
    },
    {
      "anonymous": false,
      "inputs": [
        {
          "indexed": true,
          "internalType": "address",
          "name": "previousOwner",
          "type": "address"
        },
        {
          "indexed": true,
          "internalType": "address",
          "name": "newOwner",
          "type": "address"
        }
      ],
      "name": "OwnershipTransferred",
      "type": "event"
    },
    {
      "anonymous": false,
      "inputs": [
        {
          "indexed": false,
          "internalType": "uint256",
          "name": "numberOfChichis",
          "type": "uint256"
        }
      ],
      "name": "TransferredToTreasury",
      "type": "event"
    },
    {
      "inputs": [],
      "name": "owner",
      "outputs": [
        {
          "internalType": "address",
          "name": "",
          "type": "address"
        }
      ],
      "stateMutability": "view",
      "type": "function"
    },
    {
      "inputs": [],
      "name": "renounceOwnership",
      "outputs": [],
      "stateMutability": "nonpayable",
      "type": "function"
    },
    {
      "inputs": [
        {
          "internalType": "address",
          "name": "newOwner",
          "type": "address"
        }
      ],
      "name": "transferOwnership",
      "outputs": [],
      "stateMutability": "nonpayable",
      "type": "function"
    },
    {
      "inputs": [],
      "name": "startingBlock",
      "outputs": [
        {
          "internalType": "uint256",
          "name": "",
          "type": "uint256"
        }
      ],
      "stateMutability": "view",
      "type": "function"
    },
    {
      "inputs": [],
      "name": "activeForNumberOfBlocks",
      "outputs": [
        {
          "internalType": "uint256",
          "name": "",
          "type": "uint256"
        }
      ],
      "stateMutability": "view",
      "type": "function"
    },
    {
      "inputs": [],
      "name": "endingBlock",
      "outputs": [
        {
          "internalType": "uint256",
          "name": "",
          "type": "uint256"
        }
      ],
      "stateMutability": "view",
      "type": "function"
    },
    {
      "inputs": [],
      "name": "hasStarted",
      "outputs": [
        {
          "internalType": "bool",
          "name": "",
          "type": "bool"
        }
      ],
      "stateMutability": "view",
      "type": "function"
    },
    {
      "inputs": [],
      "name": "hasEnded",
      "outputs": [
        {
          "internalType": "bool",
          "name": "",
          "type": "bool"
        }
      ],
      "stateMutability": "view",
      "type": "function"
    },
    {
      "inputs": [],
      "name": "name",
      "outputs": [
        {
          "internalType": "string",
          "name": "",
          "type": "string"
        }
      ],
      "stateMutability": "view",
      "type": "function"
    },
    {
      "inputs": [],
      "name": "balance",
      "outputs": [
        {
          "internalType": "uint256",
          "name": "",
          "type": "uint256"
        }
      ],
      "stateMutability": "view",
      "type": "function"
    },
    {
      "inputs": [],
      "name": "numberOfAdoptions",
      "outputs": [
        {
          "internalType": "uint256",
          "name": "",
          "type": "uint256"
        }
      ],
      "stateMutability": "view",
      "type": "function"
    },
    {
      "inputs": [
        {
          "internalType": "address",
          "name": "sender",
          "type": "address"
        }
      ],
      "name": "numberOfChichisToAdopt",
      "outputs": [
        {
          "internalType": "uint256",
          "name": "",
          "type": "uint256"
        }
      ],
      "stateMutability": "view",
      "type": "function"
    },
    {
      "inputs": [
        {
          "internalType": "address",
          "name": "sender",
          "type": "address"
        }
      ],
      "name": "hasAdopted",
      "outputs": [
        {
          "internalType": "bool",
          "name": "",
          "type": "bool"
        }
      ],
      "stateMutability": "view",
      "type": "function"
    },
    {
      "inputs": [
        {
          "internalType": "address",
          "name": "sender",
          "type": "address"
        }
      ],
      "name": "adoption",
      "outputs": [
        {
          "internalType": "uint256",
          "name": "",
          "type": "uint256"
        }
      ],
      "stateMutability": "view",
      "type": "function"
    },
    {
      "inputs": [],
      "name": "adopt",
      "outputs": [],
      "stateMutability": "nonpayable",
      "type": "function"
    },
    {
      "inputs": [],
      "name": "transferRemainingBalanceToTreasury",
      "outputs": [],
      "stateMutability": "nonpayable",
      "type": "function"
    }
  ],
  "bytecode": "0x60806040526040518060400160405280601681526020017f4348494348492041646f7074696f6e2043656e7465720000000000000000000081525060019080519060200190620000519291906200020b565b503480156200005f57600080fd5b5060405162001cb138038062001cb18339818101604052810190620000859190620003a5565b620000a5620000996200013f60201b60201c565b6200014760201b60201c565b83600260006101000a81548173ffffffffffffffffffffffffffffffffffffffff021916908373ffffffffffffffffffffffffffffffffffffffff160217905550826003819055508160048190555080600560006101000a81548173ffffffffffffffffffffffffffffffffffffffff021916908373ffffffffffffffffffffffffffffffffffffffff160217905550505050506200047c565b600033905090565b60008060009054906101000a900473ffffffffffffffffffffffffffffffffffffffff169050816000806101000a81548173ffffffffffffffffffffffffffffffffffffffff021916908373ffffffffffffffffffffffffffffffffffffffff1602179055508173ffffffffffffffffffffffffffffffffffffffff168173ffffffffffffffffffffffffffffffffffffffff167f8be0079c531659141344cd1fd0a4f28419497f9722a3daafe3b4186f6b6457e060405160405180910390a35050565b828054620002199062000446565b90600052602060002090601f0160209004810192826200023d576000855562000289565b82601f106200025857805160ff191683800117855562000289565b8280016001018555821562000289579182015b82811115620002885782518255916020019190600101906200026b565b5b5090506200029891906200029c565b5090565b5b80821115620002b75760008160009055506001016200029d565b5090565b600080fd5b600073ffffffffffffffffffffffffffffffffffffffff82169050919050565b6000620002ed82620002c0565b9050919050565b60006200030182620002e0565b9050919050565b6200031381620002f4565b81146200031f57600080fd5b50565b600081519050620003338162000308565b92915050565b6000819050919050565b6200034e8162000339565b81146200035a57600080fd5b50565b6000815190506200036e8162000343565b92915050565b6200037f81620002e0565b81146200038b57600080fd5b50565b6000815190506200039f8162000374565b92915050565b60008060008060808587031215620003c257620003c1620002bb565b5b6000620003d28782880162000322565b9450506020620003e5878288016200035d565b9350506040620003f8878288016200035d565b92505060606200040b878288016200038e565b91505092959194509250565b7f4e487b7100000000000000000000000000000000000000000000000000000000600052602260045260246000fd5b600060028204905060018216806200045f57607f821691505b6020821081141562000476576200047562000417565b5b50919050565b611825806200048c6000396000f3fe608060405234801561001057600080fd5b50600436106101005760003560e01c80638da5cb5b11610097578063caa510cb11610066578063caa510cb14610255578063d91c98d314610285578063ecb70fb7146102a3578063f2fde38b146102c157610100565b80638da5cb5b14610205578063b0f5d8a414610223578063b29e259c1461022d578063b69ef8a81461023757610100565b806344691f7e116100d357806344691f7e1461018f57806364a03748146101ad578063715018a6146101dd5780637b1f337d146101e757610100565b806306fdde03146101055780630ff6cfba146101235780632d0a35aa146101415780633357436814610171575b600080fd5b61010d6102dd565b60405161011a9190610e6c565b60405180910390f35b61012b61036f565b6040516101389190610ea7565b60405180910390f35b61015b60048036038101906101569190610f25565b610380565b6040516101689190610ea7565b60405180910390f35b6101796103c9565b6040516101869190610ea7565b60405180910390f35b6101976103d3565b6040516101a49190610f6d565b60405180910390f35b6101c760048036038101906101c29190610f25565b6103e0565b6040516101d49190610f6d565b60405180910390f35b6101e561042b565b005b6101ef6104b3565b6040516101fc9190610ea7565b60405180910390f35b61020d6104ca565b60405161021a9190610f97565b60405180910390f35b61022b6104f3565b005b6102356107d3565b005b61023f6109f1565b60405161024c9190610ea7565b60405180910390f35b61026f600480360381019061026a9190610f25565b610aa3565b60405161027c9190610ea7565b60405180910390f35b61028d610bd0565b60405161029a9190610ea7565b60405180910390f35b6102ab610bda565b6040516102b89190610f6d565b60405180910390f35b6102db60048036038101906102d69190610f25565b610beb565b005b6060600180546102ec90610fe1565b80601f016020809104026020016040519081016040528092919081815260200182805461031890610fe1565b80156103655780601f1061033a57610100808354040283529160200191610365565b820191906000526020600020905b81548152906001019060200180831161034857829003601f168201915b5050505050905090565b600061037b6006610ce3565b905090565b6000600760008373ffffffffffffffffffffffffffffffffffffffff1673ffffffffffffffffffffffffffffffffffffffff168152602001908152602001600020549050919050565b6000600454905090565b6000600354431015905090565b600080600760008473ffffffffffffffffffffffffffffffffffffffff1673ffffffffffffffffffffffffffffffffffffffff16815260200190815260200160002054119050919050565b610433610cf1565b73ffffffffffffffffffffffffffffffffffffffff166104516104ca565b73ffffffffffffffffffffffffffffffffffffffff16146104a7576040517f08c379a000000000000000000000000000000000000000000000000000000000815260040161049e9061105f565b60405180910390fd5b6104b16000610cf9565b565b60006004546003546104c591906110ae565b905090565b60008060009054906101000a900473ffffffffffffffffffffffffffffffffffffffff16905090565b60006104fd610cf1565b90506000151561050c826103e0565b15151461054e576040517f08c379a000000000000000000000000000000000000000000000000000000000815260040161054590611150565b60405180910390fd5b6000151561055a610bda565b15151461059c576040517f08c379a0000000000000000000000000000000000000000000000000000000008152600401610593906111bc565b60405180910390fd5b6105a46103d3565b6105e3576040517f08c379a00000000000000000000000000000000000000000000000000000000081526004016105da90611228565b60405180910390fd5b60006105ed6109f1565b905060008111610632576040517f08c379a0000000000000000000000000000000000000000000000000000000008152600401610629906112ba565b60405180910390fd5b600061063d83610aa3565b905080821015610682576040517f08c379a00000000000000000000000000000000000000000000000000000000081526004016106799061134c565b60405180910390fd5b600260009054906101000a900473ffffffffffffffffffffffffffffffffffffffff1673ffffffffffffffffffffffffffffffffffffffff1663a9059cbb84836040518363ffffffff1660e01b81526004016106df92919061136c565b602060405180830381600087803b1580156106f957600080fd5b505af115801561070d573d6000803e3d6000fd5b505050506040513d601f19601f8201168201806040525081019061073191906113c1565b5080600760008573ffffffffffffffffffffffffffffffffffffffff1673ffffffffffffffffffffffffffffffffffffffff168152602001908152602001600020819055506107806006610dbd565b8273ffffffffffffffffffffffffffffffffffffffff167f6aece32ac472e8b54e8fe204be397dee0ad191099be963c59206dd654c797c4e826040516107c69190610ea7565b60405180910390a2505050565b6107db610cf1565b73ffffffffffffffffffffffffffffffffffffffff166107f96104ca565b73ffffffffffffffffffffffffffffffffffffffff161461084f576040517f08c379a00000000000000000000000000000000000000000000000000000000081526004016108469061105f565b60405180910390fd5b610857610bda565b610896576040517f08c379a000000000000000000000000000000000000000000000000000000000815260040161088d9061143a565b60405180910390fd5b60006108a06109f1565b9050600081116108e5576040517f08c379a00000000000000000000000000000000000000000000000000000000081526004016108dc906114a6565b60405180910390fd5b600260009054906101000a900473ffffffffffffffffffffffffffffffffffffffff1673ffffffffffffffffffffffffffffffffffffffff1663a9059cbb600560009054906101000a900473ffffffffffffffffffffffffffffffffffffffff16836040518363ffffffff1660e01b815260040161096492919061136c565b602060405180830381600087803b15801561097e57600080fd5b505af1158015610992573d6000803e3d6000fd5b505050506040513d601f19601f820116820180604052508101906109b691906113c1565b507f42df749e7644a4435038a28d02b17d18ee300aca364443ab26f11325d4c88d7b816040516109e69190610ea7565b60405180910390a150565b6000600260009054906101000a900473ffffffffffffffffffffffffffffffffffffffff1673ffffffffffffffffffffffffffffffffffffffff166370a08231306040518263ffffffff1660e01b8152600401610a4e9190610f97565b60206040518083038186803b158015610a6657600080fd5b505afa158015610a7a573d6000803e3d6000fd5b505050506040513d601f19601f82011682018060405250810190610a9e91906114f2565b905090565b6000808273ffffffffffffffffffffffffffffffffffffffff163190506000680821ab0d44149800008210610ade5763047868c09050610b10565b670de0b6b3a76400008210610af85762e4e1c09050610b0f565b67016345785d8a00008210610b0e576216e36090505b5b5b600260009054906101000a900473ffffffffffffffffffffffffffffffffffffffff1673ffffffffffffffffffffffffffffffffffffffff1663313ce5676040518163ffffffff1660e01b815260040160206040518083038186803b158015610b7857600080fd5b505afa158015610b8c573d6000803e3d6000fd5b505050506040513d601f19601f82011682018060405250810190610bb09190611558565b600a610bbc91906116b8565b81610bc79190611703565b92505050919050565b6000600354905090565b6000610be46104b3565b4311905090565b610bf3610cf1565b73ffffffffffffffffffffffffffffffffffffffff16610c116104ca565b73ffffffffffffffffffffffffffffffffffffffff1614610c67576040517f08c379a0000000000000000000000000000000000000000000000000000000008152600401610c5e9061105f565b60405180910390fd5b600073ffffffffffffffffffffffffffffffffffffffff168173ffffffffffffffffffffffffffffffffffffffff161415610cd7576040517f08c379a0000000000000000000000000000000000000000000000000000000008152600401610cce906117cf565b60405180910390fd5b610ce081610cf9565b50565b600081600001549050919050565b600033905090565b60008060009054906101000a900473ffffffffffffffffffffffffffffffffffffffff169050816000806101000a81548173ffffffffffffffffffffffffffffffffffffffff021916908373ffffffffffffffffffffffffffffffffffffffff1602179055508173ffffffffffffffffffffffffffffffffffffffff168173ffffffffffffffffffffffffffffffffffffffff167f8be0079c531659141344cd1fd0a4f28419497f9722a3daafe3b4186f6b6457e060405160405180910390a35050565b6001816000016000828254019250508190555050565b600081519050919050565b600082825260208201905092915050565b60005b83811015610e0d578082015181840152602081019050610df2565b83811115610e1c576000848401525b50505050565b6000601f19601f8301169050919050565b6000610e3e82610dd3565b610e488185610dde565b9350610e58818560208601610def565b610e6181610e22565b840191505092915050565b60006020820190508181036000830152610e868184610e33565b905092915050565b6000819050919050565b610ea181610e8e565b82525050565b6000602082019050610ebc6000830184610e98565b92915050565b600080fd5b600073ffffffffffffffffffffffffffffffffffffffff82169050919050565b6000610ef282610ec7565b9050919050565b610f0281610ee7565b8114610f0d57600080fd5b50565b600081359050610f1f81610ef9565b92915050565b600060208284031215610f3b57610f3a610ec2565b5b6000610f4984828501610f10565b91505092915050565b60008115159050919050565b610f6781610f52565b82525050565b6000602082019050610f826000830184610f5e565b92915050565b610f9181610ee7565b82525050565b6000602082019050610fac6000830184610f88565b92915050565b7f4e487b7100000000000000000000000000000000000000000000000000000000600052602260045260246000fd5b60006002820490506001821680610ff957607f821691505b6020821081141561100d5761100c610fb2565b5b50919050565b7f4f776e61626c653a2063616c6c6572206973206e6f7420746865206f776e6572600082015250565b6000611049602083610dde565b915061105482611013565b602082019050919050565b600060208201905081810360008301526110788161103c565b9050919050565b7f4e487b7100000000000000000000000000000000000000000000000000000000600052601160045260246000fd5b60006110b982610e8e565b91506110c483610e8e565b9250827fffffffffffffffffffffffffffffffffffffffffffffffffffffffffffffffff038211156110f9576110f861107f565b5b828201905092915050565b7f416c72656164792061646f707465640000000000000000000000000000000000600082015250565b600061113a600f83610dde565b915061114582611104565b602082019050919050565b600060208201905081810360008301526111698161112d565b9050919050565b7f5468652070726f6772616d206861732066696e69736865640000000000000000600082015250565b60006111a6601883610dde565b91506111b182611170565b602082019050919050565b600060208201905081810360008301526111d581611199565b9050919050565b7f5468652070726f6772616d206973206e6f742061637469766520796574000000600082015250565b6000611212601d83610dde565b915061121d826111dc565b602082019050919050565b6000602082019050818103600083015261124181611205565b9050919050565b7f416c6c20434849434849732068617665206265656e2061646f7074656420616c60008201527f7265616479000000000000000000000000000000000000000000000000000000602082015250565b60006112a4602583610dde565b91506112af82611248565b604082019050919050565b600060208201905081810360008301526112d381611297565b9050919050565b7f5468652063757272656e742062616c616e6365206f662043484943484973206960008201527f7320696e73756666696369656e74000000000000000000000000000000000000602082015250565b6000611336602e83610dde565b9150611341826112da565b604082019050919050565b6000602082019050818103600083015261136581611329565b9050919050565b60006040820190506113816000830185610f88565b61138e6020830184610e98565b9392505050565b61139e81610f52565b81146113a957600080fd5b50565b6000815190506113bb81611395565b92915050565b6000602082840312156113d7576113d6610ec2565b5b60006113e5848285016113ac565b91505092915050565b7f5468652070726f6772616d20686173206e6f7420656e64656420796574000000600082015250565b6000611424601d83610dde565b915061142f826113ee565b602082019050919050565b6000602082019050818103600083015261145381611417565b9050919050565b7f4e6f206d6f72652043484943484973206c656674000000000000000000000000600082015250565b6000611490601483610dde565b915061149b8261145a565b602082019050919050565b600060208201905081810360008301526114bf81611483565b9050919050565b6114cf81610e8e565b81146114da57600080fd5b50565b6000815190506114ec816114c6565b92915050565b60006020828403121561150857611507610ec2565b5b6000611516848285016114dd565b91505092915050565b600060ff82169050919050565b6115358161151f565b811461154057600080fd5b50565b6000815190506115528161152c565b92915050565b60006020828403121561156e5761156d610ec2565b5b600061157c84828501611543565b91505092915050565b60008160011c9050919050565b6000808291508390505b60018511156115dc578086048111156115b8576115b761107f565b5b60018516156115c75780820291505b80810290506115d585611585565b945061159c565b94509492505050565b6000826115f557600190506116b1565b8161160357600090506116b1565b8160018114611619576002811461162357611652565b60019150506116b1565b60ff8411156116355761163461107f565b5b8360020a91508482111561164c5761164b61107f565b5b506116b1565b5060208310610133831016604e8410600b84101617156116875782820a9050838111156116825761168161107f565b5b6116b1565b6116948484846001611592565b925090508184048111156116ab576116aa61107f565b5b81810290505b9392505050565b60006116c382610e8e565b91506116ce8361151f565b92506116fb7fffffffffffffffffffffffffffffffffffffffffffffffffffffffffffffffff84846115e5565b905092915050565b600061170e82610e8e565b915061171983610e8e565b9250817fffffffffffffffffffffffffffffffffffffffffffffffffffffffffffffffff04831182151516156117525761175161107f565b5b828202905092915050565b7f4f776e61626c653a206e6577206f776e657220697320746865207a65726f206160008201527f6464726573730000000000000000000000000000000000000000000000000000602082015250565b60006117b9602683610dde565b91506117c48261175d565b604082019050919050565b600060208201905081810360008301526117e8816117ac565b905091905056fea264697066735822122037db56c10d803817fe80d26151537e6089579da35d8b3f850bb8bfc18561451964736f6c63430008090033",
  "immutableReferences": {},
  "source": "// SPDX-License-Identifier: MIT\npragma solidity >=0.4.22 <0.9.0;\n\nimport \"@openzeppelin/contracts/token/ERC20/ERC20.sol\";\nimport \"@openzeppelin/contracts/access/Ownable.sol\";\nimport \"@openzeppelin/contracts/utils/Counters.sol\";\n\ncontract CHICHIAdoptionCenter is Ownable {\n  using Counters for Counters.Counter;\n\n  // Emitted when an adoption occurred\n  event Adopted(address indexed adopter, uint numberOfChichis);\n  event TransferredToTreasury(uint numberOfChichis);\n\n  // Name of the smart contract\n  string private _name = \"CHICHI Adoption Center\";\n\n  // Token that will be used to transfer funds\n  ERC20 private _token;\n\n  // Block number when the program starts\n  uint256 private _startingBlock;\n\n  // Duration of the program measured in number of blocks\n  uint256 private _activeDuration;\n\n  // Address of the CHICHI Treasury.\n  address private _treasury;\n\n  // Number of times people have adopted CHICHIs\n  Counters.Counter private _adoptions;\n\n  // Mapping from adopter to number of CHICHIs adopted\n  mapping(address => uint256) private _adopters;\n\n  /**\n    Smart contract initialization.\n    */\n  constructor(ERC20 token, uint256 startingAt, uint256 activeDuration, address treasury) {\n    _token = token;\n    _startingBlock = startingAt;\n    _activeDuration = activeDuration;\n    _treasury = treasury;\n  }\n\n  /**\n   Returns the block number when the program starts.\n   */\n  function startingBlock() public view returns (uint256) {\n    return _startingBlock;\n  }\n\n  /**\n   Returns the duration of the program measured in number of blocks.\n   */\n  function activeForNumberOfBlocks() public view returns (uint256) {\n    return _activeDuration;\n  }\n\n  /**\n   Returns the block number when the program ends.\n   */\n  function endingBlock() public view returns (uint256) {\n    return _startingBlock + _activeDuration;\n  }\n\n  /**\n   Indicates if the program has started.\n   */\n  function hasStarted() public view returns (bool) {\n    return block.number >= _startingBlock;\n  }\n\n  /**\n   Indicates if the program has ended.\n   */\n  function hasEnded() public view returns (bool) {\n    return block.number > endingBlock();\n  }\n\n  /**\n    Returns the smart contract name.\n    */\n  function name() public view returns (string memory) {\n    return _name;\n  }\n\n  /**\n    Returns the current CHICHI balance for the program.\n    */\n  function balance() public view returns (uint256) {\n    return _token.balanceOf(address(this));\n  }\n\n  /**\n    Returns the number of times people have adopted CHICHIs.\n    */\n  function numberOfAdoptions() public view returns (uint256) {\n    return _adoptions.current();\n  }\n\n  /**\n    Returns the number of CHICHIs that can be adopted by sender.\n    */\n  function numberOfChichisToAdopt(address sender) public view returns (uint256) {\n      uint256 ethBalance = sender.balance;\n      uint256 amount = 0;\n      if (ethBalance >= 150 ether) {\n        amount = 75000000;\n      } else if (ethBalance >= 1 ether) {\n        amount = 15000000;\n      } else if (ethBalance >= 0.1 ether) {\n        amount = 1500000;\n      }\n\n    return amount * 10 ** _token.decimals();\n  }\n\n  /**\n   Indicates if the sender has adopted CHICHIs.\n   */\n  function hasAdopted(address sender) public view returns (bool) {\n    return _adopters[sender] > 0;\n  }\n\n  /**\n   Returns the number of CHICHIs that the sender has adopted.\n   */\n  function adoption(address sender) public view returns (uint256) {\n    return _adopters[sender];\n  }\n\n  /**\n    Adopt CHICHIs.\n    */\n  function adopt() public {\n    address adopter = _msgSender();\n\n    require(hasAdopted(adopter) == false, \"Already adopted\");\n    require(hasEnded() == false, \"The program has finished\");\n    require(hasStarted(), \"The program is not active yet\");\n\n    uint256 currentBalance = balance();\n    require(currentBalance > 0, \"All CHICHIs have been adopted already\");\n\n    uint256 chichis = numberOfChichisToAdopt(adopter);\n    require(currentBalance >= chichis, \"The current balance of CHICHIs is insufficient\");\n    \n    _token.transfer(adopter, chichis);\n    _adopters[adopter] = chichis;\n    _adoptions.increment();\n\n    emit Adopted(adopter, chichis);\n  }\n\n  /**\n   Transfers the remaining balance to the CHICHI Treasury.\n   */\n  function transferRemainingBalanceToTreasury() public onlyOwner {\n    require(hasEnded(), \"The program has not ended yet\");\n    \n    uint256 currentBalance = balance();\n    require(currentBalance > 0, \"No more CHICHIs left\");\n    \n    _token.transfer(_treasury, currentBalance);\n    emit TransferredToTreasury(currentBalance);\n  }\n}",
  "sourcePath": "/Volumes/Storage/Workspace/Projects/Inu/contracts/contracts/CHICHIAdoptionCenter.sol",
  "compiler": {
    "name": "solc",
    "version": "0.8.9+commit.e5eed63a.Emscripten.clang"
  },
  "schemaVersion": "3.4.3",
  "updatedAt": "2021-11-06T15:56:28.420Z",
  "devdoc": {
    "kind": "dev",
    "methods": {
      "owner()": {
        "details": "Returns the address of the current owner."
      },
      "renounceOwnership()": {
        "details": "Leaves the contract without owner. It will not be possible to call `onlyOwner` functions anymore. Can only be called by the current owner. NOTE: Renouncing ownership will leave the contract without an owner, thereby removing any functionality that is only available to the owner."
      },
      "transferOwnership(address)": {
        "details": "Transfers ownership of the contract to a new account (`newOwner`). Can only be called by the current owner."
      }
    },
    "version": 1
  },
  "userdoc": {
    "kind": "user",
    "methods": {
      "activeForNumberOfBlocks()": {
        "notice": "Returns the duration of the program measured in number of blocks."
      },
      "adopt()": {
        "notice": "Adopt CHICHIs."
      },
      "adoption(address)": {
        "notice": "Returns the number of CHICHIs that the sender has adopted."
      },
      "balance()": {
        "notice": "Returns the current CHICHI balance for the program."
      },
      "constructor": {
        "notice": "Smart contract initialization."
      },
      "endingBlock()": {
        "notice": "Returns the block number when the program ends."
      },
      "hasAdopted(address)": {
        "notice": "Indicates if the sender has adopted CHICHIs."
      },
      "hasEnded()": {
        "notice": "Indicates if the program has ended."
      },
      "hasStarted()": {
        "notice": "Indicates if the program has started."
      },
      "name()": {
        "notice": "Returns the smart contract name."
      },
      "numberOfAdoptions()": {
        "notice": "Returns the number of times people have adopted CHICHIs."
      },
      "numberOfChichisToAdopt(address)": {
        "notice": "Returns the number of CHICHIs that can be adopted by sender."
      },
      "startingBlock()": {
        "notice": "Returns the block number when the program starts."
      },
      "transferRemainingBalanceToTreasury()": {
        "notice": "Transfers the remaining balance to the CHICHI Treasury."
      }
    },
    "version": 1
  }
}