{
  "contractName": "CHICHIHelp",
  "abi": [
    {
      "inputs": [
        {
          "internalType": "contract ERC20",
          "name": "token",
          "type": "address"
        },
        {
          "internalType": "uint256",
          "name": "startingAt",
          "type": "uint256"
        },
        {
          "internalType": "uint256",
          "name": "activeDuration",
          "type": "uint256"
        },
        {
          "internalType": "address",
          "name": "treasuryAddress",
          "type": "address"
        }
      ],
      "stateMutability": "nonpayable",
      "type": "constructor"
    },
    {
      "anonymous": false,
      "inputs": [
        {
          "indexed": true,
          "internalType": "address",
          "name": "wallet",
          "type": "address"
        },
        {
          "indexed": false,
          "internalType": "string",
          "name": "name",
          "type": "string"
        },
        {
          "indexed": false,
          "internalType": "uint256",
          "name": "numberOfChichis",
          "type": "uint256"
        }
      ],
      "name": "AddedClaimer",
      "type": "event"
    },
    {
      "anonymous": false,
      "inputs": [
        {
          "indexed": true,
          "internalType": "address",
          "name": "by",
          "type": "address"
        },
        {
          "indexed": false,
          "internalType": "uint256",
          "name": "numberOfChichis",
          "type": "uint256"
        }
      ],
      "name": "Claimed",
      "type": "event"
    },
    {
      "anonymous": false,
      "inputs": [
        {
          "indexed": true,
          "internalType": "address",
          "name": "to",
          "type": "address"
        },
        {
          "indexed": false,
          "internalType": "uint256",
          "name": "numberOfChichis",
          "type": "uint256"
        }
      ],
      "name": "IncreasedAllowance",
      "type": "event"
    },
    {
      "anonymous": false,
      "inputs": [
        {
          "indexed": true,
          "internalType": "address",
          "name": "previousOwner",
          "type": "address"
        },
        {
          "indexed": true,
          "internalType": "address",
          "name": "newOwner",
          "type": "address"
        }
      ],
      "name": "OwnershipTransferred",
      "type": "event"
    },
    {
      "anonymous": false,
      "inputs": [
        {
          "indexed": false,
          "internalType": "uint256",
          "name": "numberOfChichis",
          "type": "uint256"
        }
      ],
      "name": "TransferredToTreasury",
      "type": "event"
    },
    {
      "inputs": [],
      "name": "owner",
      "outputs": [
        {
          "internalType": "address",
          "name": "",
          "type": "address"
        }
      ],
      "stateMutability": "view",
      "type": "function"
    },
    {
      "inputs": [],
      "name": "renounceOwnership",
      "outputs": [],
      "stateMutability": "nonpayable",
      "type": "function"
    },
    {
      "inputs": [
        {
          "internalType": "address",
          "name": "newOwner",
          "type": "address"
        }
      ],
      "name": "transferOwnership",
      "outputs": [],
      "stateMutability": "nonpayable",
      "type": "function"
    },
    {
      "inputs": [],
      "name": "startingBlock",
      "outputs": [
        {
          "internalType": "uint256",
          "name": "",
          "type": "uint256"
        }
      ],
      "stateMutability": "view",
      "type": "function"
    },
    {
      "inputs": [],
      "name": "activeForNumberOfBlocks",
      "outputs": [
        {
          "internalType": "uint256",
          "name": "",
          "type": "uint256"
        }
      ],
      "stateMutability": "view",
      "type": "function"
    },
    {
      "inputs": [],
      "name": "endingBlock",
      "outputs": [
        {
          "internalType": "uint256",
          "name": "",
          "type": "uint256"
        }
      ],
      "stateMutability": "view",
      "type": "function"
    },
    {
      "inputs": [],
      "name": "hasStarted",
      "outputs": [
        {
          "internalType": "bool",
          "name": "",
          "type": "bool"
        }
      ],
      "stateMutability": "view",
      "type": "function"
    },
    {
      "inputs": [],
      "name": "hasEnded",
      "outputs": [
        {
          "internalType": "bool",
          "name": "",
          "type": "bool"
        }
      ],
      "stateMutability": "view",
      "type": "function"
    },
    {
      "inputs": [],
      "name": "name",
      "outputs": [
        {
          "internalType": "string",
          "name": "",
          "type": "string"
        }
      ],
      "stateMutability": "pure",
      "type": "function"
    },
    {
      "inputs": [],
      "name": "treasury",
      "outputs": [
        {
          "internalType": "address",
          "name": "",
          "type": "address"
        }
      ],
      "stateMutability": "view",
      "type": "function"
    },
    {
      "inputs": [],
      "name": "balance",
      "outputs": [
        {
          "internalType": "uint256",
          "name": "",
          "type": "uint256"
        }
      ],
      "stateMutability": "view",
      "type": "function"
    },
    {
      "inputs": [],
      "name": "numberOfClaims",
      "outputs": [
        {
          "internalType": "uint256",
          "name": "",
          "type": "uint256"
        }
      ],
      "stateMutability": "view",
      "type": "function"
    },
    {
      "inputs": [
        {
          "internalType": "address",
          "name": "claimer",
          "type": "address"
        },
        {
          "internalType": "string",
          "name": "nameOfClaimer",
          "type": "string"
        },
        {
          "internalType": "uint256",
          "name": "allowance",
          "type": "uint256"
        }
      ],
      "name": "addClaimer",
      "outputs": [],
      "stateMutability": "nonpayable",
      "type": "function"
    },
    {
      "inputs": [
        {
          "internalType": "address",
          "name": "to",
          "type": "address"
        },
        {
          "internalType": "uint256",
          "name": "amount",
          "type": "uint256"
        }
      ],
      "name": "increaseAllowance",
      "outputs": [],
      "stateMutability": "nonpayable",
      "type": "function"
    },
    {
      "inputs": [
        {
          "internalType": "address",
          "name": "by",
          "type": "address"
        }
      ],
      "name": "numberOfChichisToClaim",
      "outputs": [
        {
          "internalType": "uint256",
          "name": "",
          "type": "uint256"
        }
      ],
      "stateMutability": "view",
      "type": "function"
    },
    {
      "inputs": [
        {
          "internalType": "address",
          "name": "by",
          "type": "address"
        }
      ],
      "name": "nameOf",
      "outputs": [
        {
          "internalType": "string",
          "name": "",
          "type": "string"
        }
      ],
      "stateMutability": "view",
      "type": "function"
    },
    {
      "inputs": [],
      "name": "claim",
      "outputs": [],
      "stateMutability": "nonpayable",
      "type": "function"
    },
    {
      "inputs": [],
      "name": "transferRemainingBalanceToTreasury",
      "outputs": [],
      "stateMutability": "nonpayable",
      "type": "function"
    }
  ],
  "bytecode": "0x60806040523480156200001157600080fd5b50604051620010f6380380620010f6833981016040819052620000349162000217565b6200003f33620001ae565b6001600160a01b038116620000af5760405162461bcd60e51b815260206004820152602b60248201527f547265617375727920616464726573732063616e6e6f7420626520746865207a60448201526a65726f206164647265737360a81b60648201526084015b60405180910390fd5b600083116200010f5760405162461bcd60e51b815260206004820152602560248201527f5374617274696e6720626c6f636b206d75737420626520677265617465722074604482015264068616e20360dc1b6064820152608401620000a6565b60008211620001705760405162461bcd60e51b815260206004820152602660248201527f416374697665206475726174696f6e206d75737420626520677265617465722060448201526507468616e20360d41b6064820152608401620000a6565b600180546001600160a01b039586166001600160a01b0319918216179091556002939093556003919091556004805491909316911617905562000268565b600080546001600160a01b038381166001600160a01b0319831681178455604051919092169283917f8be0079c531659141344cd1fd0a4f28419497f9722a3daafe3b4186f6b6457e09190a35050565b6001600160a01b03811681146200021457600080fd5b50565b600080600080608085870312156200022e57600080fd5b84516200023b81620001fe565b80945050602085015192506040850151915060608501516200025d81620001fe565b939692955090935050565b610e7e80620002786000396000f3fe608060405234801561001057600080fd5b50600436106101165760003560e01c80638da5cb5b116100a2578063d91c98d311610071578063d91c98d31461022f578063ecb70fb714610237578063ee9933751461023f578063f2fde38b14610247578063f5c573821461025a57600080fd5b80638da5cb5b146101e2578063b29e259c146101f3578063b69ef8a8146101fb578063cc8ce6a11461020357600080fd5b80634e71d92d116100e95780634e71d92d1461019257806361d027b31461019a5780636cf5ae7a146101bf578063715018a6146101d25780637b1f337d146101da57600080fd5b806306fdde031461011b5780633357436814610154578063395093511461016657806344691f7e1461017b575b600080fd5b60408051808201909152600b81526a04348494348492048656c760ac1b60208201525b60405161014b9190610bda565b60405180910390f35b6003545b60405190815260200161014b565b610179610174366004610c10565b61026d565b005b6002544310155b604051901515815260200161014b565b610179610312565b6004546001600160a01b03165b6040516001600160a01b03909116815260200161014b565b6101796101cd366004610c50565b6105f6565b610179610702565b610158610738565b6000546001600160a01b03166101a7565b61017961074f565b6101586108d4565b610158610211366004610d1b565b6001600160a01b031660009081526006602052604090206001015490565b600254610158565b610182610941565b610158610952565b610179610255366004610d1b565b61095d565b61013e610268366004610d1b565b6109f8565b6000546001600160a01b031633146102a05760405162461bcd60e51b815260040161029790610d36565b60405180910390fd5b6001600160a01b038216600090815260066020526040812060010180548392906102cb908490610d81565b90915550506040518181526001600160a01b038316907f81f2b0ee26cd73436e1191c40f9f50aa41703f91667028784e29b19e6d6d371b9060200160405180910390a25050565b3361031b610941565b156103685760405162461bcd60e51b815260206004820152601860248201527f5468652070726f6772616d206861732066696e697368656400000000000000006044820152606401610297565b6002544310156103ba5760405162461bcd60e51b815260206004820152601d60248201527f5468652070726f6772616d206973206e6f7420616374697665207965740000006044820152606401610297565b60006103c46108d4565b9050600081116104245760405162461bcd60e51b815260206004820152602560248201527f416c6c20434849434849732068617665206265656e20636c61696d656420616c604482015264726561647960d81b6064820152608401610297565b6001600160a01b038216600090815260066020526040902060010154806104855760405162461bcd60e51b8152602060048201526015602482015274596f752068617665206e6f20616c6c6f77616e636560581b6044820152606401610297565b8082106104925780610494565b815b9050808210156104fd5760405162461bcd60e51b815260206004820152602e60248201527f5468652063757272656e742062616c616e6365206f662043484943484973206960448201526d1cc81a5b9cdd59999a58da595b9d60921b6064820152608401610297565b60015460405163a9059cbb60e01b81526001600160a01b038581166004830152602482018490529091169063a9059cbb906044016020604051808303816000875af1158015610550573d6000803e3d6000fd5b505050506040513d601f19601f820116820180604052508101906105749190610d99565b506001600160a01b038316600090815260066020526040812060010180548392906105a0908490610dbb565b9091555050600580546001019055826001600160a01b03167fd8138f8a3f377c5259ca548e70e4c2de94f129f5a11036a15b69513cba2b426a826040516105e991815260200190565b60405180910390a2505050565b6000546001600160a01b031633146106205760405162461bcd60e51b815260040161029790610d36565b6001600160a01b038316600090815260066020526040902060010154156106795760405162461bcd60e51b815260206004820152600d60248201526c105b1c9958591e481859191959609a1b6044820152606401610297565b60408051808201825283815260208082018490526001600160a01b0386166000908152600682529290922081518051929391926106b99284920190610af4565b5060208201518160010155905050826001600160a01b03167fcbf460a380004cbc8481c8435a5eb78414493ff39f8b15097019cfd06878c88b83836040516105e9929190610dd2565b6000546001600160a01b0316331461072c5760405162461bcd60e51b815260040161029790610d36565b6107366000610aa4565b565b600060035460025461074a9190610d81565b905090565b6000546001600160a01b031633146107795760405162461bcd60e51b815260040161029790610d36565b610781610941565b6107cd5760405162461bcd60e51b815260206004820152601d60248201527f5468652070726f6772616d20686173206e6f7420656e646564207965740000006044820152606401610297565b60006107d76108d4565b9050600081116108205760405162461bcd60e51b8152602060048201526014602482015273139bc81b5bdc994810d21250d2125cc81b19599d60621b6044820152606401610297565b6001546004805460405163a9059cbb60e01b81526001600160a01b0391821692810192909252602482018490529091169063a9059cbb906044016020604051808303816000875af1158015610879573d6000803e3d6000fd5b505050506040513d601f19601f8201168201806040525081019061089d9190610d99565b506040518181527f42df749e7644a4435038a28d02b17d18ee300aca364443ab26f11325d4c88d7b9060200160405180910390a150565b6001546040516370a0823160e01b81523060048201526000916001600160a01b0316906370a0823190602401602060405180830381865afa15801561091d573d6000803e3d6000fd5b505050506040513d601f19601f8201168201806040525081019061074a9190610df4565b600061094b610738565b4311905090565b600061074a60055490565b6000546001600160a01b031633146109875760405162461bcd60e51b815260040161029790610d36565b6001600160a01b0381166109ec5760405162461bcd60e51b815260206004820152602660248201527f4f776e61626c653a206e6577206f776e657220697320746865207a65726f206160448201526564647265737360d01b6064820152608401610297565b6109f581610aa4565b50565b6001600160a01b0381166000908152600660205260409020805460609190610a1f90610e0d565b80601f0160208091040260200160405190810160405280929190818152602001828054610a4b90610e0d565b8015610a985780601f10610a6d57610100808354040283529160200191610a98565b820191906000526020600020905b815481529060010190602001808311610a7b57829003601f168201915b50505050509050919050565b600080546001600160a01b038381166001600160a01b0319831681178455604051919092169283917f8be0079c531659141344cd1fd0a4f28419497f9722a3daafe3b4186f6b6457e09190a35050565b828054610b0090610e0d565b90600052602060002090601f016020900481019282610b225760008555610b68565b82601f10610b3b57805160ff1916838001178555610b68565b82800160010185558215610b68579182015b82811115610b68578251825591602001919060010190610b4d565b50610b74929150610b78565b5090565b5b80821115610b745760008155600101610b79565b6000815180845260005b81811015610bb357602081850181015186830182015201610b97565b81811115610bc5576000602083870101525b50601f01601f19169290920160200192915050565b602081526000610bed6020830184610b8d565b9392505050565b80356001600160a01b0381168114610c0b57600080fd5b919050565b60008060408385031215610c2357600080fd5b610c2c83610bf4565b946020939093013593505050565b634e487b7160e01b600052604160045260246000fd5b600080600060608486031215610c6557600080fd5b610c6e84610bf4565b9250602084013567ffffffffffffffff80821115610c8b57600080fd5b818601915086601f830112610c9f57600080fd5b813581811115610cb157610cb1610c3a565b604051601f8201601f19908116603f01168101908382118183101715610cd957610cd9610c3a565b81604052828152896020848701011115610cf257600080fd5b826020860160208301376000602084830101528096505050505050604084013590509250925092565b600060208284031215610d2d57600080fd5b610bed82610bf4565b6020808252818101527f4f776e61626c653a2063616c6c6572206973206e6f7420746865206f776e6572604082015260600190565b634e487b7160e01b600052601160045260246000fd5b60008219821115610d9457610d94610d6b565b500190565b600060208284031215610dab57600080fd5b81518015158114610bed57600080fd5b600082821015610dcd57610dcd610d6b565b500390565b604081526000610de56040830185610b8d565b90508260208301529392505050565b600060208284031215610e0657600080fd5b5051919050565b600181811c90821680610e2157607f821691505b60208210811415610e4257634e487b7160e01b600052602260045260246000fd5b5091905056fea26469706673582212205ca583dda1497eb54877245117391b229b99f9ca2e84545b2069f1e81b8e62d964736f6c634300080a0033",
  "immutableReferences": {},
  "source": "// SPDX-License-Identifier: MIT\npragma solidity 0.8.10;\n\nimport \"@openzeppelin/contracts/token/ERC20/ERC20.sol\";\nimport \"@openzeppelin/contracts/access/Ownable.sol\";\nimport \"@openzeppelin/contracts/utils/Counters.sol\";\n\ncontract CHICHIHelp is Ownable {\n  using Counters for Counters.Counter;\n\n  struct Claimer {\n    string name;\n    uint256 allowance;\n}\n\n  // Emitted when a claimer has been added\n  event AddedClaimer(address indexed wallet, string name, uint numberOfChichis);\n  // Emitted when the allowance is increased for an address\n  event IncreasedAllowance(address indexed to, uint numberOfChichis);\n  // Emitted when a claim occurred\n  event Claimed(address indexed by, uint numberOfChichis);\n  // Emitted when the assets are transferred to the treasury\n  event TransferredToTreasury(uint numberOfChichis);\n\n  // Name of the smart contract\n  string constant private _name = \"CHICHI Help\";\n\n  // Token that will be used to transfer funds\n  ERC20 private _token;\n\n  // Block number when the program starts\n  uint256 private _startingBlock;\n\n  // Duration of the program measured in number of blocks\n  uint256 private _activeDuration;\n\n  // Address of the CHICHI Treasury.\n  address private _treasury;\n\n  // Number of times the CHICHIs have been claimed\n  Counters.Counter private _claims;\n\n  // CHICHI claimers\n  mapping(address => Claimer) private _claimers;\n\n  /**\n    Smart contract initialization.\n    */\n  constructor(ERC20 token, uint256 startingAt, uint256 activeDuration, address treasuryAddress) {\n    require(treasuryAddress != address(0), \"Treasury address cannot be the zero address\");\n    require(startingAt > 0, \"Starting block must be greater than 0\");\n    require(activeDuration > 0, \"Active duration must be greater than 0\");\n\n    _token = token;\n    _startingBlock = startingAt;\n    _activeDuration = activeDuration;\n    _treasury = treasuryAddress;\n  }\n\n  /**\n   Returns the block number when the program starts.\n   */\n  function startingBlock() external view returns (uint256) {\n    return _startingBlock;\n  }\n\n  /**\n   Returns the duration of the program measured in number of blocks.\n   */\n  function activeForNumberOfBlocks() external view returns (uint256) {\n    return _activeDuration;\n  }\n\n  /**\n   Returns the block number when the program ends.\n   */\n  function endingBlock() public view returns (uint256) {\n    return _startingBlock + _activeDuration;\n  }\n\n  /**\n   Indicates if the program has started.\n   */\n  function hasStarted() public view returns (bool) {\n    return block.number >= _startingBlock;\n  }\n\n  /**\n   Indicates if the program has ended.\n   */\n  function hasEnded() public view returns (bool) {\n    return block.number > endingBlock();\n  }\n\n  /**\n    Returns the smart contract name.\n    */\n  function name() external pure returns (string memory) {\n    return _name;\n  }\n\n  /**\n    Returns the treasury address.\n    */\n  function treasury() external view returns (address) {\n    return _treasury;\n  }\n\n  /**\n    Returns the current CHICHI balance for the program.\n    */\n  function balance() public view returns (uint256) {\n    return _token.balanceOf(address(this));\n  }\n\n  /**\n    Returns the number of times the CHICHIs have been claimed.\n    */\n  function numberOfClaims() external view returns (uint256) {\n    return _claims.current();\n  }\n\n  /**\n    Adds a new claimer.\n    */\n  function addClaimer(address claimer, string memory nameOfClaimer, uint256 allowance) external onlyOwner {\n    require(_claimers[claimer].allowance == 0, \"Already added\");\n\n    _claimers[claimer] = Claimer({\n      name: nameOfClaimer,\n      allowance: allowance\n    });\n\n    emit AddedClaimer(claimer, nameOfClaimer, allowance);\n  }\n\n  /**\n    Increase the number of CHICHIs that can be claimed by an address.\n    */\n  function increaseAllowance(address to, uint256 amount) external onlyOwner {\n    _claimers[to].allowance += amount;\n    emit IncreasedAllowance(to, amount);\n  }\n\n  /**\n    Returns the number of CHICHIs that can be claimed by an address.\n    */\n  function numberOfChichisToClaim(address by) public view returns (uint256) {\n    return _claimers[by].allowance;\n  }\n\n  /**\n    Returns the name of a claimer.\n    */\n  function nameOf(address by) external view returns (string memory) {\n    return _claimers[by].name;\n  }\n\n  /**\n    Claim CHICHIs.\n    */\n  function claim() external {\n    address claimer = _msgSender();\n\n    require(hasEnded() == false, \"The program has finished\");\n    require(hasStarted(), \"The program is not active yet\");\n\n    uint256 currentBalance = balance();\n    require(currentBalance > 0, \"All CHICHIs have been claimed already\");\n\n    uint256 chichis = numberOfChichisToClaim(claimer);\n    require(chichis > 0, \"You have no allowance\");\n\n    chichis = currentBalance < chichis ? currentBalance : chichis; // If the balance is less than the allowance for the claimer, claim all the remaining CHICHIs\n    require(currentBalance >= chichis, \"The current balance of CHICHIs is insufficient\");\n    \n    _token.transfer(claimer, chichis);\n    _claimers[claimer].allowance -= chichis;\n    _claims.increment();\n\n    emit Claimed(claimer, chichis);\n  }\n\n  /**\n   Transfers the remaining balance to the CHICHI Treasury.\n   */\n  function transferRemainingBalanceToTreasury() external onlyOwner {\n    require(hasEnded(), \"The program has not ended yet\");\n    \n    uint256 currentBalance = balance();\n    require(currentBalance > 0, \"No more CHICHIs left\");\n    \n    _token.transfer(_treasury, currentBalance);\n    emit TransferredToTreasury(currentBalance);\n  }\n}",
  "sourcePath": "/Volumes/Storage/Workspace/Projects/Inu/contracts/contracts/CHICHIHelp.sol",
  "compiler": {
    "name": "solc",
    "version": "0.8.10+commit.fc410830.Emscripten.clang"
  },
  "schemaVersion": "3.4.3",
  "updatedAt": "2021-11-16T07:36:42.660Z",
  "devdoc": {
    "kind": "dev",
    "methods": {
      "owner()": {
        "details": "Returns the address of the current owner."
      },
      "renounceOwnership()": {
        "details": "Leaves the contract without owner. It will not be possible to call `onlyOwner` functions anymore. Can only be called by the current owner. NOTE: Renouncing ownership will leave the contract without an owner, thereby removing any functionality that is only available to the owner."
      },
      "transferOwnership(address)": {
        "details": "Transfers ownership of the contract to a new account (`newOwner`). Can only be called by the current owner."
      }
    },
    "version": 1
  },
  "userdoc": {
    "kind": "user",
    "methods": {
      "activeForNumberOfBlocks()": {
        "notice": "Returns the duration of the program measured in number of blocks."
      },
      "addClaimer(address,string,uint256)": {
        "notice": "Adds a new claimer."
      },
      "balance()": {
        "notice": "Returns the current CHICHI balance for the program."
      },
      "claim()": {
        "notice": "Claim CHICHIs."
      },
      "constructor": {
        "notice": "Smart contract initialization."
      },
      "endingBlock()": {
        "notice": "Returns the block number when the program ends."
      },
      "hasEnded()": {
        "notice": "Indicates if the program has ended."
      },
      "hasStarted()": {
        "notice": "Indicates if the program has started."
      },
      "increaseAllowance(address,uint256)": {
        "notice": "Increase the number of CHICHIs that can be claimed by an address."
      },
      "name()": {
        "notice": "Returns the smart contract name."
      },
      "nameOf(address)": {
        "notice": "Returns the name of a claimer."
      },
      "numberOfChichisToClaim(address)": {
        "notice": "Returns the number of CHICHIs that can be claimed by an address."
      },
      "numberOfClaims()": {
        "notice": "Returns the number of times the CHICHIs have been claimed."
      },
      "startingBlock()": {
        "notice": "Returns the block number when the program starts."
      },
      "transferRemainingBalanceToTreasury()": {
        "notice": "Transfers the remaining balance to the CHICHI Treasury."
      },
      "treasury()": {
        "notice": "Returns the treasury address."
      }
    },
    "version": 1
  }
}